{
  "_format": "hh3-artifact-1",
  "contractName": "CommBankDotEth",
  "sourceName": "contracts/CommBankDotEth.sol",
  "abi": [
    {
      "inputs": [
        {
          "internalType": "address",
          "name": "_noteVerifier",
          "type": "address"
        },
        {
          "internalType": "address",
          "name": "_transactVerifier",
          "type": "address"
        },
        {
          "internalType": "address",
          "name": "_withdrawalVerifier",
          "type": "address"
        },
        {
          "internalType": "address",
          "name": "_transferExternalVerifier",
          "type": "address"
        }
      ],
      "stateMutability": "nonpayable",
      "type": "constructor"
    },
    {
      "inputs": [],
      "name": "AccessControlBadConfirmation",
      "type": "error"
    },
    {
      "inputs": [
        {
          "internalType": "address",
          "name": "account",
          "type": "address"
        },
        {
          "internalType": "bytes32",
          "name": "neededRole",
          "type": "bytes32"
        }
      ],
      "name": "AccessControlUnauthorizedAccount",
      "type": "error"
    },
    {
      "anonymous": false,
      "inputs": [
        {
          "indexed": true,
          "internalType": "uint256",
          "name": "leafIndex",
          "type": "uint256"
        },
        {
          "indexed": true,
          "internalType": "bytes32",
          "name": "leafValue",
          "type": "bytes32"
        }
      ],
      "name": "LeafInserted",
      "type": "event"
    },
    {
      "anonymous": false,
      "inputs": [
        {
          "indexed": false,
          "internalType": "bytes",
          "name": "encryptedNote",
          "type": "bytes"
        }
      ],
      "name": "NotePayload",
      "type": "event"
    },
    {
      "anonymous": false,
      "inputs": [
        {
          "indexed": true,
          "internalType": "bytes32",
          "name": "nullifier",
          "type": "bytes32"
        }
      ],
      "name": "NullifierUsed",
      "type": "event"
    },
    {
      "anonymous": false,
      "inputs": [
        {
          "indexed": true,
          "internalType": "bytes32",
          "name": "role",
          "type": "bytes32"
        },
        {
          "indexed": true,
          "internalType": "bytes32",
          "name": "previousAdminRole",
          "type": "bytes32"
        },
        {
          "indexed": true,
          "internalType": "bytes32",
          "name": "newAdminRole",
          "type": "bytes32"
        }
      ],
      "name": "RoleAdminChanged",
      "type": "event"
    },
    {
      "anonymous": false,
      "inputs": [
        {
          "indexed": true,
          "internalType": "bytes32",
          "name": "role",
          "type": "bytes32"
        },
        {
          "indexed": true,
          "internalType": "address",
          "name": "account",
          "type": "address"
        },
        {
          "indexed": true,
          "internalType": "address",
          "name": "sender",
          "type": "address"
        }
      ],
      "name": "RoleGranted",
      "type": "event"
    },
    {
      "anonymous": false,
      "inputs": [
        {
          "indexed": true,
          "internalType": "bytes32",
          "name": "role",
          "type": "bytes32"
        },
        {
          "indexed": true,
          "internalType": "address",
          "name": "account",
          "type": "address"
        },
        {
          "indexed": true,
          "internalType": "address",
          "name": "sender",
          "type": "address"
        }
      ],
      "name": "RoleRevoked",
      "type": "event"
    },
    {
      "inputs": [],
      "name": "DEFAULT_ADMIN_ROLE",
      "outputs": [
        {
          "internalType": "bytes32",
          "name": "",
          "type": "bytes32"
        }
      ],
      "stateMutability": "view",
      "type": "function"
    },
    {
      "inputs": [],
      "name": "DEPOSIT_ROLE",
      "outputs": [
        {
          "internalType": "bytes32",
          "name": "",
          "type": "bytes32"
        }
      ],
      "stateMutability": "view",
      "type": "function"
    },
    {
      "inputs": [],
      "name": "ETH_ADDRESS",
      "outputs": [
        {
          "internalType": "address",
          "name": "",
          "type": "address"
        }
      ],
      "stateMutability": "view",
      "type": "function"
    },
    {
      "inputs": [],
      "name": "INITIAL_ROOT",
      "outputs": [
        {
          "internalType": "uint256",
          "name": "",
          "type": "uint256"
        }
      ],
      "stateMutability": "view",
      "type": "function"
    },
    {
      "inputs": [],
      "name": "MAX_LEAF_INDEX",
      "outputs": [
        {
          "internalType": "uint256",
          "name": "",
          "type": "uint256"
        }
      ],
      "stateMutability": "view",
      "type": "function"
    },
    {
      "inputs": [],
      "name": "PRIME",
      "outputs": [
        {
          "internalType": "uint256",
          "name": "",
          "type": "uint256"
        }
      ],
      "stateMutability": "view",
      "type": "function"
    },
    {
      "inputs": [],
      "name": "ROOT_HISTORY_SIZE",
      "outputs": [
        {
          "internalType": "uint32",
          "name": "",
          "type": "uint32"
        }
      ],
      "stateMutability": "view",
      "type": "function"
    },
    {
      "inputs": [],
      "name": "currentRootIndex",
      "outputs": [
        {
          "internalType": "uint32",
          "name": "",
          "type": "uint32"
        }
      ],
      "stateMutability": "view",
      "type": "function"
    },
    {
      "inputs": [],
      "name": "deployer",
      "outputs": [
        {
          "internalType": "address",
          "name": "",
          "type": "address"
        }
      ],
      "stateMutability": "view",
      "type": "function"
    },
    {
      "inputs": [
        {
          "internalType": "address",
          "name": "_erc20",
          "type": "address"
        },
        {
          "internalType": "uint256",
          "name": "_amount",
          "type": "uint256"
        },
        {
          "internalType": "bytes",
          "name": "_proof",
          "type": "bytes"
        },
        {
          "internalType": "bytes32[]",
          "name": "_publicInputs",
          "type": "bytes32[]"
        },
        {
          "internalType": "bytes[]",
          "name": "_payload",
          "type": "bytes[]"
        }
      ],
      "name": "deposit",
      "outputs": [],
      "stateMutability": "nonpayable",
      "type": "function"
    },
    {
      "inputs": [
        {
          "internalType": "bytes",
          "name": "_proof",
          "type": "bytes"
        },
        {
          "internalType": "bytes32[]",
          "name": "_publicInputs",
          "type": "bytes32[]"
        },
        {
          "internalType": "bytes[]",
          "name": "_payload",
          "type": "bytes[]"
        }
      ],
      "name": "depositNative",
      "outputs": [],
      "stateMutability": "payable",
      "type": "function"
    },
    {
      "inputs": [],
      "name": "depositVerifier",
      "outputs": [
        {
          "internalType": "address",
          "name": "",
          "type": "address"
        }
      ],
      "stateMutability": "view",
      "type": "function"
    },
    {
      "inputs": [
        {
          "internalType": "uint256",
          "name": "",
          "type": "uint256"
        }
      ],
      "name": "filledSubtrees",
      "outputs": [
        {
          "internalType": "uint256",
          "name": "",
          "type": "uint256"
        }
      ],
      "stateMutability": "view",
      "type": "function"
    },
    {
      "inputs": [
        {
          "internalType": "bytes32",
          "name": "role",
          "type": "bytes32"
        }
      ],
      "name": "getRoleAdmin",
      "outputs": [
        {
          "internalType": "bytes32",
          "name": "",
          "type": "bytes32"
        }
      ],
      "stateMutability": "view",
      "type": "function"
    },
    {
      "inputs": [
        {
          "internalType": "bytes32",
          "name": "role",
          "type": "bytes32"
        },
        {
          "internalType": "address",
          "name": "account",
          "type": "address"
        }
      ],
      "name": "grantRole",
      "outputs": [],
      "stateMutability": "nonpayable",
      "type": "function"
    },
    {
      "inputs": [
        {
          "internalType": "bytes32",
          "name": "role",
          "type": "bytes32"
        },
        {
          "internalType": "address",
          "name": "account",
          "type": "address"
        }
      ],
      "name": "hasRole",
      "outputs": [
        {
          "internalType": "bool",
          "name": "",
          "type": "bool"
        }
      ],
      "stateMutability": "view",
      "type": "function"
    },
    {
      "inputs": [
        {
          "internalType": "uint256",
          "name": "_left",
          "type": "uint256"
        },
        {
          "internalType": "uint256",
          "name": "_right",
          "type": "uint256"
        }
      ],
      "name": "hashLeftRight",
      "outputs": [
        {
          "internalType": "uint256",
          "name": "",
          "type": "uint256"
        }
      ],
      "stateMutability": "view",
      "type": "function"
    },
    {
      "inputs": [],
      "name": "height",
      "outputs": [
        {
          "internalType": "uint256",
          "name": "",
          "type": "uint256"
        }
      ],
      "stateMutability": "view",
      "type": "function"
    },
    {
      "inputs": [
        {
          "internalType": "uint256",
          "name": "_root",
          "type": "uint256"
        }
      ],
      "name": "isKnownRoot",
      "outputs": [
        {
          "internalType": "bool",
          "name": "",
          "type": "bool"
        }
      ],
      "stateMutability": "view",
      "type": "function"
    },
    {
      "inputs": [],
      "name": "nextIndex",
      "outputs": [
        {
          "internalType": "uint256",
          "name": "",
          "type": "uint256"
        }
      ],
      "stateMutability": "view",
      "type": "function"
    },
    {
      "inputs": [
        {
          "internalType": "bytes32",
          "name": "",
          "type": "bytes32"
        }
      ],
      "name": "nullifierUsed",
      "outputs": [
        {
          "internalType": "bool",
          "name": "",
          "type": "bool"
        }
      ],
      "stateMutability": "view",
      "type": "function"
    },
    {
      "inputs": [],
      "name": "poseidon2Hasher",
      "outputs": [
        {
          "internalType": "address",
          "name": "",
          "type": "address"
        }
      ],
      "stateMutability": "view",
      "type": "function"
    },
    {
      "inputs": [
        {
          "internalType": "bytes32",
          "name": "role",
          "type": "bytes32"
        },
        {
          "internalType": "address",
          "name": "callerConfirmation",
          "type": "address"
        }
      ],
      "name": "renounceRole",
      "outputs": [],
      "stateMutability": "nonpayable",
      "type": "function"
    },
    {
      "inputs": [
        {
          "internalType": "bytes32",
          "name": "role",
          "type": "bytes32"
        },
        {
          "internalType": "address",
          "name": "account",
          "type": "address"
        }
      ],
      "name": "revokeRole",
      "outputs": [],
      "stateMutability": "nonpayable",
      "type": "function"
    },
    {
      "inputs": [
        {
          "internalType": "uint256",
          "name": "",
          "type": "uint256"
        }
      ],
      "name": "roots",
      "outputs": [
        {
          "internalType": "uint256",
          "name": "",
          "type": "uint256"
        }
      ],
      "stateMutability": "view",
      "type": "function"
    },
    {
      "inputs": [
        {
          "internalType": "address",
          "name": "_hasher",
          "type": "address"
        }
      ],
      "name": "setPoseidon",
      "outputs": [],
      "stateMutability": "nonpayable",
      "type": "function"
    },
    {
      "inputs": [
        {
          "internalType": "bytes4",
          "name": "interfaceId",
          "type": "bytes4"
        }
      ],
      "name": "supportsInterface",
      "outputs": [
        {
          "internalType": "bool",
          "name": "",
          "type": "bool"
        }
      ],
      "stateMutability": "view",
      "type": "function"
    },
    {
      "inputs": [
        {
          "internalType": "bytes",
          "name": "_proof",
          "type": "bytes"
        },
        {
          "internalType": "bytes32[]",
          "name": "_publicInputs",
          "type": "bytes32[]"
        },
        {
          "internalType": "bytes[]",
          "name": "_payload",
          "type": "bytes[]"
        }
      ],
      "name": "transfer",
      "outputs": [],
      "stateMutability": "nonpayable",
      "type": "function"
    },
    {
      "inputs": [
        {
          "internalType": "bytes",
          "name": "_proof",
          "type": "bytes"
        },
        {
          "internalType": "bytes32[]",
          "name": "_publicInputs",
          "type": "bytes32[]"
        },
        {
          "internalType": "bytes[]",
          "name": "_payload",
          "type": "bytes[]"
        }
      ],
      "name": "transferExternal",
      "outputs": [],
      "stateMutability": "nonpayable",
      "type": "function"
    },
    {
      "inputs": [],
      "name": "transferExternalVerifier",
      "outputs": [
        {
          "internalType": "address",
          "name": "",
          "type": "address"
        }
      ],
      "stateMutability": "view",
      "type": "function"
    },
    {
      "inputs": [],
      "name": "transferVerifier",
      "outputs": [
        {
          "internalType": "address",
          "name": "",
          "type": "address"
        }
      ],
      "stateMutability": "view",
      "type": "function"
    },
    {
      "inputs": [
        {
          "internalType": "bytes",
          "name": "_proof",
          "type": "bytes"
        },
        {
          "internalType": "bytes32[]",
          "name": "_publicInputs",
          "type": "bytes32[]"
        }
      ],
      "name": "withdraw",
      "outputs": [],
      "stateMutability": "nonpayable",
      "type": "function"
    },
    {
      "inputs": [],
      "name": "withdrawVerifier",
      "outputs": [
        {
          "internalType": "address",
          "name": "",
          "type": "address"
        }
      ],
      "stateMutability": "view",
      "type": "function"
    },
    {
      "inputs": [
        {
          "internalType": "uint256",
          "name": "i",
          "type": "uint256"
        }
      ],
      "name": "zeros",
      "outputs": [
        {
          "internalType": "uint256",
          "name": "",
          "type": "uint256"
        }
      ],
      "stateMutability": "pure",
      "type": "function"
    }
  ],
  "bytecode": "0x60c06040526002805463ffffffff191690555f6003557f2561bf26f818282a3be40719542054d2173eb0d38539e8a8d3cff22f29fd2384600d5573eeeeeeeeeeeeeeeeeeeeeeeeeeeeeeeeeeeeeeee60a05234801561005c575f5ffd5b50604051612b38380380612b3883398101604081905261007b91610225565b600c608081905261008d60018261028a565b610098906002610380565b600455505f80805260016020527f124005ad54174bbcb8c2dd053ea318daa80106cdcc518731504b771d6006123f7fa6eef7e35abe7026729641147f7915573c7e97b47efa546f5f6e3230263bcb495560068054336001600160a01b031991821681179092556008805482166001600160a01b0389811691909117909155600980548316888316179055600a80548316878316179055600b8054909216908516179055610145919061015d565b50600d54610153903361015d565b5050505050610392565b5f8281526007602090815260408083206001600160a01b038516845290915281205460ff16610201575f8381526007602090815260408083206001600160a01b03861684529091529020805460ff191660011790556101b93390565b6001600160a01b0316826001600160a01b0316847f2f8788117e7eff1d82e926ec794901d17c78024a50270940304540a733656f0d60405160405180910390a4506001610204565b505f5b92915050565b80516001600160a01b0381168114610220575f5ffd5b919050565b5f5f5f5f60808587031215610238575f5ffd5b6102418561020a565b935061024f6020860161020a565b925061025d6040860161020a565b915061026b6060860161020a565b905092959194509250565b634e487b7160e01b5f52601160045260245ffd5b8181038181111561020457610204610276565b6001815b60018411156102d8578085048111156102bc576102bc610276565b60018416156102ca57908102905b60019390931c9280026102a1565b935093915050565b5f826102ee57506001610204565b816102fa57505f610204565b8160018114610310576002811461031a57610336565b6001915050610204565b60ff84111561032b5761032b610276565b50506001821b610204565b5060208310610133831016604e8410600b8410161715610359575081810a610204565b6103655f19848461029d565b805f190482111561037857610378610276565b029392505050565b5f61038b83836102e0565b9392505050565b60805160a0516127696103cf5f395f81816104c901528181610b58015281816116b5015261199601525f818161023e0152611ef501526127695ff3fe6080604052600436106101b4575f3560e01c806390eeb02b116100ea578063c2b40ae41161008e578063c2b40ae41461055c578063c46165b514610587578063c51636df1461059a578063cd87a3b4146105b9578063d547741f146105cd578063d5f39488146105ec578063e82955881461060b578063f178e47c1461062a578063fc7e9c6f14610655575f5ffd5b806390eeb02b1461043657806391d1485414610467578063a217fddf14610486578063a6232a9314610499578063a734f06e146104b8578063aa77c44a146104eb578063b42147cd1461050a578063bc72436f1461053d575f5ffd5b806336568abe1161015c57806336568abe1461031a5780635bb93995146103395780635e125d0d1461035857806367843a5b146103775780637ecf686d1461039657806380fc7498146103c457806384746900146103d9578063864eb164146103f85780638daed52814610417575f5ffd5b806217cd8b146101b857806301ffc9a7146101fe5780630ef267431461022d5780631a702a2414610260578063248a9ca31461029757806326120c88146102c55780632f2ff15d146102e4578063353efdcf14610305575b5f5ffd5b3480156101c3575f5ffd5b506101eb7f30644e72e131a029b85045b68181585d2833e84879b9709143e1f593f000000181565b6040519081526020015b60405180910390f35b348015610209575f5ffd5b5061021d6102183660046120ab565b61066a565b60405190151581526020016101f5565b348015610238575f5ffd5b506101eb7f000000000000000000000000000000000000000000000000000000000000000081565b34801561026b575f5ffd5b5060055461027f906001600160a01b031681565b6040516001600160a01b0390911681526020016101f5565b3480156102a2575f5ffd5b506101eb6102b13660046120d9565b5f9081526007602052604090206001015490565b3480156102d0575f5ffd5b5060085461027f906001600160a01b031681565b3480156102ef575f5ffd5b506103036102fe366004612106565b6106a0565b005b348015610310575f5ffd5b506101eb600d5481565b348015610325575f5ffd5b50610303610334366004612106565b6106ca565b348015610344575f5ffd5b506101eb610353366004612130565b610702565b348015610363575f5ffd5b50610303610372366004612150565b6107fa565b348015610382575f5ffd5b506103036103913660046121ed565b6108c5565b3480156103a1575f5ffd5b5061021d6103b03660046120d9565b600c6020525f908152604090205460ff1681565b3480156103cf575f5ffd5b506101eb60045481565b3480156103e4575f5ffd5b506103036103f3366004612257565b610ccf565b348015610403575f5ffd5b50600a5461027f906001600160a01b031681565b348015610422575f5ffd5b5060095461027f906001600160a01b031681565b348015610441575f5ffd5b506002546104529063ffffffff1681565b60405163ffffffff90911681526020016101f5565b348015610472575f5ffd5b5061021d610481366004612106565b610fdf565b348015610491575f5ffd5b506101eb5f81565b3480156104a4575f5ffd5b5061021d6104b33660046120d9565b611009565b3480156104c3575f5ffd5b5061027f7f000000000000000000000000000000000000000000000000000000000000000081565b3480156104f6575f5ffd5b506103036105053660046122f3565b611082565b348015610515575f5ffd5b506101eb7f124005ad54174bbcb8c2dd053ea318daa80106cdcc518731504b771d6006123f81565b348015610548575f5ffd5b50610303610557366004612257565b61138b565b348015610567575f5ffd5b506101eb6105763660046120d9565b60016020525f908152604090205481565b610303610595366004612257565b6118ce565b3480156105a5575f5ffd5b50600b5461027f906001600160a01b031681565b3480156105c4575f5ffd5b50610452606481565b3480156105d8575f5ffd5b506103036105e7366004612106565b611b21565b3480156105f7575f5ffd5b5060065461027f906001600160a01b031681565b348015610616575f5ffd5b506101eb6106253660046120d9565b611b45565b348015610635575f5ffd5b506101eb6106443660046120d9565b5f6020819052908152604090205481565b348015610660575f5ffd5b506101eb60035481565b5f6001600160e01b03198216637965db0b60e01b148061069a57506301ffc9a760e01b6001600160e01b03198316145b92915050565b5f828152600760205260409020600101546106ba81611d8d565b6106c48383611d9a565b50505050565b6001600160a01b03811633146106f35760405163334bd91960e11b815260040160405180910390fd5b6106fd8282611e2b565b505050565b5f5f8383604051602001610720929190918252602082015260400190565b60408051601f19818403018152908290526005549092505f9182916001600160a01b0316906107509085906123a8565b5f60405180830381855afa9150503d805f8114610788576040519150601f19603f3d011682016040523d82523d5f602084013e61078d565b606091505b5091509150816107dc5760405162461bcd60e51b8152602060048201526015602482015274141bdcd95a591bdb8c881a185cda0819985a5b1959605a1b60448201526064015b60405180910390fd5b808060200190518101906107f091906123be565b9695505050505050565b6005546001600160a01b0316156108495760405162461bcd60e51b815260206004820152601360248201527243616e2774207365742069742074776963652160681b60448201526064016107d3565b6006546001600160a01b031633146108a35760405162461bcd60e51b815260206004820152601e60248201527f6f6e6c79206465706c6f7965722063616e2073657420706f736569646f6e000060448201526064016107d3565b600580546001600160a01b0319166001600160a01b0392909216919091179055565b6108e882825f8181106108da576108da6123d5565b905060200201355f1c611009565b6109045760405162461bcd60e51b81526004016107d3906123e9565b600a54604051633a94343960e21b81525f916001600160a01b03169063ea50d0e49061093a908890889088908890600401612438565b6020604051808303815f875af1158015610956573d5f5f3e3d5ffd5b505050506040513d601f19601f8201168201806040525081019061097a9190612482565b9050806109c25760405162461bcd60e51b815260206004820152601660248201527524b73b30b634b2103bb4ba34323930bb90383937b7b360511b60448201526064016107d3565b60015b60038111610ac0575f8484838181106109e0576109e06123d5565b9050602002013514610aae57600c5f858584818110610a0157610a016123d5565b602090810292909201358352508101919091526040015f205460ff1615610a3a5760405162461bcd60e51b81526004016107d3906124a1565b6001600c5f868685818110610a5157610a516123d5565b9050602002013581526020019081526020015f205f6101000a81548160ff021916908315150217905550838382818110610a8d57610a8d6123d5565b905060200201355f5160206126f45f395f51905f5260405160405180910390a25b80610ab8816124e6565b9150506109c5565b505f5b6003811015610cc7575f610ad88260046124fe565b90505f610ae68360076124fe565b90505f610af484600a6124fe565b90505f878785818110610b0957610b096123d5565b905060200201355f1c90505f888885818110610b2757610b276123d5565b905060200201355f1c90505f898985818110610b4557610b456123d5565b60200291909101359150508115610cb5577f00000000000000000000000000000000000000000000000000000000000000006001600160a01b0316836001600160a01b031603610c245781471015610baf5760405162461bcd60e51b81526004016107d390612511565b5f816001600160a01b0316836040515f6040518083038185875af1925050503d805f8114610bf8576040519150601f19603f3d011682016040523d82523d5f602084013e610bfd565b606091505b5050905080610c1e5760405162461bcd60e51b81526004016107d390612543565b50610cb5565b60405163a9059cbb60e01b81525f906001600160a01b0385169063a9059cbb90610c549085908790600401612570565b6020604051808303815f875af1158015610c70573d5f5f3e3d5ffd5b505050506040513d601f19601f82011682018060405250810190610c949190612482565b905080610cb35760405162461bcd60e51b81526004016107d390612589565b505b505060019094019350610ac392505050565b505050505050565b610ce484845f8181106108da576108da6123d5565b610d005760405162461bcd60e51b81526004016107d3906123e9565b600954604051633a94343960e21b81525f916001600160a01b03169063ea50d0e490610d36908a908a908a908a90600401612438565b6020604051808303815f875af1158015610d52573d5f5f3e3d5ffd5b505050506040513d601f19601f82011682018060405250810190610d769190612482565b905080610dbe5760405162461bcd60e51b815260206004820152601660248201527524b73b30b634b2103a3930b739b332b910383937b7b360511b60448201526064016107d3565b60015b610dcd600360016124fe565b811015610ebd575f868683818110610de757610de76123d5565b9050602002013514610eb557600c5f878784818110610e0857610e086123d5565b602090810292909201358352508101919091526040015f205460ff1615610e415760405162461bcd60e51b81526004016107d3906124a1565b6001600c5f888885818110610e5857610e586123d5565b9050602002013581526020019081526020015f205f6101000a81548160ff021916908315150217905550858582818110610e9457610e946123d5565b905060200201355f5160206126f45f395f51905f5260405160405180910390a25b600101610dc1565b505f610ecb600360016124fe565b90505b6003610edb8160016124fe565b610ee591906124fe565b811015610f38575f868683818110610eff57610eff6123d5565b9050602002013514610f3057610f2e868683818110610f2057610f206123d5565b905060200201355f1c611e96565b505b600101610ece565b505f5b600381108015610f4a57508281105b15610fd557838382818110610f6157610f616123d5565b9050602002810190610f7391906125b8565b159050610fc3575f5160206127145f395f51905f52848483818110610f9a57610f9a6123d5565b9050602002810190610fac91906125b8565b604051610fba9291906125fa565b60405180910390a15b80610fcd816124e6565b915050610f3b565b5050505050505050565b5f9182526007602090815260408084206001600160a01b0393909316845291905290205460ff1690565b5f815f0361101857505f919050565b60025463ffffffff16805b63ffffffff81165f908152600160205260409020548403611048575060019392505050565b8063ffffffff165f03611059575060645b8061106381612615565b9150508163ffffffff168163ffffffff160361102357505f9392505050565b600d5461108e81611d8d565b6040516323b872dd60e01b8152336004820152306024820152604481018990525f906001600160a01b038b16906323b872dd906064016020604051808303815f875af11580156110e0573d5f5f3e3d5ffd5b505050506040513d601f19601f820116820180604052508101906111049190612482565b9050806111535760405162461bcd60e51b815260206004820152601a60248201527f6661696c656420746f207472616e73666572206465706f73697400000000000060448201526064016107d3565b600854604051633a94343960e21b81525f916001600160a01b03169063ea50d0e490611189908c908c908c908c90600401612438565b6020604051808303815f875af11580156111a5573d5f5f3e3d5ffd5b505050506040513d601f19601f820116820180604052508101906111c99190612482565b9050806111e85760405162461bcd60e51b81526004016107d390612633565b868660018181106111fb576111fb6123d5565b905060200201355f1c6001600160a01b03168b6001600160a01b03161461125d5760405162461bcd60e51b815260206004820152601660248201527508aa486646040c2c8c8e4cae6e640dad2e6dac2e8c6d60531b60448201526064016107d3565b86866002818110611270576112706123d5565b905060200201355f1c6001600160401b03168a146112cb5760405162461bcd60e51b81526020600482015260186024820152771059191c995cdcc8185b5bdd5b9d081a5b98dbdc9c9958dd60421b60448201526064016107d3565b6112e087875f818110610f2057610f206123d5565b505f5b6003811080156112f257508481105b1561137d57858582818110611309576113096123d5565b905060200281019061131b91906125b8565b15905061136b575f5160206127145f395f51905f52868683818110611342576113426123d5565b905060200281019061135491906125b8565b6040516113629291906125fa565b60405180910390a15b80611375816124e6565b9150506112e3565b505050505050505050505050565b6113a084845f8181106108da576108da6123d5565b6113bc5760405162461bcd60e51b81526004016107d3906123e9565b600b54604051633a94343960e21b81525f916001600160a01b03169063ea50d0e4906113f2908a908a908a908a90600401612438565b6020604051808303815f875af115801561140e573d5f5f3e3d5ffd5b505050506040513d601f19601f820116820180604052508101906114329190612482565b9050806114815760405162461bcd60e51b815260206004820152601f60248201527f496e76616c6964207472616e736665722065787465726e616c2070726f6f660060448201526064016107d3565b60015b6003811161157f575f86868381811061149f5761149f6123d5565b905060200201351461156d57600c5f8787848181106114c0576114c06123d5565b602090810292909201358352508101919091526040015f205460ff16156114f95760405162461bcd60e51b81526004016107d3906124a1565b6001600c5f888885818110611510576115106123d5565b9050602002013581526020019081526020015f205f6101000a81548160ff02191690831515021790555085858281811061154c5761154c6123d5565b905060200201355f5160206126f45f395f51905f5260405160405180910390a25b80611577816124e6565b915050611484565b505f61158d600360016124fe565b90505b600361159d8160016124fe565b6115a791906124fe565b8110156115ec575f8686838181106115c1576115c16123d5565b90506020020135146115e4576115e2868683818110610f2057610f206123d5565b505b600101611590565b5060075f6115fb6003836124fe565b90505f6116096003836124fe565b90505f5b6003811015611824575f61162182866124fe565b90505f61162e83866124fe565b90505f61163b84866124fe565b90505f8c8c85818110611650576116506123d5565b905060200201355f1c90505f8d8d8581811061166e5761166e6123d5565b905060200201355f1c90505f8e8e8581811061168c5761168c6123d5565b905060200201355f1c90505f821180156116ae57506001600160a01b03811615155b15611812577f00000000000000000000000000000000000000000000000000000000000000006001600160a01b0316836001600160a01b031603611781578147101561170c5760405162461bcd60e51b81526004016107d390612511565b5f816001600160a01b0316836040515f6040518083038185875af1925050503d805f8114611755576040519150601f19603f3d011682016040523d82523d5f602084013e61175a565b606091505b505090508061177b5760405162461bcd60e51b81526004016107d390612543565b50611812565b60405163a9059cbb60e01b81525f906001600160a01b0385169063a9059cbb906117b19085908790600401612570565b6020604051808303815f875af11580156117cd573d5f5f3e3d5ffd5b505050506040513d601f19601f820116820180604052508101906117f19190612482565b9050806118105760405162461bcd60e51b81526004016107d390612589565b505b50506001909401935061160d92505050565b505f5b60038110801561183657508581105b156118c15786868281811061184d5761184d6123d5565b905060200281019061185f91906125b8565b1590506118af575f5160206127145f395f51905f52878783818110611886576118866123d5565b905060200281019061189891906125b8565b6040516118a69291906125fa565b60405180910390a15b806118b9816124e6565b915050611827565b5050505050505050505050565b600d546118da81611d8d565b600854604051633a94343960e21b81525f916001600160a01b03169063ea50d0e490611910908b908b908b908b90600401612438565b6020604051808303815f875af115801561192c573d5f5f3e3d5ffd5b505050506040513d601f19601f820116820180604052508101906119509190612482565b90508061196f5760405162461bcd60e51b81526004016107d390612633565b85856001818110611982576119826123d5565b905060200201355f1c6001600160a01b03167f00000000000000000000000000000000000000000000000000000000000000006001600160a01b0316146119fe5760405162461bcd60e51b815260206004820152601060248201526f082c8c8e4cae6e640dad2e6dac2e8c6d60831b60448201526064016107d3565b85856002818110611a1157611a116123d5565b905060200201355f1c6001600160401b03163414611a645760405162461bcd60e51b815260206004820152601060248201526f105b5bdd5b9d081a5b98dbdc9c9958dd60821b60448201526064016107d3565b611a7986865f818110610f2057610f206123d5565b505f5b600381108015611a8b57508381105b15611b1657848482818110611aa257611aa26123d5565b9050602002810190611ab491906125b8565b159050611b04575f5160206127145f395f51905f52858583818110611adb57611adb6123d5565b9050602002810190611aed91906125b8565b604051611afb9291906125fa565b60405180910390a15b80611b0e816124e6565b915050611a7c565b505050505050505050565b5f82815260076020526040902060010154611b3b81611d8d565b6106c48383611e2b565b5f815f03611b7457507f1e2856f9f722631c878a92dc1d84283d04b76df3e1831492bdf7098c1e65e478919050565b81600103611ba357507f2c2eecb1b14035bfd9765e84195684b401a84fdb58c3c03f1bcea86dcf0c8105919050565b81600203611bd257507f237e412a71db31e5769f63d92346a09dd0f30b9c335e9d9aa96b6625eb537445919050565b81600303611c0157507f0b3ff120d61a7de2da3d80ff99d393796805c74be5c39e8a4c7436d1c65dad4c919050565b81600403611c3057507f0fc58e21665302678bef68714d9e5889583071f7bd3cf018b64fafc51b0a9cf3919050565b81600503611c5f57507f235df7c585524ed8a26aea20a0fb168038f10df71d84720c9a8c1b3e78e3b6cd919050565b81600603611c8e57507f1c6cabee394ea24dc09eab1788f7f62b367e95789f883e33690d94215d819264919050565b81600703611cbd57507f09bec327ab2c8dda5d2d435cd267cb21e71f21371a01739885817eb1625d8976919050565b81600803611cec57507f2d35519ad7061578be50cbbfe040327843f6b4cdf1458e01b5f9737dbaf82b18919050565b81600903611d1b57507f0f86c9e9c9e689394a4944bb87291a3f55cc930b21432fccf41b8267f1a98d6f919050565b81600a03611d4a57507f181c9ba70900093b180c96f55cc2b1d73d60b8ab613344cbba83b33cbcc94e2b919050565b60405162461bcd60e51b8152602060048201526013602482015272496e646578206f7574206f6620626f756e647360681b60448201526064016107d3565b919050565b611d97813361207c565b50565b5f611da58383610fdf565b611e24575f8381526007602090815260408083206001600160a01b03861684529091529020805460ff19166001179055611ddc3390565b6001600160a01b0316826001600160a01b0316847f2f8788117e7eff1d82e926ec794901d17c78024a50270940304540a733656f0d60405160405180910390a450600161069a565b505f61069a565b5f611e368383610fdf565b15611e24575f8381526007602090815260408083206001600160a01b0386168085529252808320805460ff1916905551339286917ff6391f5c32d9c69d2a47ea670b442974b53935d1edc7fd64eb21e047a839171b9190a450600161069a565b6003546004545f91908103611ed95760405162461bcd60e51b8152602060048201526009602482015268151c995948119d5b1b60ba1b60448201526064016107d3565b5f818152602081905260408120849055819084905b611f1960017f0000000000000000000000000000000000000000000000000000000000000000612663565b811015611fe6575f611f2c60028561268a565b1590505f81611f4557611f40600186612663565b611f50565b611f508560016124fe565b602084811b82175f8181529182905260408220549293509190819003611f7c57611f7985611b45565b90505b8315611f9357611f8c8682610702565b9550611fa0565b611f9d8187610702565b95505b611fab60028861269d565b9650855f80611fc6611fbe8960016124fe565b60201b8b1790565b815260208101919091526040015f2055505060019092019150611eee9050565b506002545f906064906120009063ffffffff1660016126b0565b61200a91906126cc565b6002805463ffffffff191663ffffffff83169081179091555f9081526001602081905260409091208490559091506120439085906124fe565b600355604051869085907f9a40fd7d16dbc76bf1972bae17064a13dea280d9723bc57a2a89a516d45757f5905f90a35091949350505050565b6120868282610fdf565b6120a757808260405163e2517d3f60e01b81526004016107d3929190612570565b5050565b5f602082840312156120bb575f5ffd5b81356001600160e01b0319811681146120d2575f5ffd5b9392505050565b5f602082840312156120e9575f5ffd5b5035919050565b80356001600160a01b0381168114611d88575f5ffd5b5f5f60408385031215612117575f5ffd5b82359150612127602084016120f0565b90509250929050565b5f5f60408385031215612141575f5ffd5b50508035926020909101359150565b5f60208284031215612160575f5ffd5b6120d2826120f0565b5f5f83601f840112612179575f5ffd5b5081356001600160401b0381111561218f575f5ffd5b6020830191508360208285010111156121a6575f5ffd5b9250929050565b5f5f83601f8401126121bd575f5ffd5b5081356001600160401b038111156121d3575f5ffd5b6020830191508360208260051b85010111156121a6575f5ffd5b5f5f5f5f60408587031215612200575f5ffd5b84356001600160401b03811115612215575f5ffd5b61222187828801612169565b90955093505060208501356001600160401b0381111561223f575f5ffd5b61224b878288016121ad565b95989497509550505050565b5f5f5f5f5f5f6060878903121561226c575f5ffd5b86356001600160401b03811115612281575f5ffd5b61228d89828a01612169565b90975095505060208701356001600160401b038111156122ab575f5ffd5b6122b789828a016121ad565b90955093505060408701356001600160401b038111156122d5575f5ffd5b6122e189828a016121ad565b979a9699509497509295939492505050565b5f5f5f5f5f5f5f5f60a0898b03121561230a575f5ffd5b612313896120f0565b97506020890135965060408901356001600160401b03811115612334575f5ffd5b6123408b828c01612169565b90975095505060608901356001600160401b0381111561235e575f5ffd5b61236a8b828c016121ad565b90955093505060808901356001600160401b03811115612388575f5ffd5b6123948b828c016121ad565b999c989b5096995094979396929594505050565b5f82518060208501845e5f920191825250919050565b5f602082840312156123ce575f5ffd5b5051919050565b634e487b7160e01b5f52603260045260245ffd5b6020808252600d908201526c496e76616c696420526f6f742160981b604082015260600190565b81835281816020850137505f828201602090810191909152601f909101601f19169091010190565b604081525f61244b604083018688612410565b82810360208401528381526001600160fb1b03841115612469575f5ffd5b8360051b80866020840137016020019695505050505050565b5f60208284031215612492575f5ffd5b815180151581146120d2575f5ffd5b602080825260179082015276139d5b1b1a599a595c88185b1c9958591e481cdc195b9d604a1b604082015260600190565b634e487b7160e01b5f52601160045260245ffd5b5f600182016124f7576124f76124d2565b5060010190565b8082018082111561069a5761069a6124d2565b602080825260189082015277496e73756666696369656e74204554482062616c616e636560401b604082015260600190565b602080825260139082015272115512081d1c985b9cd9995c8819985a5b1959606a1b604082015260600190565b6001600160a01b03929092168252602082015260400190565b602080825260159082015274151bdad95b881d1c985b9cd9995c8819985a5b1959605a1b604082015260600190565b5f5f8335601e198436030181126125cd575f5ffd5b8301803591506001600160401b038211156125e6575f5ffd5b6020019150368190038213156121a6575f5ffd5b602081525f61260d602083018486612410565b949350505050565b5f63ffffffff82168061262a5761262a6124d2565b5f190192915050565b602080825260169082015275496e76616c6964206465706f7369742070726f6f662160501b604082015260600190565b8181038181111561069a5761069a6124d2565b634e487b7160e01b5f52601260045260245ffd5b5f8261269857612698612676565b500690565b5f826126ab576126ab612676565b500490565b63ffffffff818116838216019081111561069a5761069a6124d2565b5f63ffffffff8316806126e1576126e1612676565b8063ffffffff8416069150509291505056fe4aac17bcf1974f8ba294b28aaf75fe627cdcc9a03ac55bda3bfe158ab067383c1350ba861189904691f5a79791c8b0eb3c5ea51a8954ae413a167e05c66ca1e0a264697066735822122052479300eebe39dc664c535b8bf1f33e15975d115ef9240b8a7305cd8a7dcc2964736f6c634300081c0033",
  "linkReferences": {},
  "deployedLinkReferences": {},
  "immutableReferences": {
    "576": [
      {
        "length": 32,
        "start": 1225
      },
      {
        "length": 32,
        "start": 2904
      },
      {
        "length": 32,
        "start": 5813
      },
      {
        "length": 32,
        "start": 6550
      }
    ],
    "1525": [
      {
        "length": 32,
        "start": 574
      },
      {
        "length": 32,
        "start": 7925
      }
    ]
  },
  "inputSourceName": "project/contracts/CommBankDotEth.sol",
  "buildInfoId": "solc-0_8_28-fef4b5630deb701627d1120a176010d0d64c6838"
}