{
  "_format": "hh3-artifact-1",
  "contractName": "CommBankDotEth",
  "sourceName": "contracts/CommBankDotEth.sol",
  "abi": [
    {
      "inputs": [
        {
          "internalType": "address",
          "name": "_noteVerifier",
          "type": "address"
        },
        {
          "internalType": "address",
          "name": "_transactVerifier",
          "type": "address"
        },
        {
          "internalType": "address",
          "name": "_withdrawalVerifier",
          "type": "address"
        }
      ],
      "stateMutability": "nonpayable",
      "type": "constructor"
    },
    {
      "inputs": [],
      "name": "AccessControlBadConfirmation",
      "type": "error"
    },
    {
      "inputs": [
        {
          "internalType": "address",
          "name": "account",
          "type": "address"
        },
        {
          "internalType": "bytes32",
          "name": "neededRole",
          "type": "bytes32"
        }
      ],
      "name": "AccessControlUnauthorizedAccount",
      "type": "error"
    },
    {
      "anonymous": false,
      "inputs": [
        {
          "indexed": true,
          "internalType": "uint256",
          "name": "leafIndex",
          "type": "uint256"
        },
        {
          "indexed": true,
          "internalType": "uint256",
          "name": "leafValue",
          "type": "uint256"
        }
      ],
      "name": "LeafInserted",
      "type": "event"
    },
    {
      "anonymous": false,
      "inputs": [
        {
          "indexed": false,
          "internalType": "bytes",
          "name": "encryptedNote",
          "type": "bytes"
        }
      ],
      "name": "NotePayload",
      "type": "event"
    },
    {
      "anonymous": false,
      "inputs": [
        {
          "indexed": true,
          "internalType": "uint256",
          "name": "nullifier",
          "type": "uint256"
        }
      ],
      "name": "NullifierUsed",
      "type": "event"
    },
    {
      "anonymous": false,
      "inputs": [
        {
          "indexed": true,
          "internalType": "bytes32",
          "name": "role",
          "type": "bytes32"
        },
        {
          "indexed": true,
          "internalType": "bytes32",
          "name": "previousAdminRole",
          "type": "bytes32"
        },
        {
          "indexed": true,
          "internalType": "bytes32",
          "name": "newAdminRole",
          "type": "bytes32"
        }
      ],
      "name": "RoleAdminChanged",
      "type": "event"
    },
    {
      "anonymous": false,
      "inputs": [
        {
          "indexed": true,
          "internalType": "bytes32",
          "name": "role",
          "type": "bytes32"
        },
        {
          "indexed": true,
          "internalType": "address",
          "name": "account",
          "type": "address"
        },
        {
          "indexed": true,
          "internalType": "address",
          "name": "sender",
          "type": "address"
        }
      ],
      "name": "RoleGranted",
      "type": "event"
    },
    {
      "anonymous": false,
      "inputs": [
        {
          "indexed": true,
          "internalType": "bytes32",
          "name": "role",
          "type": "bytes32"
        },
        {
          "indexed": true,
          "internalType": "address",
          "name": "account",
          "type": "address"
        },
        {
          "indexed": true,
          "internalType": "address",
          "name": "sender",
          "type": "address"
        }
      ],
      "name": "RoleRevoked",
      "type": "event"
    },
    {
      "inputs": [],
      "name": "DEFAULT_ADMIN_ROLE",
      "outputs": [
        {
          "internalType": "bytes32",
          "name": "",
          "type": "bytes32"
        }
      ],
      "stateMutability": "view",
      "type": "function"
    },
    {
      "inputs": [],
      "name": "DEPOSIT_ROLE",
      "outputs": [
        {
          "internalType": "bytes32",
          "name": "",
          "type": "bytes32"
        }
      ],
      "stateMutability": "view",
      "type": "function"
    },
    {
      "inputs": [],
      "name": "ETH_ADDRESS",
      "outputs": [
        {
          "internalType": "address",
          "name": "",
          "type": "address"
        }
      ],
      "stateMutability": "view",
      "type": "function"
    },
    {
      "inputs": [],
      "name": "INITIAL_ROOT",
      "outputs": [
        {
          "internalType": "uint256",
          "name": "",
          "type": "uint256"
        }
      ],
      "stateMutability": "view",
      "type": "function"
    },
    {
      "inputs": [],
      "name": "MAX_LEAF_INDEX",
      "outputs": [
        {
          "internalType": "uint256",
          "name": "",
          "type": "uint256"
        }
      ],
      "stateMutability": "view",
      "type": "function"
    },
    {
      "inputs": [],
      "name": "PRIME",
      "outputs": [
        {
          "internalType": "uint256",
          "name": "",
          "type": "uint256"
        }
      ],
      "stateMutability": "view",
      "type": "function"
    },
    {
      "inputs": [],
      "name": "ROOT_HISTORY_SIZE",
      "outputs": [
        {
          "internalType": "uint32",
          "name": "",
          "type": "uint32"
        }
      ],
      "stateMutability": "view",
      "type": "function"
    },
    {
      "inputs": [],
      "name": "currentRootIndex",
      "outputs": [
        {
          "internalType": "uint32",
          "name": "",
          "type": "uint32"
        }
      ],
      "stateMutability": "view",
      "type": "function"
    },
    {
      "inputs": [],
      "name": "deployer",
      "outputs": [
        {
          "internalType": "address",
          "name": "",
          "type": "address"
        }
      ],
      "stateMutability": "view",
      "type": "function"
    },
    {
      "inputs": [
        {
          "internalType": "address",
          "name": "_erc20",
          "type": "address"
        },
        {
          "internalType": "uint256",
          "name": "_amount",
          "type": "uint256"
        },
        {
          "internalType": "bytes",
          "name": "_proof",
          "type": "bytes"
        },
        {
          "internalType": "bytes32[]",
          "name": "_publicInputs",
          "type": "bytes32[]"
        },
        {
          "internalType": "bytes[]",
          "name": "_payload",
          "type": "bytes[]"
        }
      ],
      "name": "deposit",
      "outputs": [],
      "stateMutability": "nonpayable",
      "type": "function"
    },
    {
      "inputs": [
        {
          "internalType": "bytes",
          "name": "_proof",
          "type": "bytes"
        },
        {
          "internalType": "bytes32[]",
          "name": "_publicInputs",
          "type": "bytes32[]"
        },
        {
          "internalType": "bytes[]",
          "name": "_payload",
          "type": "bytes[]"
        }
      ],
      "name": "depositNative",
      "outputs": [],
      "stateMutability": "payable",
      "type": "function"
    },
    {
      "inputs": [
        {
          "internalType": "uint256",
          "name": "",
          "type": "uint256"
        }
      ],
      "name": "filledSubtrees",
      "outputs": [
        {
          "internalType": "uint256",
          "name": "",
          "type": "uint256"
        }
      ],
      "stateMutability": "view",
      "type": "function"
    },
    {
      "inputs": [
        {
          "internalType": "bytes32",
          "name": "role",
          "type": "bytes32"
        }
      ],
      "name": "getRoleAdmin",
      "outputs": [
        {
          "internalType": "bytes32",
          "name": "",
          "type": "bytes32"
        }
      ],
      "stateMutability": "view",
      "type": "function"
    },
    {
      "inputs": [
        {
          "internalType": "bytes32",
          "name": "role",
          "type": "bytes32"
        },
        {
          "internalType": "address",
          "name": "account",
          "type": "address"
        }
      ],
      "name": "grantRole",
      "outputs": [],
      "stateMutability": "nonpayable",
      "type": "function"
    },
    {
      "inputs": [
        {
          "internalType": "bytes32",
          "name": "role",
          "type": "bytes32"
        },
        {
          "internalType": "address",
          "name": "account",
          "type": "address"
        }
      ],
      "name": "hasRole",
      "outputs": [
        {
          "internalType": "bool",
          "name": "",
          "type": "bool"
        }
      ],
      "stateMutability": "view",
      "type": "function"
    },
    {
      "inputs": [
        {
          "internalType": "uint256",
          "name": "_left",
          "type": "uint256"
        },
        {
          "internalType": "uint256",
          "name": "_right",
          "type": "uint256"
        }
      ],
      "name": "hashLeftRight",
      "outputs": [
        {
          "internalType": "uint256",
          "name": "",
          "type": "uint256"
        }
      ],
      "stateMutability": "view",
      "type": "function"
    },
    {
      "inputs": [],
      "name": "height",
      "outputs": [
        {
          "internalType": "uint256",
          "name": "",
          "type": "uint256"
        }
      ],
      "stateMutability": "view",
      "type": "function"
    },
    {
      "inputs": [
        {
          "internalType": "uint256",
          "name": "_root",
          "type": "uint256"
        }
      ],
      "name": "isKnownRoot",
      "outputs": [
        {
          "internalType": "bool",
          "name": "",
          "type": "bool"
        }
      ],
      "stateMutability": "view",
      "type": "function"
    },
    {
      "inputs": [],
      "name": "nextIndex",
      "outputs": [
        {
          "internalType": "uint256",
          "name": "",
          "type": "uint256"
        }
      ],
      "stateMutability": "view",
      "type": "function"
    },
    {
      "inputs": [
        {
          "internalType": "bytes32",
          "name": "",
          "type": "bytes32"
        }
      ],
      "name": "nullifierUsed",
      "outputs": [
        {
          "internalType": "bool",
          "name": "",
          "type": "bool"
        }
      ],
      "stateMutability": "view",
      "type": "function"
    },
    {
      "inputs": [],
      "name": "poseidon2Hasher",
      "outputs": [
        {
          "internalType": "address",
          "name": "",
          "type": "address"
        }
      ],
      "stateMutability": "view",
      "type": "function"
    },
    {
      "inputs": [
        {
          "internalType": "bytes32",
          "name": "role",
          "type": "bytes32"
        },
        {
          "internalType": "address",
          "name": "callerConfirmation",
          "type": "address"
        }
      ],
      "name": "renounceRole",
      "outputs": [],
      "stateMutability": "nonpayable",
      "type": "function"
    },
    {
      "inputs": [
        {
          "internalType": "bytes32",
          "name": "role",
          "type": "bytes32"
        },
        {
          "internalType": "address",
          "name": "account",
          "type": "address"
        }
      ],
      "name": "revokeRole",
      "outputs": [],
      "stateMutability": "nonpayable",
      "type": "function"
    },
    {
      "inputs": [
        {
          "internalType": "uint256",
          "name": "",
          "type": "uint256"
        }
      ],
      "name": "roots",
      "outputs": [
        {
          "internalType": "uint256",
          "name": "",
          "type": "uint256"
        }
      ],
      "stateMutability": "view",
      "type": "function"
    },
    {
      "inputs": [
        {
          "internalType": "address",
          "name": "_hasher",
          "type": "address"
        }
      ],
      "name": "setPoseidon",
      "outputs": [],
      "stateMutability": "nonpayable",
      "type": "function"
    },
    {
      "inputs": [
        {
          "internalType": "bytes4",
          "name": "interfaceId",
          "type": "bytes4"
        }
      ],
      "name": "supportsInterface",
      "outputs": [
        {
          "internalType": "bool",
          "name": "",
          "type": "bool"
        }
      ],
      "stateMutability": "view",
      "type": "function"
    },
    {
      "inputs": [
        {
          "internalType": "bytes",
          "name": "_proof",
          "type": "bytes"
        },
        {
          "internalType": "bytes32[]",
          "name": "_publicInputs",
          "type": "bytes32[]"
        },
        {
          "internalType": "bytes[]",
          "name": "_payload",
          "type": "bytes[]"
        }
      ],
      "name": "transfer",
      "outputs": [],
      "stateMutability": "nonpayable",
      "type": "function"
    },
    {
      "inputs": [
        {
          "internalType": "bytes",
          "name": "_proof",
          "type": "bytes"
        },
        {
          "internalType": "bytes32[]",
          "name": "_publicInputs",
          "type": "bytes32[]"
        }
      ],
      "name": "withdraw",
      "outputs": [],
      "stateMutability": "nonpayable",
      "type": "function"
    },
    {
      "inputs": [
        {
          "internalType": "uint256",
          "name": "i",
          "type": "uint256"
        }
      ],
      "name": "zeros",
      "outputs": [
        {
          "internalType": "uint256",
          "name": "",
          "type": "uint256"
        }
      ],
      "stateMutability": "pure",
      "type": "function"
    }
  ],
  "bytecode": "0x60c06040526002805463ffffffff191690555f6003557f2561bf26f818282a3be40719542054d2173eb0d38539e8a8d3cff22f29fd2384600c5573eeeeeeeeeeeeeeeeeeeeeeeeeeeeeeeeeeeeeeee60a05234801561005c575f5ffd5b506040516124eb3803806124eb83398101604081905261007b91610218565b600c608081905261008d60018261026c565b610098906002610362565b600455505f80805260016020527f124005ad54174bbcb8c2dd053ea318daa80106cdcc518731504b771d6006123f7fa6eef7e35abe7026729641147f7915573c7e97b47efa546f5f6e3230263bcb495560068054336001600160a01b031991821681179092556008805482166001600160a01b0388811691909117909155600980548316878316179055600a80549092169085161790556101399190610150565b50600c546101479033610150565b50505050610374565b5f8281526007602090815260408083206001600160a01b038516845290915281205460ff166101f4575f8381526007602090815260408083206001600160a01b03861684529091529020805460ff191660011790556101ac3390565b6001600160a01b0316826001600160a01b0316847f2f8788117e7eff1d82e926ec794901d17c78024a50270940304540a733656f0d60405160405180910390a45060016101f7565b505f5b92915050565b80516001600160a01b0381168114610213575f5ffd5b919050565b5f5f5f6060848603121561022a575f5ffd5b610233846101fd565b9250610241602085016101fd565b915061024f604085016101fd565b90509250925092565b634e487b7160e01b5f52601160045260245ffd5b818103818111156101f7576101f7610258565b6001815b60018411156102ba5780850481111561029e5761029e610258565b60018416156102ac57908102905b60019390931c928002610283565b935093915050565b5f826102d0575060016101f7565b816102dc57505f6101f7565b81600181146102f257600281146102fc57610318565b60019150506101f7565b60ff84111561030d5761030d610258565b50506001821b6101f7565b5060208310610133831016604e8410600b841016171561033b575081810a6101f7565b6103475f19848461027f565b805f190482111561035a5761035a610258565b029392505050565b5f61036d83836102c2565b9392505050565b60805160a0516121416103aa5f395f818161043501528181610a9b015261142701525f8181610207015261198601526121415ff3fe60806040526004361061017d575f3560e01c806390eeb02b116100d4578063c2b40ae411610083578063c2b40ae4146104a9578063c46165b5146104d4578063cd87a3b4146104e7578063d547741f146104fb578063d5f394881461051a578063e829558814610539578063f178e47c14610558578063fc7e9c6f14610583575f5ffd5b806390eeb02b146103a257806391d14854146103d3578063a217fddf146103f2578063a6232a9314610405578063a734f06e14610424578063aa77c44a14610457578063b42147cd14610476575f5ffd5b806336568abe1161013057806336568abe146102c45780635bb93995146102e35780635e125d0d1461030257806367843a5b146103215780637ecf686d1461034057806380fc74981461036e5780638474690014610383575f5ffd5b806217cd8b1461018157806301ffc9a7146101c75780630ef26743146101f65780631a702a2414610229578063248a9ca3146102605780632f2ff15d1461028e578063353efdcf146102af575b5f5ffd5b34801561018c575f5ffd5b506101b47f30644e72e131a029b85045b68181585d2833e84879b9709143e1f593f000000181565b6040519081526020015b60405180910390f35b3480156101d2575f5ffd5b506101e66101e1366004611b4a565b610598565b60405190151581526020016101be565b348015610201575f5ffd5b506101b47f000000000000000000000000000000000000000000000000000000000000000081565b348015610234575f5ffd5b50600554610248906001600160a01b031681565b6040516001600160a01b0390911681526020016101be565b34801561026b575f5ffd5b506101b461027a366004611b78565b5f9081526007602052604090206001015490565b348015610299575f5ffd5b506102ad6102a8366004611ba5565b6105ce565b005b3480156102ba575f5ffd5b506101b4600c5481565b3480156102cf575f5ffd5b506102ad6102de366004611ba5565b6105f8565b3480156102ee575f5ffd5b506101b46102fd366004611bcf565b610630565b34801561030d575f5ffd5b506102ad61031c366004611bef565b610728565b34801561032c575f5ffd5b506102ad61033b366004611c8c565b6107f3565b34801561034b575f5ffd5b506101e661035a366004611b78565b600b6020525f908152604090205460ff1681565b348015610379575f5ffd5b506101b460045481565b34801561038e575f5ffd5b506102ad61039d366004611cf6565b610c8e565b3480156103ad575f5ffd5b506002546103be9063ffffffff1681565b60405163ffffffff90911681526020016101be565b3480156103de575f5ffd5b506101e66103ed366004611ba5565b610fb3565b3480156103fd575f5ffd5b506101b45f81565b348015610410575f5ffd5b506101e661041f366004611b78565b610fdd565b34801561042f575f5ffd5b506102487f000000000000000000000000000000000000000000000000000000000000000081565b348015610462575f5ffd5b506102ad610471366004611d92565b611056565b348015610481575f5ffd5b506101b47f124005ad54174bbcb8c2dd053ea318daa80106cdcc518731504b771d6006123f81565b3480156104b4575f5ffd5b506101b46104c3366004611b78565b60016020525f908152604090205481565b6102ad6104e2366004611cf6565b61135f565b3480156104f2575f5ffd5b506103be606481565b348015610506575f5ffd5b506102ad610515366004611ba5565b6115b2565b348015610525575f5ffd5b50600654610248906001600160a01b031681565b348015610544575f5ffd5b506101b4610553366004611b78565b6115d6565b348015610563575f5ffd5b506101b4610572366004611b78565b5f6020819052908152604090205481565b34801561058e575f5ffd5b506101b460035481565b5f6001600160e01b03198216637965db0b60e01b14806105c857506301ffc9a760e01b6001600160e01b03198316145b92915050565b5f828152600760205260409020600101546105e88161181e565b6105f2838361182b565b50505050565b6001600160a01b03811633146106215760405163334bd91960e11b815260040160405180910390fd5b61062b82826118bc565b505050565b5f5f838360405160200161064e929190918252602082015260400190565b60408051601f19818403018152908290526005549092505f9182916001600160a01b03169061067e908590611e47565b5f60405180830381855afa9150503d805f81146106b6576040519150601f19603f3d011682016040523d82523d5f602084013e6106bb565b606091505b50915091508161070a5760405162461bcd60e51b8152602060048201526015602482015274141bdcd95a591bdb8c881a185cda0819985a5b1959605a1b60448201526064015b60405180910390fd5b8080602001905181019061071e9190611e5d565b9695505050505050565b6005546001600160a01b0316156107775760405162461bcd60e51b815260206004820152601360248201527243616e2774207365742069742074776963652160681b6044820152606401610701565b6006546001600160a01b031633146107d15760405162461bcd60e51b815260206004820152601e60248201527f6f6e6c79206465706c6f7965722063616e2073657420706f736569646f6e00006044820152606401610701565b600580546001600160a01b0319166001600160a01b0392909216919091179055565b61081682825f81811061080857610808611e74565b905060200201355f1c610fdd565b6108325760405162461bcd60e51b815260040161070190611e88565b600a54604051633a94343960e21b81525f916001600160a01b03169063ea50d0e490610868908890889088908890600401611ed7565b6020604051808303815f875af1158015610884573d5f5f3e3d5ffd5b505050506040513d601f19601f820116820180604052508101906108a89190611f21565b9050806108f05760405162461bcd60e51b815260206004820152601660248201527524b73b30b634b2103bb4ba34323930bb90383937b7b360511b6044820152606401610701565b60015b60038111610a03575f84848381811061090e5761090e611e74565b90506020020135146109f157600b5f85858481811061092f5761092f611e74565b602090810292909201358352508101919091526040015f205460ff16156109685760405162461bcd60e51b815260040161070190611f40565b6001600b5f86868581811061097f5761097f611e74565b9050602002013581526020019081526020015f205f6101000a81548160ff0219169083151502179055508383828181106109bb576109bb611e74565b905060200201355f1c7f49dad0e89c31a259d3e177fa5c4bb23dfb7bfbc2afce873328262a97dd39277860405160405180910390a25b806109fb81611f85565b9150506108f3565b505f5b6003811015610c86575f610a1b826004611f9d565b90505f610a29836007611f9d565b90505f610a3784600a611f9d565b90505f878785818110610a4c57610a4c611e74565b905060200201355f1c90505f888885818110610a6a57610a6a611e74565b905060200201355f1c90505f898985818110610a8857610a88611e74565b60200291909101359150508115610c74577f00000000000000000000000000000000000000000000000000000000000000006001600160a01b0316836001600160a01b031603610bb85781471015610b1d5760405162461bcd60e51b8152602060048201526018602482015277496e73756666696369656e74204554482062616c616e636560401b6044820152606401610701565b5f816001600160a01b0316836040515f6040518083038185875af1925050503d805f8114610b66576040519150601f19603f3d011682016040523d82523d5f602084013e610b6b565b606091505b5050905080610bb25760405162461bcd60e51b8152602060048201526013602482015272115512081d1c985b9cd9995c8819985a5b1959606a1b6044820152606401610701565b50610c74565b60405163a9059cbb60e01b81526001600160a01b038281166004830152602482018490525f919085169063a9059cbb906044016020604051808303815f875af1158015610c07573d5f5f3e3d5ffd5b505050506040513d601f19601f82011682018060405250810190610c2b9190611f21565b905080610c725760405162461bcd60e51b8152602060048201526015602482015274151bdad95b881d1c985b9cd9995c8819985a5b1959605a1b6044820152606401610701565b505b505060019094019350610a0692505050565b505050505050565b610ca384845f81811061080857610808611e74565b610cbf5760405162461bcd60e51b815260040161070190611e88565b600954604051633a94343960e21b81525f916001600160a01b03169063ea50d0e490610cf5908a908a908a908a90600401611ed7565b6020604051808303815f875af1158015610d11573d5f5f3e3d5ffd5b505050506040513d601f19601f82011682018060405250810190610d359190611f21565b905080610d7d5760405162461bcd60e51b815260206004820152601660248201527524b73b30b634b2103a3930b739b332b910383937b7b360511b6044820152606401610701565b60015b610d8c60036001611f9d565b811015610e91575f868683818110610da657610da6611e74565b9050602002013514610e8957600b5f878784818110610dc757610dc7611e74565b602090810292909201358352508101919091526040015f205460ff1615610e005760405162461bcd60e51b815260040161070190611f40565b6001600b5f888885818110610e1757610e17611e74565b9050602002013581526020019081526020015f205f6101000a81548160ff021916908315150217905550858582818110610e5357610e53611e74565b905060200201355f1c7f49dad0e89c31a259d3e177fa5c4bb23dfb7bfbc2afce873328262a97dd39277860405160405180910390a25b600101610d80565b505f610e9f60036001611f9d565b90505b6003610eaf816001611f9d565b610eb99190611f9d565b811015610f0c575f868683818110610ed357610ed3611e74565b9050602002013514610f0457610f02868683818110610ef457610ef4611e74565b905060200201355f1c611927565b505b600101610ea2565b505f5b600381108015610f1e57508281105b15610fa957838382818110610f3557610f35611e74565b9050602002810190610f479190611fb0565b159050610f97575f5160206120ec5f395f51905f52848483818110610f6e57610f6e611e74565b9050602002810190610f809190611fb0565b604051610f8e929190611ff2565b60405180910390a15b80610fa181611f85565b915050610f0f565b5050505050505050565b5f9182526007602090815260408084206001600160a01b0393909316845291905290205460ff1690565b5f815f03610fec57505f919050565b60025463ffffffff16805b63ffffffff81165f90815260016020526040902054840361101c575060019392505050565b8063ffffffff165f0361102d575060645b806110378161200d565b9150508163ffffffff168163ffffffff1603610ff757505f9392505050565b600c546110628161181e565b6040516323b872dd60e01b8152336004820152306024820152604481018990525f906001600160a01b038b16906323b872dd906064016020604051808303815f875af11580156110b4573d5f5f3e3d5ffd5b505050506040513d601f19601f820116820180604052508101906110d89190611f21565b9050806111275760405162461bcd60e51b815260206004820152601a60248201527f6661696c656420746f207472616e73666572206465706f7369740000000000006044820152606401610701565b600854604051633a94343960e21b81525f916001600160a01b03169063ea50d0e49061115d908c908c908c908c90600401611ed7565b6020604051808303815f875af1158015611179573d5f5f3e3d5ffd5b505050506040513d601f19601f8201168201806040525081019061119d9190611f21565b9050806111bc5760405162461bcd60e51b81526004016107019061202b565b868660018181106111cf576111cf611e74565b905060200201355f1c6001600160a01b03168b6001600160a01b0316146112315760405162461bcd60e51b815260206004820152601660248201527508aa486646040c2c8c8e4cae6e640dad2e6dac2e8c6d60531b6044820152606401610701565b8686600281811061124457611244611e74565b905060200201355f1c6001600160401b03168a1461129f5760405162461bcd60e51b81526020600482015260186024820152771059191c995cdcc8185b5bdd5b9d081a5b98dbdc9c9958dd60421b6044820152606401610701565b6112b487875f818110610ef457610ef4611e74565b505f5b6003811080156112c657508481105b15611351578585828181106112dd576112dd611e74565b90506020028101906112ef9190611fb0565b15905061133f575f5160206120ec5f395f51905f5286868381811061131657611316611e74565b90506020028101906113289190611fb0565b604051611336929190611ff2565b60405180910390a15b8061134981611f85565b9150506112b7565b505050505050505050505050565b600c5461136b8161181e565b600854604051633a94343960e21b81525f916001600160a01b03169063ea50d0e4906113a1908b908b908b908b90600401611ed7565b6020604051808303815f875af11580156113bd573d5f5f3e3d5ffd5b505050506040513d601f19601f820116820180604052508101906113e19190611f21565b9050806114005760405162461bcd60e51b81526004016107019061202b565b8585600181811061141357611413611e74565b905060200201355f1c6001600160a01b03167f00000000000000000000000000000000000000000000000000000000000000006001600160a01b03161461148f5760405162461bcd60e51b815260206004820152601060248201526f082c8c8e4cae6e640dad2e6dac2e8c6d60831b6044820152606401610701565b858560028181106114a2576114a2611e74565b905060200201355f1c6001600160401b031634146114f55760405162461bcd60e51b815260206004820152601060248201526f105b5bdd5b9d081a5b98dbdc9c9958dd60821b6044820152606401610701565b61150a86865f818110610ef457610ef4611e74565b505f5b60038110801561151c57508381105b156115a75784848281811061153357611533611e74565b90506020028101906115459190611fb0565b159050611595575f5160206120ec5f395f51905f5285858381811061156c5761156c611e74565b905060200281019061157e9190611fb0565b60405161158c929190611ff2565b60405180910390a15b8061159f81611f85565b91505061150d565b505050505050505050565b5f828152600760205260409020600101546115cc8161181e565b6105f283836118bc565b5f815f0361160557507f1e2856f9f722631c878a92dc1d84283d04b76df3e1831492bdf7098c1e65e478919050565b8160010361163457507f2c2eecb1b14035bfd9765e84195684b401a84fdb58c3c03f1bcea86dcf0c8105919050565b8160020361166357507f237e412a71db31e5769f63d92346a09dd0f30b9c335e9d9aa96b6625eb537445919050565b8160030361169257507f0b3ff120d61a7de2da3d80ff99d393796805c74be5c39e8a4c7436d1c65dad4c919050565b816004036116c157507f0fc58e21665302678bef68714d9e5889583071f7bd3cf018b64fafc51b0a9cf3919050565b816005036116f057507f235df7c585524ed8a26aea20a0fb168038f10df71d84720c9a8c1b3e78e3b6cd919050565b8160060361171f57507f1c6cabee394ea24dc09eab1788f7f62b367e95789f883e33690d94215d819264919050565b8160070361174e57507f09bec327ab2c8dda5d2d435cd267cb21e71f21371a01739885817eb1625d8976919050565b8160080361177d57507f2d35519ad7061578be50cbbfe040327843f6b4cdf1458e01b5f9737dbaf82b18919050565b816009036117ac57507f0f86c9e9c9e689394a4944bb87291a3f55cc930b21432fccf41b8267f1a98d6f919050565b81600a036117db57507f181c9ba70900093b180c96f55cc2b1d73d60b8ab613344cbba83b33cbcc94e2b919050565b60405162461bcd60e51b8152602060048201526013602482015272496e646578206f7574206f6620626f756e647360681b6044820152606401610701565b919050565b6118288133611b0d565b50565b5f6118368383610fb3565b6118b5575f8381526007602090815260408083206001600160a01b03861684529091529020805460ff1916600117905561186d3390565b6001600160a01b0316826001600160a01b0316847f2f8788117e7eff1d82e926ec794901d17c78024a50270940304540a733656f0d60405160405180910390a45060016105c8565b505f6105c8565b5f6118c78383610fb3565b156118b5575f8381526007602090815260408083206001600160a01b0386168085529252808320805460ff1916905551339286917ff6391f5c32d9c69d2a47ea670b442974b53935d1edc7fd64eb21e047a839171b9190a45060016105c8565b6003546004545f9190810361196a5760405162461bcd60e51b8152602060048201526009602482015268151c995948119d5b1b60ba1b6044820152606401610701565b5f818152602081905260408120849055819084905b6119aa60017f000000000000000000000000000000000000000000000000000000000000000061205b565b811015611a77575f6119bd600285612082565b1590505f816119d6576119d160018661205b565b6119e1565b6119e1856001611f9d565b602084811b82175f8181529182905260408220549293509190819003611a0d57611a0a856115d6565b90505b8315611a2457611a1d8682610630565b9550611a31565b611a2e8187610630565b95505b611a3c600288612095565b9650855f80611a57611a4f896001611f9d565b60201b8b1790565b815260208101919091526040015f205550506001909201915061197f9050565b506002545f90606490611a919063ffffffff1660016120a8565b611a9b91906120c4565b6002805463ffffffff191663ffffffff83169081179091555f908152600160208190526040909120849055909150611ad4908590611f9d565b600355604051869085907f604f5a492f8c1622a2e239876074a13b33ec11384fe2b310339ece35e8eecac7905f90a35091949350505050565b611b178282610fb3565b611b465760405163e2517d3f60e01b81526001600160a01b038216600482015260248101839052604401610701565b5050565b5f60208284031215611b5a575f5ffd5b81356001600160e01b031981168114611b71575f5ffd5b9392505050565b5f60208284031215611b88575f5ffd5b5035919050565b80356001600160a01b0381168114611819575f5ffd5b5f5f60408385031215611bb6575f5ffd5b82359150611bc660208401611b8f565b90509250929050565b5f5f60408385031215611be0575f5ffd5b50508035926020909101359150565b5f60208284031215611bff575f5ffd5b611b7182611b8f565b5f5f83601f840112611c18575f5ffd5b5081356001600160401b03811115611c2e575f5ffd5b602083019150836020828501011115611c45575f5ffd5b9250929050565b5f5f83601f840112611c5c575f5ffd5b5081356001600160401b03811115611c72575f5ffd5b6020830191508360208260051b8501011115611c45575f5ffd5b5f5f5f5f60408587031215611c9f575f5ffd5b84356001600160401b03811115611cb4575f5ffd5b611cc087828801611c08565b90955093505060208501356001600160401b03811115611cde575f5ffd5b611cea87828801611c4c565b95989497509550505050565b5f5f5f5f5f5f60608789031215611d0b575f5ffd5b86356001600160401b03811115611d20575f5ffd5b611d2c89828a01611c08565b90975095505060208701356001600160401b03811115611d4a575f5ffd5b611d5689828a01611c4c565b90955093505060408701356001600160401b03811115611d74575f5ffd5b611d8089828a01611c4c565b979a9699509497509295939492505050565b5f5f5f5f5f5f5f5f60a0898b031215611da9575f5ffd5b611db289611b8f565b97506020890135965060408901356001600160401b03811115611dd3575f5ffd5b611ddf8b828c01611c08565b90975095505060608901356001600160401b03811115611dfd575f5ffd5b611e098b828c01611c4c565b90955093505060808901356001600160401b03811115611e27575f5ffd5b611e338b828c01611c4c565b999c989b5096995094979396929594505050565b5f82518060208501845e5f920191825250919050565b5f60208284031215611e6d575f5ffd5b5051919050565b634e487b7160e01b5f52603260045260245ffd5b6020808252600d908201526c496e76616c696420526f6f742160981b604082015260600190565b81835281816020850137505f828201602090810191909152601f909101601f19169091010190565b604081525f611eea604083018688611eaf565b82810360208401528381526001600160fb1b03841115611f08575f5ffd5b8360051b80866020840137016020019695505050505050565b5f60208284031215611f31575f5ffd5b81518015158114611b71575f5ffd5b602080825260179082015276139d5b1b1a599a595c88185b1c9958591e481cdc195b9d604a1b604082015260600190565b634e487b7160e01b5f52601160045260245ffd5b5f60018201611f9657611f96611f71565b5060010190565b808201808211156105c8576105c8611f71565b5f5f8335601e19843603018112611fc5575f5ffd5b8301803591506001600160401b03821115611fde575f5ffd5b602001915036819003821315611c45575f5ffd5b602081525f612005602083018486611eaf565b949350505050565b5f63ffffffff82168061202257612022611f71565b5f190192915050565b602080825260169082015275496e76616c6964206465706f7369742070726f6f662160501b604082015260600190565b818103818111156105c8576105c8611f71565b634e487b7160e01b5f52601260045260245ffd5b5f826120905761209061206e565b500690565b5f826120a3576120a361206e565b500490565b63ffffffff81811683821601908111156105c8576105c8611f71565b5f63ffffffff8316806120d9576120d961206e565b8063ffffffff8416069150509291505056fe1350ba861189904691f5a79791c8b0eb3c5ea51a8954ae413a167e05c66ca1e0a2646970667358221220f08c55a174c5c61d0857737280dcc7eb34256905d0fa38d92b9420e59025f73764736f6c634300081c0033",
  "linkReferences": {},
  "deployedLinkReferences": {},
  "immutableReferences": {
    "576": [
      {
        "length": 32,
        "start": 1077
      },
      {
        "length": 32,
        "start": 2715
      },
      {
        "length": 32,
        "start": 5159
      }
    ],
    "1226": [
      {
        "length": 32,
        "start": 519
      },
      {
        "length": 32,
        "start": 6534
      }
    ]
  },
  "inputSourceName": "contracts/CommBankDotEth.sol",
  "buildInfoId": "solc-0_8_28-7d1badb67ee783fff8e1c9a5d2c3864f412907cc"
}