{
  "_format": "hh3-artifact-1",
  "contractName": "TransferVerifier",
  "sourceName": "contracts/verifiers/TransferVerifier.sol",
  "abi": [
    {
      "inputs": [],
      "name": "ConsistencyCheckFailed",
      "type": "error"
    },
    {
      "inputs": [],
      "name": "GeminiChallengeInSubgroup",
      "type": "error"
    },
    {
      "inputs": [],
      "name": "ProofLengthWrong",
      "type": "error"
    },
    {
      "inputs": [
        {
          "internalType": "uint256",
          "name": "logN",
          "type": "uint256"
        },
        {
          "internalType": "uint256",
          "name": "actualLength",
          "type": "uint256"
        },
        {
          "internalType": "uint256",
          "name": "expectedLength",
          "type": "uint256"
        }
      ],
      "name": "ProofLengthWrongWithLogN",
      "type": "error"
    },
    {
      "inputs": [],
      "name": "PublicInputsLengthWrong",
      "type": "error"
    },
    {
      "inputs": [],
      "name": "ShpleminiFailed",
      "type": "error"
    },
    {
      "inputs": [],
      "name": "SumcheckFailed",
      "type": "error"
    },
    {
      "inputs": [
        {
          "internalType": "bytes",
          "name": "proof",
          "type": "bytes"
        },
        {
          "internalType": "bytes32[]",
          "name": "publicInputs",
          "type": "bytes32[]"
        }
      ],
      "name": "verify",
      "outputs": [
        {
          "internalType": "bool",
          "name": "verified",
          "type": "bool"
        }
      ],
      "stateMutability": "view",
      "type": "function"
    }
  ],
  "bytecode": "0x610100604052348015610010575f5ffd5b50614000608052600e60a0527f1c4077047ff8e779057f2c7bf723dcee6ef0858f21097b5d8a019c3bd991fdce60c052601760e05260805160a05160c05160e051615ce36100dc5f395f81816101b0015261090201525f61018e01525f8181605b01528181609401528181610101015281816101d201528181610a3001528181610b3d01528181610bdc01528181610c0a01528181610c9001528181611524015281816115d3015281816116060152818161181001528181612b920152612ebb01525f5050615ce35ff3fe608060405234801561000f575f5ffd5b5060043610610029575f3560e01c8063ea50d0e41461002d575b5f5ffd5b61004061003b3660046154e4565b610054565b604051901515815260200160405180910390f35b5f5f61007f7f00000000000000000000000000000000000000000000000000000000000000006102ee565b905061008c8160206155bc565b85146100ee577f0000000000000000000000000000000000000000000000000000000000000000856100bf8360206155bc565b6040516359895a5360e01b81526004810193909352602483019190915260448201526064015b60405180910390fd5b5f6100f76103e4565b90505f61012588887f00000000000000000000000000000000000000000000000000000000000000006103f9565b90506010826040015161013891906155d3565b85146101575760405163fa06659360e01b815260040160405180910390fd5b60405163995bf45760e01b81525f9073__$8ca614531f81a5db991ca8a5216cacce22$__9063995bf457906101fa9085908b908b907f0000000000000000000000000000000000000000000000000000000000000000907f0000000000000000000000000000000000000000000000000000000000000000907f000000000000000000000000000000000000000000000000000000000000000090600401615756565b610be060405180830381865af4158015610216573d5f5f3e3d5ffd5b505050506040513d601f19601f8201168201806040525081019061023a9190615a8f565b905061028a8787808060200260200160405190810160405280939291908181526020018383602002808284375f9201919091525050855185516060810151608090910151919350915060016108ac565b815160a0015261029a8282610a13565b6102b7576040516313f8744360e31b815260040160405180910390fd5b6102c2828483610bc8565b6102df576040516352ec174560e11b815260040160405180910390fd5b50600198975050505050505050565b5f806102fc600260086155bc565b905061030a600260046155bc565b6103149082615b39565b905060016103236009856155bc565b61032d91906155bc565b6103379082615b39565b9050610345600160296155bc565b61034f9082615b39565b905061035d600160036155bc565b6103679082615b39565b90506103746001846155bc565b61037e9082615b39565b905061038c600160046155bc565b6103969082615b39565b905060026103a56001856155d3565b6103af91906155bc565b6103b99082615b39565b90506103c66002806155bc565b6103d09082615b39565b90506103dd601082615b39565b9392505050565b6103ec615030565b6103f4611c0a565b905090565b6104016151ba565b5f805b60108110156104635761043086838761041e602083615b39565b9261042b93929190615b4c565b612541565b8351826010811061044357610443615b73565b6020020181815250506020826104599190615b39565b9150600101610404565b50610487858286610475604083615b39565b9261048293929190615b4c565b612554565b6020830152610497604082615b39565b90506104aa858286610475604083615b39565b6040808401919091526104bd9082615b39565b90506104d0858286610475604083615b39565b60608301526104e0604082615b39565b90506104f3858286610475604083615b39565b60a0830152610503604082615b39565b9050610516858286610475604083615b39565b60c0830152610526604082615b39565b9050610539858286610475604083615b39565b6080830152610549604082615b39565b905061055c858286610475604083615b39565b60e083015261056c604082615b39565b905061057f858286610475604083615b39565b610100830152610590604082615b39565b90506105a3858286610475604083615b39565b610120830151526105b5604082615b39565b90506105c885828661041e602083615b39565b6101408301526105d9602082615b39565b90505f5b83811015610657575f5b600981101561064e5761060187848861041e602083615b39565b84610160015183601c811061061857610618615b73565b6020020151826009811061062e5761062e615b73565b6020020181815250506020836106449190615b39565b92506001016105e7565b506001016105dd565b505f5b60298110156106ab5761067486838761041e602083615b39565b836101800151826029811061068b5761068b615b73565b6020020181815250506020826106a19190615b39565b915060010161065a565b506106bd85828661041e602083615b39565b6101a08301526106ce602082615b39565b90506106e1858286610475604083615b39565b610120830151602001526106f6604082615b39565b9050610709858286610475604083615b39565b61012083015160026020020152610721604082615b39565b9050610734858286610475604083615b39565b6101c0830152610745604082615b39565b905061075885828661041e602083615b39565b6101e0830152610769602082615b39565b90505f5b6107786001856155d3565b8110156107c157610790868387610475604083615b39565b83610200015182601b81106107a7576107a7615b73565b60200201526107b7604083615b39565b915060010161076d565b505f5b83811015610814576107dd86838761041e602083615b39565b83610220015182601c81106107f4576107f4615b73565b60200201818152505060208261080a9190615b39565b91506001016107c4565b505f5b60048110156108685761083186838761041e602083615b39565b836102400151826004811061084857610848615b73565b60200201818152505060208261085e9190615b39565b9150600101610817565b5061087a858286610475604083615b39565b61026083015261088b604082615b39565b905061089e858286610475604083615b39565b610280830152509392505050565b5f600180826108d9866108d4896108cf6108ca8a6310000000615b39565b6125d6565b6125ee565b612609565b90505f6108f7876108f28a6108cf6108ca8b6001615b39565b612622565b90505f5b61092660107f00000000000000000000000000000000000000000000000000000000000000006155d3565b811015610993575f6109508c838151811061094357610943615b73565b602002602001015161264a565b9050610960866108cf8684612609565b9550610970856108cf8584612609565b945061097c848b612609565b9350610988838b612622565b9250506001016108fb565b505f5b60108110156109fa575f8a82601081106109b2576109b2615b73565b602002015190506109c7866108cf8684612609565b95506109d7856108cf8584612609565b94506109e3848b612609565b93506109ef838b612622565b925050600101610996565b50610a05848461265f565b9a9950505050505050505050565b5f5f610a2883606001518561014001516125ee565b905060015f5b7f0000000000000000000000000000000000000000000000000000000000000000811015610b1a575f86610160015182601c8110610a6e57610a6e615b73565b602002015180519091505f90610a8c908360015b6020020151612609565b9050848114610aae576040516313f8744360e31b815260040160405180910390fd5b5f876080015184601c8110610ac557610ac5615b73565b60200201519050610ad6838261266d565b9550610b0a856108cf60016108d4856108cf8e604001518b601c8110610afe57610afe615b73565b60200201516001612622565b9450505050806001019050610a2e565b505f610b34866101800151865f015187602001518561281b565b9050600160025b7f0000000000000000000000000000000000000000000000000000000000000000811015610b9157610b8782886080015183601c8110610b7d57610b7d615b73565b60200201516125ee565b9150600101610b3b565b50610bb7610ba4836108cf600185612622565b6108d4896101a0015189606001516125ee565b91508382145b979650505050505050565b5f610bd16152a3565b5f610c008460c001517f0000000000000000000000000000000000000000000000000000000000000000612894565b90505f6003610c307f00000000000000000000000000000000000000000000000000000000000000006024615b39565b610c3a9190615b39565b610c45906003615b39565b6001600160401b03811115610c5c57610c5c615940565b604051908082528060200260200182016040528015610c85578160200160208202803683370190505b5090505f6003610cb67f00000000000000000000000000000000000000000000000000000000000000006024615b39565b610cc09190615b39565b610ccb906003615b39565b6001600160401b03811115610ce257610ce2615940565b604051908082528060200260200182016040528015610d1b57816020015b610d08615313565b815260200190600190039081610d005790505b509050610d4e610d49876101000151855f81518110610d3c57610d3c615b73565b6020026020010151612622565b61295d565b84610120018181525050610d83610d49876101000151855f81518110610d7657610d76615b73565b6020026020010151612609565b610140850181905261012085015160e0880151610da4926108d491906125ee565b845260c0860151610dd490610db89061295d565b6108cf8661012001516108f28a60e001518961014001516125ee565b6020850152815160019083905f90610dee57610dee615b73565b602002602001018181525050876102600151815f81518110610e1257610e12615b73565b60209081029190910101526101e088015160c085015260a080870151908501528351610e3d906129cd565b60408501526020840151610e50906129cd565b60608501526040840151825183906001908110610e6f57610e6f615b73565b60209081029190910101525f5b6024811015610f1657610e9785604001518660a001516125ee565b83610ea3836002615b39565b81518110610eb357610eb3615b73565b602002602001018181525050610ef08560c001516108d48b61018001518460298110610ee157610ee1615b73565b60200201518860a001516125ee565b60c086015260a08086015190880151610f0991906125ee565b60a0860152600101610e7c565b505f5b6005811015610fe4575f610f2e601e83615b39565b90505f610f3c602484615b39565b9050610f6d858381518110610f5357610f53615b73565b60200260200101516108d489606001518a60a001516125ee565b858381518110610f7f57610f7f615b73565b602002602001018181525050610fbc8760c001516108d48d61018001518460298110610fad57610fad615b73565b60200201518a60a001516125ee565b60c088015260a080880151908a0151610fd591906125ee565b60a08801525050600101610f19565b50876101c0015181600181518110610ffe57610ffe615b73565b602002602001018190525086606001518160028151811061102157611021615b73565b602002602001018190525086608001518160038151811061104457611044615b73565b60200260200101819052508660a001518160048151811061106757611067615b73565b60200260200101819052508660c001518160058151811061108a5761108a615b73565b60200260200101819052508660e00151816006815181106110ad576110ad615b73565b6020026020010181905250866101000151816007815181106110d1576110d1615b73565b6020026020010181905250866101200151816008815181106110f5576110f5615b73565b60200260200101819052508661014001518160098151811061111957611119615b73565b602002602001018190525086610160015181600a8151811061113d5761113d615b73565b6020026020010181905250866101c0015181600b8151811061116157611161615b73565b602002602001018190525086610180015181600c8151811061118557611185615b73565b6020026020010181905250866101a0015181600d815181106111a9576111a9615b73565b6020026020010181905250866101e0015181600e815181106111cd576111cd615b73565b602002602001018190525086610200015181600f815181106111f1576111f1615b73565b60200260200101819052508661022001518160108151811061121557611215615b73565b60200260200101819052508661024001518160118151811061123957611239615b73565b60200260200101819052508661026001518160128151811061125d5761125d615b73565b60200260200101819052508661028001518160138151811061128157611281615b73565b6020026020010181905250866102a00151816014815181106112a5576112a5615b73565b6020026020010181905250866102c00151816015815181106112c9576112c9615b73565b6020026020010181905250866102e00151816016815181106112ed576112ed615b73565b60200260200101819052508661030001518160178151811061131157611311615b73565b60200260200101819052508661032001518160188151811061133557611335615b73565b60200260200101819052508661034001518160198151811061135957611359615b73565b602002602001018190525086610360015181601a8151811061137d5761137d615b73565b602002602001018190525086610380015181601b815181106113a1576113a1615b73565b6020026020010181905250866103a0015181601c815181106113c5576113c5615b73565b6020026020010181905250866103c0015181601d815181106113e9576113e9615b73565b6020026020010181905250876020015181601e8151811061140c5761140c615b73565b6020026020010181905250876040015181601f8151811061142f5761142f615b73565b602002602001018190525087606001518160208151811061145257611452615b73565b602002602001018190525087608001518160218151811061147557611475615b73565b60200260200101819052508761010001518160228151811061149957611499615b73565b60200260200101819052508760e00151816023815181106114bc576114bc615b73565b60200260200101819052508760a00151816024815181106114df576114df615b73565b60200260200101819052508760c001518160258151811061150257611502615b73565b60200260200101819052505f61154887608001518660c001518b6102200151877f00000000000000000000000000000000000000000000000000000000000000006129df565b9050611572815f8151811061155f5761155f615b73565b60200260200101518661012001516125ee565b608086018190526102208a01515160e08901516115a392916108d49161159891906125ee565b8861014001516125ee565b608086015260e08701516115b690612b3d565b60a08601525f6115c860246002615b39565b90505f5b6115f760017f00000000000000000000000000000000000000000000000000000000000000006155d3565b811015611808575f61162a60017f00000000000000000000000000000000000000000000000000000000000000006155d3565b8210159050806117995761165e610d498b61010001518985600161164e9190615b39565b81518110610d3c57610d3c615b73565b6101208901526101008a015161168e90610d49908961167e866001615b39565b81518110610d7657610d76615b73565b61014089015260a08801516101208901516116a991906125ee565b61016089015260a088015160e08b01516116d1916116c6916125ee565b8961014001516125ee565b61018089018190526116f4906116e6906129cd565b6108d48a61016001516129cd565b866116ff8486615b39565b8151811061170f5761170f615b73565b6020026020010181815250505f6117488961018001518e61022001518560016117389190615b39565b601c8110610b7d57610b7d615b73565b9050611782816108d48b6101600151888760016117659190615b39565b8151811061177557611775615b73565b60200260200101516125ee565b9050611792896080015182612609565b60808a0152505b6117b86117ae8960a001518c60e001516125ee565b8b60e001516125ee565b60a08901526102008c015182601b81106117d4576117d4615b73565b6020020151856117e48486615b39565b815181106117f4576117f4615b73565b6020908102919091010152506001016115cc565b5061183460017f00000000000000000000000000000000000000000000000000000000000000006155d3565b61183e9082615b39565b905061185e6118568961010001518a60c00151612622565b60019061265f565b60e08701515261010088015160c08901516118a291611856916108f2907f07b0c561a6148404f086204a9f36ffb0617942546750f230c893619174a57a76906125ee565b60e0878101805160200192909252815180516040909101529051805160609091015260a0870151908901516118e4916118da916125ee565b8960e001516125ee565b60a08701525f5b6004811015611992575f61191d8860e00151836004811061190e5761190e615b73565b60200201518960a001516125ee565b9050611928816129cd565b886101000151836004811061193f5761193f615b73565b602002015260a088015160e08b015161195891906125ee565b8860a001818152505061198488608001516108d4838f61024001518660048110610b7d57610b7d615b73565b6080890152506001016118eb565b506101008601515184518590839081106119ae576119ae615b73565b602090810291909101810191909152610100870151908101516119d2916002610a82565b846119de836001615b39565b815181106119ee576119ee615b73565b60209081029190910101526101008601516060015184611a0f836002615b39565b81518110611a1f57611a1f615b73565b60209081029190910101525f5b6003811015611a81578a61012001518160038110611a4c57611a4c615b73565b60200201518483611a5c81615b87565b945081518110611a6e57611a6e615b73565b6020908102919091010152600101611a2c565b506040518060400160405280600181526020016002815250838281518110611aab57611aab615b73565b60200260200101819052508560800151848280611ac790615b87565b935081518110611ad957611ad9615b73565b602002602001018181525050611b038a61024001518960c001518a608001518d6101a00151612b48565b611b205760405163a2a2ac8360e01b815260040160405180910390fd5b5f8a6102800151905080848381518110611b3c57611b3c615b73565b6020026020010181905250886101000151858381518110611b5f57611b5f615b73565b602002602001018181525050611b7361532b565b611b7d8587612eab565b8152611b8882612fc7565b602082018190528c5182515f92611ba092919061300d565b90505f5f611bb08f5f0151613093565b91509150611bbd82613154565b611bc681613154565b8351611bd39083856131f3565b84526020840151611be59082856131f3565b602085018190528451611bf791613222565b9f9e505050505050505050505050505050565b611c12615030565b50604080516103e0810182526140008152600e602080830191909152601782840152825180840184527f2a60a2ab5373757ac817380809610c107eec759a21662b952447a258181270fc81527f050521879e02eccc066e5858ddac7e843b4cce7df148f633444f614b9f500883818301526060830152825180840184527f05a4b5277bf006e4dd59032aef2bf29c5fe8feedbf6f3f2b7e794e46a594cd3d81527f2bf775553036a753722749a32ff39d4c8e5471b0eebf44cf0bc708824388a2a1818301526080830152825180840184527f145240d0368a33934b477affc8e697e1f13d15046446cc79219f4fbf643acfca81527f06b3bacd6e8c5fbc79238ca69fc0843b489849378842ebd551581a1a259e617a8183015260a0830152825180840184527e40a1e5b619194dbcf54697577ff0e0dee074d3d121101b99d7754bd5fa441b81527f165b55f16f7479be1c96431460633633cc719288e45a942a79c59fbb72dfca8d8183015260c0830152825180840184527f271d2bca125a5d9cbf34b75be5112706d2ebe76f7c913261701166cd99246f6981527f2ab0ebd5ffd78338afcd7a9214c8a4fc4236d760a3bdbd232f174af60d146b8c8183015260e0830152825180840184527f01571d27f44985f3d48bf4d53e578cfafd37590dcbcc62518625536ea15201be81527f1267a6f39e7db18a285e2429572fb228ef8284420bc4c7cb406eeb9261b3575f81830152610100830152825180840184527f1958b13f38f58756e23989a418de3c113d47a2256ba6f60a9e2ec0523c52a99181527f286c1d4c53af6654de284fbb620f90a9e00aa9470a9e3c58a56cc81e212df92381830152610120830152825180840184527f0b91dabfd35c5bd04ac1fb42131f8c3b33ff2c408f5b71ac243e19450695e79181527f1d6aec878349682265007d2f2182f3dcf6749430475f6a5af93383bbd5d3356a81830152610140830152825180840184527f2394a705d3639755270d10bfcdae31939ae587ddd45f22005c3b44f2392508d481527f035d98188439ee1621fbfbbb045e2f97f68273bad97f0940b9f0882dfad4fdb681830152610160830152825180840184527f13628822a94c01b9a8f7e8760f896a3594e7f2e39c2e33441ef7b5e9a6d189c381527f175bf4b8d19c57eb28ed35acb7520dd8adc99e5d47842fe066e26e80ec5884ce81830152610180830152825180840184527f1c26f826cfcda8b6f83feb6c3da00f9ae69733414e9cc7b4dd93dc1ae2f13f7181527f03da7aeba0324311534246e8b1b91370c5fb74a626494a5997b611fdf89a5e42818301526101a0830152825180840184527f229643b6b572f09479b16f379d26c93973fd172f88d2453bc0321f4239b76c6681527e37adfd4603991f5c8987c3787ee19f52b45f1632ecb04edf77ea34bab4a049818301526101c0830152825180840184527f139bbef00825b0f937a68d0da8e5235e320ccbfd02ad89b76b88ca805be5b4d681527f20d07c1a860aee3fe78dc8896ab77f7846364e81f3d182e2499cbaf684558b04818301526101e0830152825180840184527f175e34d1b2168e138d8a3a521ba7f63aaadee18a3ce82de85b15338773b2e06a81527f19cf85fc6f9830e17d1b1d5995ac39043fca45fa76ae59e397dd64868a93a6a881830152610200830152825180840184527f267269665b209a4cb03e205982b8b2e39f4abf77bad1a28e3a612c5216db7af681527f080918d08a0547a03a0431e4be01755d1a6307a9b772599b484d89aa26c449bc81830152610220830152825180840184527f13227e6690f2cf1b362b6686af9daceb8815f71fe316e396d5f81e8d5f30af1e81527f3032ba59ff8c42e446e1e34421fa6c832612e5a38e554272cfd619272652f04881830152610240830152825180840184527f222dbee14b833abc8ccabe2ca7420cad14941b04220e7130dd71c77dc0933ccf81527f0b3c88aface8f9d5232086d99f2d629d0a145bcfe25ba9f52dc0a95e9e4df31381830152610260830152825180840184527f0482cda528bbd9fa5d8e7868cbf4ed5529bfaaeb34a5de0daa68861fa7bf527b81527f1664b06cc3235ae6d7ccfd8d400d7265370c977227d73f52cdca8a6faaea278581830152610280830152825180840184527f1096b6f2a6ceff7ecb78350571f791ff8bbfff91c54661b89e0e3c9ccb66536f81527f0b706a30167c8fe79a2141a7ac61d81990cfb250807207707baf9911e43f1f78818301526102a0830152825180840184527f2fb35e1b30e9a01dc23eeaea433963053fd07ab92553790ebf4ee03af6d1109d81527f04cb1ab61b927016addf243346550908b552d8da77ed36ca6cdd56a50e4cf0c6818301526102c0830152825180840184527f243f2c7b0017064824ad01c96e88bed8fcaebc741feb02cd75e02e19e4f0cf6581527f26f52d6278059bd8e0287fbd6317032c97d101a7e9017b7cc6ca16575be7b07b818301526102e0830152825180840184527f10ca406af5bd2e93f9b3de69f255389b21de0cc91bd102aaff68275d3db640d981527f18cc11662f64b679e93323ce55b67146a535f2873ba5242f8b67ec084f1dc40d81830152610300830152825180840184527f099e3bd5a0a00ab7fe18040105b9b395b5d8b7b4a63b05df652b0d10ef146d2681527e15b8d2515d76e2ccec99dcd194592129af3a637f5a622a32440f860d1e2a7f81830152610320830152825180840184527f1b917517920bad3d8bc01c9595092a222b888108dc25d1aa450e0b4bc212c37e81527f305e8992b148eedb22e6e992077a84482141c7ebe42000a1d58ccb74381f6d1981830152610340830152825180840184527f13567e3b915c81013ada15236ba5cfa60111b440400b2bca37e2b1085e924a7781527f0148d22589b91f0d8f4674af5744dedafd63caea904b434e748f9713de8cc3d781830152610360830152825180840184527f043d063b130adfb37342af45d0155a28edd1a7e46c840d9c943fdf45521c64ce81527f261522c4089330646aff96736194949330952ae74c573d1686d9cb4a007338548183015261038083015282518084018452600181526002818301526103a083015282518084019093527f14eaab37b25018e3f6a66b06c80dd920910f68a9033c823b89df45e036a355f983527f26cc098c5bc1c20790a121a62bae1655894df4a7962e794750b8e20af6fae289908301526103c081019190915290565b5f6103dd61254f8385615b9f565b61264a565b61255c615313565b60408051808201909152805f516020615c6e5f395f51905f5261258260205f8789615b4c565b61258b91615b9f565b6125959190615bbc565b81526020908101905f516020615c6e5f395f51905f52906125ba906040908789615b4c565b6125c391615b9f565b6125cd9190615bbc565b90529392505050565b5f5f516020615c8e5f395f51905f52825b0692915050565b5f5f516020615c8e5f395f51905f5282840990505b92915050565b5f5f516020615c8e5f395f51905f528284089392505050565b5f5f516020615c8e5f395f51905f52825f516020615c8e5f395f51905f520384089392505050565b5f5f516020615c8e5f395f51905f52826125e7565b5f6103dd836108cf8461295d565b5f5f604051806101200160405280619d8081526020017f30644e72e131a029b85045b68181585d2833e84879b9709143e1f593efffec5181526020016105a081526020017f30644e72e131a029b85045b68181585d2833e84879b9709143e1f593effffd31815260200161024081526020017f30644e72e131a029b85045b68181585d2833e84879b9709143e1f593effffd3181526020016105a081526020017f30644e72e131a029b85045b68181585d2833e84879b9709143e1f593efffec518152602001619d8081525090505f600190505f5f90505b60098110156127665761275c826108cf8784612622565b9150600101612745565b5061276f61533e565b5f5b60098110156127c0576127a1610d4985836009811061279257612792615b73565b60200201516108cf8985612622565b8282600981106127b3576127b3615b73565b6020020152600101612771565b505f5b6009811015612806576127fc856108d48984600981106127e5576127e5615b73565b6020020151858560098110610b7d57610b7d615b73565b94506001016127c3565b5061281184836125ee565b9695505050505050565b5f61282461535d565b61282f868285613416565b61283b868683866135c2565b612847868683866137ae565b6128528682856139d3565b61285d868285613bc7565b61286986868386613f10565b6128748682856143bc565b61287f8682856147ce565b61288a868285614b8f565b6128118185614e8f565b60605f826001600160401b038111156128af576128af615940565b6040519080825280602002602001820160405280156128d8578160200160208202803683370190505b50905083815f815181106128ee576128ee615b73565b602090810291909101015260015b8381101561295557612930826129136001846155d3565b8151811061292357612923615b73565b6020026020010151612b3d565b82828151811061294257612942615b73565b60209081029190910101526001016128fc565b509392505050565b5f5f8290505f604051602081526020808201526020604082015282606082015260025f516020615c8e5f395f51905f520360808201525f516020615c8e5f395f51905f5260a082015260205f60c08360055afa806129b9575f5ffd5b505f51608091909101604052949350505050565b5f516020615c8e5f395f51905f520390565b60605f826001600160401b038111156129fa576129fa615940565b604051908082528060200260200182016040528015612a23578160200160208202803683370190505b509050825b8015612b32575f85612a3b6001846155d3565b81518110612a4b57612a4b615b73565b602002602001015190505f89600184612a6491906155d3565b601c8110612a7457612a74615b73565b602002015190505f612acf612a93612a8c858d6125ee565b60026125ee565b6108f28b612aa26001896155d3565b601c8110612ab257612ab2615b73565b60200201516108cf612ac9886108cf60018a612622565b87612622565b9050612af0816108cf610d49612aea876108cf600189612622565b86612609565b99508990508085612b026001876155d3565b81518110612b1257612b12615b73565b60200260200101818152505050505080612b2b90615bdb565b9050612a28565b509695505050505050565b5f61260382836125ee565b5f600181612b61612b5b87610100614ee8565b83612622565b905080612b815760405163835eb8f760e01b815260040160405180910390fd5b612b8961537c565b80518390525f5b7f0000000000000000000000000000000000000000000000000000000000000000811015612c72575f612bc48260096155bc565b612bcf906001615b39565b905084835f0151826101008110612be857612be8615b73565b60200201525f612bf9826001615b39565b90505b612c07600983615b39565b811015612c68578351612c4790612c1f6001846155d3565b6101008110612c3057612c30615b73565b60200201518a85601c8110610b7d57610b7d615b73565b8451826101008110612c5b57612c5b615b73565b6020020152600101612bfc565b5050600101612b90565b50608081018390525f602082018190525b610100811015612d8357612ca4612c9e83608001518a6125ee565b85612622565b8260a00151826101008110612cbb57612cbb615b73565b602002015260a0820151612ce590826101008110612cdb57612cdb615b73565b602002015161295d565b8260a00151826101008110612cfc57612cfc615b73565b602002018181525050612d4282602001516108d4845f0151846101008110612d2657612d26615b73565b60200201518560a00151856101008110610b7d57610b7d615b73565b60208301526080820151612d76907f204bd3277422fad364751ad938e2b5e6a54cf8c68712848a692c553d0329f5d66125ee565b6080830152600101612c83565b505f612d94836108cf61010061295d565b9050612da48260200151826125ee565b602083015260a0820151612dbf905f5b6020020151826125ee565b604083015260a0820151612deb90612dda60016101006155d3565b6101008110612db457612db4615b73565b60608301526040820151612e01908a6002610b7d565b60c08301819052612e61906108d4612e398b7f204bd3277422fad364751ad938e2b5e6a54cf8c68712848a692c553d0329f5d6612622565b60208d015160408e01516108cf91612e5091612622565b8e5160208901516108f291906125ee565b60c083018190526060830151612e9691612e8a916108d4906108cf8e600260200201518c612622565b6108f2858c6003610b7d565b60c08301819052159998505050505050505050565b612eb3615313565b5f6003612ee17f00000000000000000000000000000000000000000000000000000000000000006024615b39565b612eeb9190615b39565b612ef6906003615b39565b90505f5b81811015612f2c57612f24858281518110612f1757612f17615b73565b6020026020010151613154565b600101612efa565b50604051600190815b60018401811015612f915760208102870160208202870181515160408501528151602001516060850152805160808501525050604080830160606040850160075afa8316925060408260808460065afa90921691600101612f35565b5080518452602081015160208501525080612fbf576040516352ec174560e11b815260040160405180910390fd5b505092915050565b612fcf615313565b5f516020615c6e5f395f51905f5282602001515f516020615c6e5f395f51905f52612ffa91906155d3565b6130049190615bbc565b60208301525090565b5f5f5f61301986613093565b915091506130256153c0565b82518152602080840151818301528251604080840191909152838201516060840152875160808401528782015160a0840152865160c08401528682015160e084015251610bbd9161307891849101615bf0565b6040516020818303038152906040528051906020012061264a565b61309b615313565b6130a3615313565b82516020808501516040860151606087015160cc90811b608892831b604494851b90961795909517949094178652608087015160a088015160c089015160e08a0151871b90841b91851b9092171717868401526101008701516101208801516101408901516101608a0151871b90841b91851b909217171785526101808701516101a08801516101c08901516101e09099015190951b9790911b9390911b1791909117939093179281019290925291565b805160208201515f5f516020615c6e5f395f51905f528380095f516020615c6e5f395f51905f5260035f516020615c6e5f395f51905f52838709085f516020615c6e5f395f51905f5284850914915050806131ed5760405162461bcd60e51b8152602060048201526019602482015278706f696e74206973206e6f74206f6e2074686520637572766560381b60448201526064016100e5565b50505050565b6131fb615313565b613203615313565b61320d8386614f49565b90506132198185614f9f565b95945050505050565b81516020808401518351848301516040805194850195909552938301919091527f198e9393920d483a7260bfb731fb5d25f1aa493335a9e71297e485b7aef312c260608301527f1800deef121f1e76426a00665e5c4479674322d4f75edadd46debd5cd992f6ed60808301527f090689d0585ff075ec9e99ad690c3395bc4b313370b38ef355acdadcd122975b60a08301527f12c85ea5db8c6deb4aab71808dcb408fe3d1e7690c43d37b4ce6cc0166fa7daa60c083015260e08201526101008101919091527f260e01b251f6f1c7e7ff4e580791dee8ea51d87a358e038b4efe30fac09383c16101208201527f0118c4d5b837bcc2bc89b5b398b5974e9f5944073b32078b7e231fec938883b06101408201527f04fc6369f7110fe3d25156c1bb9a72859cf2a04641f99ba4ee413c80da6a5fe46101608201527f22febda3c0c0632a56475b4214e5615e11e6dd3f96e6cea2854a87d4dacc5e556101808201525f9081906101a00160405160208183030381529060405290505f5f60086001600160a01b0316836040516133b89190615c24565b5f60405180830381855afa9150503d805f81146133f0576040519150601f19603f3d011682016040523d82523d5f602084013e6133f5565b606091505b50915091508180156128115750808060200190518101906128119190615c3a565b5f613422846007615000565b90507f183227397098d014dc2822db40c0ac2e9419f4243cdcb848a1f0fac9f80000005f61348361347d613457856003612622565b6108cf6134726134678b5f615000565b6108cf8c601d615000565b6108cf8b601c615000565b836125ee565b90506135046134f96134e06134c76134ae856108d46134a38d6002615000565b6108cf8e601c615000565b6108d46134bc8c6003615000565b6108cf8d601d615000565b6108d46134d58b6004615000565b6108cf8c601e615000565b6108d46134ee8a6005615000565b6108cf8b601f615000565b6108d4886001615000565b9050613523816108d4613518866001612622565b6108cf8a6027615000565b905061352f81846125ee565b905061353b81856125ee565b8552505f905061357561356b61356061355588601c615000565b6108d489601f615000565b6108f2886024615000565b6108d4875f615000565b9050613586816108cf846002612622565b9050613597816108cf846001612622565b90506135a381836125ee565b90506135af81846125ee565b9050808460015b60200201525050505050565b5f5f5f6135f86135ee6135d689601c615000565b6108d46135e48b6012615000565b8a606001516125ee565b8760800151612609565b9050613631816108cf61362761360f8b601d615000565b6108d461361d8d6013615000565b8c606001516125ee565b8960800151612609565b9050613656816108cf6136276136488b601e615000565b6108d461361d8d6014615000565b905061367b816108cf61362761366d8b601f615000565b6108d461361d8d6015615000565b92505f905061369f6135ee61369189601c615000565b6108d46135e48b600e615000565b90506136c4816108cf6136276136b68b601d615000565b6108d461361d8d600f615000565b90506136e9816108cf6136276136db8b601e615000565b6108d461361d8d6010615000565b905061370e816108cf6136276137008b601f615000565b6108d461361d8d6011615000565b91505f905061373561372f613724896020615000565b6108d48a601a615000565b846125ee565b905061376a816108f261376461374c8b6028615000565b6108d461375a8d601b615000565b8c60a001516125ee565b856125ee565b905061377681856125ee565b6040860152505f61379961376461378e89601b615000565b6108cf8a6028615000565b9050808560035b602002015250505050505050565b5f5f61380c6137f46137dc6137c76136278a6016615000565b6108d46137d58b6017615000565b8a516125ee565b6108d46137ea8a6018615000565b89602001516125ee565b6108d4613802896019615000565b88604001516125ee565b91505f61384361382a61382089601c615000565b8860800151612609565b6108d46138388a6003615000565b6108cf8b6024615000565b90505f61386c61385489601d615000565b6108d46138618b5f615000565b6108cf8c6025615000565b90505f61389661387d8a601e615000565b6108d461388b8c6001615000565b6108cf8d6026615000565b90506138d56138bd6138af856108d4868d5f01516125ee565b6108d4848c602001516125ee565b6108d46138cb8c6004615000565b8b604001516125ee565b93505050505f6138e961372f886021615000565b90505f6138fa61372f896021615000565b90505f61393261391961390e8b6023615000565b6108d48c6006615000565b6108f26139278c6023615000565b6108cf8d6006615000565b90505f613950612b5b61394587896125ee565b6108cf8d6021615000565b905061395c81886125ee565b90505f6139846139766139708d6006615000565b876125ee565b6108f26139708e6022615000565b90505f6139928c6023615000565b90505f6139a2612b5b83846125ee565b60808c0185905260a08c0184905290506139bc818b6125ee565b8b6006602002015250505050505050505050505050565b5f6139df5f6001612622565b90505f6139ed5f6002612622565b90505f6139fb5f6003612622565b90505f613a17613a0c88601d615000565b6108f289601c615000565b90505f613a33613a2889601e615000565b6108f28a601d615000565b90505f613a4f613a448a601f615000565b6108f28b601e615000565b90505f613a6b613a608b6024615000565b6108f28c601f615000565b905083613a7c816108cf818b612609565b9050613a8c816108cf878a612609565b9050613a9c816108cf8789612609565b9050613aad816108cf8d6008615000565b9050613ab9818a6125ee565b60e08b01525082613ace816108cf818b612609565b9050613ade816108cf868a612609565b9050613aee816108cf8689612609565b9050613aff816108cf8d6008615000565b9050613b0b818a6125ee565b6101008b01525081613b21816108cf818b612609565b9050613b31816108cf858a612609565b9050613b41816108cf8589612609565b9050613b52816108cf8d6008615000565b9050613b5e818a6125ee565b6101208b01525080613b74816108cf818b612609565b9050613b84816108cf848a612609565b9050613b94816108cf8489612609565b9050613ba5816108cf8d6008615000565b9050613bb1818a6125ee565b610140909a019990995250505050505050505050565b613c006040518060e001604052805f81526020015f81526020015f81526020015f81526020015f81526020015f81526020015f81525090565b613c0b84601d615000565b8152613c1884601e615000565b6020820152613c28846024615000565b6040820152613c38846027615000565b6060820152613c48846026615000565b6080820152613c58846025615000565b60a08201525f613c69856002615000565b90505f613c76865f615000565b90505f613c8a8460400151855f0151612622565b90505f613c9f856020015186602001516125ee565b606086015190915086905f90613cb590806125ee565b90505f613cd3613ccd89602001518a606001516125ee565b886125ee565b90505f613cf2613ceb8a60a001518b60400151612609565b8a51612609565b9050613d0161397082886125ee565b9050613d28613d22613d1c613d168487612622565b88612622565b84612609565b83612609565b9050613d50613d45613d3a83876125ee565b6108cf8f6009615000565b6108cf60018a612622565b6101608c015250505050602085015160808601515f91613d6f91612609565b90505f613d8d613d838860600151886125ee565b8860200151612622565b90505f613db1613d9d84876125ee565b6108d46137648b60a001518c5f0151612622565b9050613dd9613dce613dc3838c6125ee565b6108cf8e6009615000565b6108cf600189612622565b6101808b0152505f9150613dfa9050613df3836011612609565b87516125ee565b90505f613e078384612609565b9050613e138182612609565b90505f613e218360096125ee565b9050613e4a613e4461372f613e3d8b60a001518c5f0151612609565b8b51612609565b82612622565b60c089018190525f90613e6590613ccd90613d3a908d6125ee565b9050613e788b600b602002015182612609565b6101608c0152505086515f9250613e9f9150613df390613e989080612609565b8851612609565b90505f613edf613eba836108cf8a5f01518b60a00151612622565b60208901516108f290613ecd9080612609565b6108cf8b602001518c60800151612609565b9050613efc89600c60200201516108d4613ccd613d3a858d6125ee565b89600c602002015250505050505050505050565b613f7a604051806101e001604052805f81526020015f81526020015f81526020015f81526020015f81526020015f81526020015f81526020015f81526020015f81526020015f81526020015f81526020015f81526020015f81526020015f81526020015f81525090565b613f92613f8886601e615000565b85604001516125ee565b808252613fb1906108d4613fa788601d615000565b87602001516125ee565b808252613fc6906108d4613df388601c615000565b808252613fd8906108d4876001615000565b80825260208201819052613ff1906108f287601f615000565b815261400c614001866024615000565b6108f287601c615000565b608082015261402a61401f866027615000565b6108f287601f615000565b60608201526080810151614043906108cf816001612622565b6101c082015260808101516140839061407990614072906108cf60015f516020615c8e5f395f51905f526155d3565b6001612609565b82606001516125ee565b60a082018190526140b9906140ab906108cf6140a0896002615000565b6108cf8a6003615000565b6108cf61376488600a615000565b83600e60200201526101c08101516140dd906140ab906108cf6140a0896002615000565b6101e08401528051614102906108cf6140f7886002615000565b6108cf896003615000565b6101208201525f61412161411787601f615000565b8360200151612622565b9050614132816108cf836001612622565b60e083015261414f614145876026615000565b86604001516125ee565b60408301819052614172906108d4614168896025615000565b88602001516125ee565b60408301819052614192906108d461418b896024615000565b88516125ee565b60408301526141af6141a5876027615000565b8360400151612622565b60408301525f6141ce6141c3886026615000565b6108f289601e615000565b90506142206141fb61347d614072866080015160015f516020615c8e5f395f51905f526108cf91906155d3565b6108cf614072866040015160015f516020615c8e5f395f51905f526108cf91906155d3565b60c084015260408301516142429061423890806125ee565b8460400151612622565b61010084015260c083015161426e90614260906108cf8a6004615000565b6108cf6139708a600a615000565b6102008601526101c083015161428d90614260906108cf8a6004615000565b6102208601526101008301516142ac90614260906108cf8a6004615000565b61024086015260e08301516142c6906108cf896004615000565b6101408401526142e56142da886025615000565b6108f289601d615000565b6101608401526080830151614323906141c39061431890614072906108cf60015f516020615c8e5f395f51905f526155d3565b8561016001516125ee565b61018084018190526101208401516101a0850181905261435a916108d4906108cf61434f8c6005615000565b6108cf8d6002615000565b6101a08401819052835161437a91906108d4906108cf61434f8c5f615000565b6101a084018190526101408401516143929190612609565b6101a084018190526143ac906108cf6139708a600a615000565b6101a0840181905285600d6137a0565b6143f56040518060e001604052805f81526020015f81526020015f81526020015f81526020015f81526020015f81526020015f81525090565b61442a61441161440686601c615000565b6108cf876025615000565b6108d461441f876024615000565b6108cf88601d615000565b815261446f61446461444b61444087601c615000565b6108cf88601f615000565b6108d461445988601d615000565b6108cf89601e615000565b6108f2866026615000565b6040820181905261448490600160441b6125ee565b6040820181905261449a906108f2866027615000565b6040820181905281516144ad9190612609565b604082018190526144c3906108cf866005615000565b604082015280516144d890600160441b6125ee565b8082526144f8906108d46144ed876024615000565b6108cf886025615000565b8082526020820181905261451f906108f261451487601e615000565b6108d488601f615000565b60208201819052614535906108cf866004615000565b6020820152805160608201819052614552906108d486601f615000565b60608201819052614576906108f261456b876026615000565b6108d4886027615000565b6060820181905261458b906108cf865f615000565b8160600181815250505f6145b46145aa83602001518460400151612609565b8360600151612609565b90506145c5816108cf876003615000565b90506145dd6145d5866025615000565b6140006125ee565b608083018190526145f3906108d4876024615000565b60808301819052614606906140006125ee565b6080830181905261461c906108d487601e615000565b6080830181905261462f906140006125ee565b60808301819052614645906108d487601d615000565b60808301819052614658906140006125ee565b6080830181905261466e906108d487601c615000565b60808301819052614684906108f287601f615000565b6080830181905261469a906108cf876005615000565b60808301526146ad6145d5866026615000565b60a083018190526146c3906108d4876025615000565b60a083018190526146d6906140006125ee565b60a083018190526146ec906108d4876024615000565b60a083018190526146ff906140006125ee565b60a08301819052614715906108d487601f615000565b60a08301819052614728906140006125ee565b60a0830181905261473e906108d487601e615000565b60a08301819052614754906108f2876027615000565b60a08301819052614769906108cf875f615000565b60a0830181905260808301515f916147819190612609565b9050614792816108cf886004615000565b905061479e8282612609565b60c084018190526147b7906108cf61397089600b615000565b60c084018190528560136020020152505050505050565b6148446040518061022001604052805f81526020015f81526020015f81526020015f81526020015f81526020015f81526020015f81526020015f81526020015f81526020015f81526020015f81526020015f81526020015f81526020015f81526020015f81526020015f81526020015f81525090565b61485d61485285601c615000565b6108d4866002615000565b815261487861486d85601d615000565b6108d4866003615000565b602082015261489661488b85601e615000565b6108d4866004615000565b60408201526148b46148a985601f615000565b6108d4866005615000565b606082015280516148e6906148df906148d8906148d190806125ee565b84516125ee565b83516125ee565b82516125ee565b608082015260208101516149249061491a906149109061490690806125ee565b84602001516125ee565b83602001516125ee565b82602001516125ee565b60a08201526040810151614962906149589061494e9061494490806125ee565b84604001516125ee565b83604001516125ee565b82604001516125ee565b60c08201526060810151614996906140799061498c9061498290806125ee565b84606001516125ee565b83606001516125ee565b60e0820152608081015160a08201516149af9190612609565b61010082015260c081015160e08201516149c99190612609565b61012082015260a08101516149ed906149e29080612609565b826101200151612609565b61014082015260e0810151614a1190614a069080612609565b826101000151612609565b610160820152610120810151614a279080612609565b6101e08201819052614a4890614a3d9080612609565b826101600151612609565b6101e0820152610100810151614a5e9080612609565b6101a08201819052614a7f90614a749080612609565b826101400151612609565b6101a08201819052610160820151614a9691612609565b6101808201526101408101516101e0820151614ab29190612609565b6101c0820152614ac661347d85600c615000565b6102008201819052610280840151610180830151614af1926108d4916108cf906108f28a6024615000565b8360146020020152614b2183601560200201516108d48361020001516108cf856101a001516108f28a6025615000565b8360156020020152614b5183601660200201516108d48361020001516108cf856101c001516108f28a6026615000565b8360166020020152614b8183601760200201516108d48361020001516108cf856101e001516108f28a6027615000565b836017602002015250505050565b614be16040518061016001604052805f81526020015f81526020015f81526020015f81526020015f81526020015f81526020015f81526020015f81526020015f81526020015f81526020015f81525090565b5f6040518060800160405280614c167f10dc6e9c006ea38b04b1e03b4bd9490c0d03f98929ca1d7fb56821fd19d3b6e76125d6565b8152602001614c447f0c28145b6a44df3e0149b3d0a30b3bb599df9756d4dd9b84a86b38cfb45a740b6125d6565b8152602001614c717e544b8338791518b2c7645a50392798b21f75bb60e3596170067d00141cac156125d6565b8152602001614c9f7f222c01175718386f2e2e82eb122789e352e105a3b8fa852613bc534433ee428b6125d6565b90529050614cbc614cb186601c615000565b6108d4876002615000565b6101208301819052614cfb90614cf090614ce590614cda90806125ee565b8561012001516125ee565b8461012001516125ee565b8361012001516125ee565b8252614d0885601d615000565b6020830152614d1885601e615000565b6040830152614d2885601f615000565b606083015281516020830151614d50916145aa91614d469190612609565b8460400151612609565b6080830152614d6361372f86600d615000565b6101408301528151614d8490614d7a90835f610b7d565b8360800151612609565b60a0830152614db084601860200201516108d48461014001516108cf8660a001516108f28b6024615000565b6103008501526020820151614dcb90614d7a90836001610b7d565b60c0830152614df784601960200201516108d48461014001516108cf8660c001516108f28b6025615000565b6103208501526040820151614e1290614d7a90836002610b7d565b60e0830152614e3e84601a60200201516108d48461014001516108cf8660e001516108f28b6026615000565b6103408501526060820151614e5990614d7a90836003610b7d565b610100830152614e8784601b60200201516108d48461014001516108cf8661010001516108f28b6027615000565b84601b6135b6565b815160015b601c811015614ee157614ed7826108d48684601c8110614eb657614eb6615b73565b602002015186614ec76001876155d3565b601b8110610b7d57610b7d615b73565b9150600101614e94565b5092915050565b5f5f8390505f60405160208152602080820152602060408201528260608201528460808201525f516020615c8e5f395f51905f5260a082015260205f60c08360055afa80614f34575f5ffd5b505f5160809190910160405295945050505050565b614f51615313565b614f59615313565b604051835181526020840151602082015284604082015260408160608360075afa80614f83575f5ffd5b5080518252602080820151908301526060016040529392505050565b614fa7615313565b614faf615313565b6040518451815260208501516020820152835160408201526020840151606082015260408160808360065afa80614fe4575f5ffd5b5080518252602080820151908301526080016040529392505050565b5f8282602881111561501457615014615c59565b6029811061502457615024615b73565b60200201519392505050565b604051806103e001604052805f81526020015f81526020015f8152602001615056615313565b8152602001615063615313565b8152602001615070615313565b815260200161507d615313565b815260200161508a615313565b8152602001615097615313565b81526020016150a4615313565b81526020016150b1615313565b81526020016150be615313565b81526020016150cb615313565b81526020016150d8615313565b81526020016150e5615313565b81526020016150f2615313565b81526020016150ff615313565b815260200161510c615313565b8152602001615119615313565b8152602001615126615313565b8152602001615133615313565b8152602001615140615313565b815260200161514d615313565b815260200161515a615313565b8152602001615167615313565b8152602001615174615313565b8152602001615181615313565b815260200161518e615313565b815260200161519b615313565b81526020016151a8615313565b81526020016151b5615313565b905290565b604051806102a001604052806151ce6153df565b81526020016151db615313565b81526020016151e8615313565b81526020016151f5615313565b8152602001615202615313565b815260200161520f615313565b815260200161521c615313565b8152602001615229615313565b8152602001615236615313565b81526020016152436153fe565b81526020015f815260200161525661542b565b8152602001615263615459565b81526020015f8152602001615276615313565b81526020015f8152602001615289615478565b815260200161529661535d565b815260200161519b6154a6565b604051806101c001604052805f81526020015f81526020015f81526020015f81526020015f81526020015f81526020015f81526020016152e16154a6565b81526020016152ee6154a6565b81526020015f81526020015f81526020015f81526020015f8152602001606081525090565b60405180604001604052805f81526020015f81525090565b60405180604001604052806151a8615313565b6040518061012001604052806009906020820280368337509192915050565b604051806103800160405280601c906020820280368337509192915050565b6040518060e0016040528061538f6154c4565b81526020015f81526020015f81526020015f81526020015f81526020016153b46154c4565b81526020015f81525090565b6040518061010001604052806008906020820280368337509192915050565b6040518061020001604052806010906020820280368337509192915050565b60405180606001604052806003905b615415615313565b81526020019060019003908161540d5790505090565b604051806103800160405280601c905b61544361533e565b81526020019060019003908161543b5790505090565b6040518061052001604052806029906020820280368337509192915050565b604051806103600160405280601b905b615490615313565b8152602001906001900390816154885790505090565b60405180608001604052806004906020820280368337509192915050565b604051806120000160405280610100906020820280368337509192915050565b5f5f5f5f604085870312156154f7575f5ffd5b84356001600160401b0381111561550c575f5ffd5b8501601f8101871361551c575f5ffd5b80356001600160401b03811115615531575f5ffd5b876020828401011115615542575f5ffd5b6020918201955093508501356001600160401b03811115615561575f5ffd5b8501601f81018713615571575f5ffd5b80356001600160401b03811115615586575f5ffd5b8760208260051b840101111561559a575f5ffd5b949793965060200194505050565b634e487b7160e01b5f52601160045260245ffd5b8082028115828204841417612603576126036155a8565b81810381811115612603576126036155a8565b805f5b60108110156131ed5781518452602093840193909101906001016155e9565b805f5b60038110156131ed5761562984835180518252602090810151910152565b604093909301926020919091019060010161560b565b805f5b601c8110156131ed578151845f5b600981101561566f578251825260209283019290910190600101615650565b505050610120939093019260209190910190600101615642565b805f5b60298110156131ed57815184526020938401939091019060010161568c565b805f5b601b8110156131ed576156cc84835180518252602090810151910152565b60409390930192602091909101906001016156ae565b805f5b601c8110156131ed5781518452602093840193909101906001016156e5565b805f5b60048110156131ed578151845260209384019390910190600101615707565b8183525f6001600160fb1b0383111561573d575f5ffd5b8260051b80836020870137939093016020019392505050565b6157618188516155e6565b5f602088015161577f61020084018280518252602090810151910152565b5060408801518051610240840152602090810151610260840152606089015180516102808501528101516102a0840152608089015180516102c08501528101516102e084015260a0890151805161030085015281015161032084015260c0890151805161034085015281015161036084015260e089015180516103808501528101516103a084015261010089015180516103c085015201516103e0830152610120880151615831610400840182615608565b506101408801516104c08301526101608801516158526104e084018261563f565b50610180880151615867612460840182615689565b506101a08801516129808301526101c088015180516129a0840152602001516129c08301526101e08801516129e08301526102008801516158ac612a008401826156ab565b506102208801516158c16130c08401826156e2565b506102408801516158d6613440840182615704565b5061026088015180516134c08401526020908101516134e0840152610280890151805161350085015201516135208301526135c0613540830181905261591f9083018789615726565b613560830195909552506135808101929092526135a0909101529392505050565b634e487b7160e01b5f52604160045260245ffd5b60405161014081016001600160401b038111828210171561597757615977615940565b60405290565b604051601f8201601f191681016001600160401b03811182821017156159a5576159a5615940565b604052919050565b5f60c082840312156159bd575f5ffd5b60405160c081016001600160401b03811182821017156159df576159df615940565b604090815283518252602080850151908301528381015190820152606080840151908201526080808401519082015260a0928301519281019290925250919050565b5f82601f830112615a30575f5ffd5b5f610360615a3d8161597d565b915083018185821115615a4e575f5ffd5b845b82811015615a68578051825260209182019101615a50565b509195945050505050565b5f82601f830112615a82575f5ffd5b5f610380615a3d8161597d565b5f610be0828403128015615aa1575f5ffd5b50615aaa615954565b615ab484846159ad565b8152615ac38460c08501615a21565b6020820152615ad6846104208501615a73565b60408201526107a08301516060820152615af4846107c08501615a73565b6080820152610b4083015160a0820152610b6083015160c0820152610b8083015160e0820152610ba0830151610100820152610bc09092015161012083015250919050565b80820180821115612603576126036155a8565b5f5f85851115615b5a575f5ffd5b83861115615b66575f5ffd5b5050820193919092039150565b634e487b7160e01b5f52603260045260245ffd5b5f60018201615b9857615b986155a8565b5060010190565b80356020831015612603575f19602084900360031b1b1692915050565b5f82615bd657634e487b7160e01b5f52601260045260245ffd5b500690565b5f81615be957615be96155a8565b505f190190565b5f8183825b6008811015615c14578151835260209283019290910190600101615bf5565b5050506101008201905092915050565b5f82518060208501845e5f920191825250919050565b5f60208284031215615c4a575f5ffd5b815180151581146103dd575f5ffd5b634e487b7160e01b5f52602160045260245ffdfe30644e72e131a029b85045b68181585d97816a916871ca8d3c208c16d87cfd4730644e72e131a029b85045b68181585d2833e84879b9709143e1f593f0000001a2646970667358221220c939cb5753d89fbeed86417fcbc2bec581722287eb963553760acbb6d98a3f8764736f6c634300081c0033",
  "linkReferences": {
    "project/contracts/verifiers/TransferVerifier.sol": {
      "ZKTranscriptLib": [
        {
          "length": 20,
          "start": 580
        }
      ]
    }
  },
  "deployedLinkReferences": {
    "project/contracts/verifiers/TransferVerifier.sol": {
      "ZKTranscriptLib": [
        {
          "length": 20,
          "start": 360
        }
      ]
    }
  },
  "immutableReferences": {
    "7763": [
      {
        "length": 32,
        "start": 91
      },
      {
        "length": 32,
        "start": 148
      },
      {
        "length": 32,
        "start": 257
      },
      {
        "length": 32,
        "start": 466
      },
      {
        "length": 32,
        "start": 2608
      },
      {
        "length": 32,
        "start": 2877
      },
      {
        "length": 32,
        "start": 3036
      },
      {
        "length": 32,
        "start": 3082
      },
      {
        "length": 32,
        "start": 3216
      },
      {
        "length": 32,
        "start": 5412
      },
      {
        "length": 32,
        "start": 5587
      },
      {
        "length": 32,
        "start": 5638
      },
      {
        "length": 32,
        "start": 6160
      },
      {
        "length": 32,
        "start": 11154
      },
      {
        "length": 32,
        "start": 11963
      }
    ],
    "7765": [
      {
        "length": 32,
        "start": 398
      }
    ],
    "7767": [
      {
        "length": 32,
        "start": 432
      },
      {
        "length": 32,
        "start": 2306
      }
    ]
  },
  "inputSourceName": "contracts/verifiers/TransferVerifier.sol",
  "buildInfoId": "solc-0_8_28-8972d3a7f8108de5db8b67a6d475ea02713d2285"
}