{
  "_format": "hh3-artifact-1",
  "contractName": "CommBankDotEth",
  "sourceName": "contracts/CommBankDotEth.sol",
  "abi": [
    {
      "inputs": [
        {
          "internalType": "address",
          "name": "_noteVerifier",
          "type": "address"
        },
        {
          "internalType": "address",
          "name": "_transactVerifier",
          "type": "address"
        },
        {
          "internalType": "address",
          "name": "_withdrawalVerifier",
          "type": "address"
        }
      ],
      "stateMutability": "nonpayable",
      "type": "constructor"
    },
    {
      "inputs": [],
      "name": "AccessControlBadConfirmation",
      "type": "error"
    },
    {
      "inputs": [
        {
          "internalType": "address",
          "name": "account",
          "type": "address"
        },
        {
          "internalType": "bytes32",
          "name": "neededRole",
          "type": "bytes32"
        }
      ],
      "name": "AccessControlUnauthorizedAccount",
      "type": "error"
    },
    {
      "anonymous": false,
      "inputs": [
        {
          "indexed": true,
          "internalType": "uint256",
          "name": "leafIndex",
          "type": "uint256"
        },
        {
          "indexed": true,
          "internalType": "bytes32",
          "name": "leafValue",
          "type": "bytes32"
        }
      ],
      "name": "LeafInserted",
      "type": "event"
    },
    {
      "anonymous": false,
      "inputs": [
        {
          "indexed": false,
          "internalType": "bytes",
          "name": "encryptedNote",
          "type": "bytes"
        }
      ],
      "name": "NotePayload",
      "type": "event"
    },
    {
      "anonymous": false,
      "inputs": [
        {
          "indexed": true,
          "internalType": "bytes32",
          "name": "nullifier",
          "type": "bytes32"
        }
      ],
      "name": "NullifierUsed",
      "type": "event"
    },
    {
      "anonymous": false,
      "inputs": [
        {
          "indexed": true,
          "internalType": "bytes32",
          "name": "role",
          "type": "bytes32"
        },
        {
          "indexed": true,
          "internalType": "bytes32",
          "name": "previousAdminRole",
          "type": "bytes32"
        },
        {
          "indexed": true,
          "internalType": "bytes32",
          "name": "newAdminRole",
          "type": "bytes32"
        }
      ],
      "name": "RoleAdminChanged",
      "type": "event"
    },
    {
      "anonymous": false,
      "inputs": [
        {
          "indexed": true,
          "internalType": "bytes32",
          "name": "role",
          "type": "bytes32"
        },
        {
          "indexed": true,
          "internalType": "address",
          "name": "account",
          "type": "address"
        },
        {
          "indexed": true,
          "internalType": "address",
          "name": "sender",
          "type": "address"
        }
      ],
      "name": "RoleGranted",
      "type": "event"
    },
    {
      "anonymous": false,
      "inputs": [
        {
          "indexed": true,
          "internalType": "bytes32",
          "name": "role",
          "type": "bytes32"
        },
        {
          "indexed": true,
          "internalType": "address",
          "name": "account",
          "type": "address"
        },
        {
          "indexed": true,
          "internalType": "address",
          "name": "sender",
          "type": "address"
        }
      ],
      "name": "RoleRevoked",
      "type": "event"
    },
    {
      "inputs": [],
      "name": "DEFAULT_ADMIN_ROLE",
      "outputs": [
        {
          "internalType": "bytes32",
          "name": "",
          "type": "bytes32"
        }
      ],
      "stateMutability": "view",
      "type": "function"
    },
    {
      "inputs": [],
      "name": "DEPOSIT_ROLE",
      "outputs": [
        {
          "internalType": "bytes32",
          "name": "",
          "type": "bytes32"
        }
      ],
      "stateMutability": "view",
      "type": "function"
    },
    {
      "inputs": [],
      "name": "ETH_ADDRESS",
      "outputs": [
        {
          "internalType": "address",
          "name": "",
          "type": "address"
        }
      ],
      "stateMutability": "view",
      "type": "function"
    },
    {
      "inputs": [],
      "name": "INITIAL_ROOT",
      "outputs": [
        {
          "internalType": "uint256",
          "name": "",
          "type": "uint256"
        }
      ],
      "stateMutability": "view",
      "type": "function"
    },
    {
      "inputs": [],
      "name": "MAX_LEAF_INDEX",
      "outputs": [
        {
          "internalType": "uint256",
          "name": "",
          "type": "uint256"
        }
      ],
      "stateMutability": "view",
      "type": "function"
    },
    {
      "inputs": [],
      "name": "PRIME",
      "outputs": [
        {
          "internalType": "uint256",
          "name": "",
          "type": "uint256"
        }
      ],
      "stateMutability": "view",
      "type": "function"
    },
    {
      "inputs": [],
      "name": "ROOT_HISTORY_SIZE",
      "outputs": [
        {
          "internalType": "uint32",
          "name": "",
          "type": "uint32"
        }
      ],
      "stateMutability": "view",
      "type": "function"
    },
    {
      "inputs": [],
      "name": "currentRootIndex",
      "outputs": [
        {
          "internalType": "uint32",
          "name": "",
          "type": "uint32"
        }
      ],
      "stateMutability": "view",
      "type": "function"
    },
    {
      "inputs": [],
      "name": "deployer",
      "outputs": [
        {
          "internalType": "address",
          "name": "",
          "type": "address"
        }
      ],
      "stateMutability": "view",
      "type": "function"
    },
    {
      "inputs": [
        {
          "internalType": "address",
          "name": "_erc20",
          "type": "address"
        },
        {
          "internalType": "uint256",
          "name": "_amount",
          "type": "uint256"
        },
        {
          "internalType": "bytes",
          "name": "_proof",
          "type": "bytes"
        },
        {
          "internalType": "bytes32[]",
          "name": "_publicInputs",
          "type": "bytes32[]"
        },
        {
          "internalType": "bytes[]",
          "name": "_payload",
          "type": "bytes[]"
        }
      ],
      "name": "deposit",
      "outputs": [],
      "stateMutability": "nonpayable",
      "type": "function"
    },
    {
      "inputs": [
        {
          "internalType": "bytes",
          "name": "_proof",
          "type": "bytes"
        },
        {
          "internalType": "bytes32[]",
          "name": "_publicInputs",
          "type": "bytes32[]"
        },
        {
          "internalType": "bytes[]",
          "name": "_payload",
          "type": "bytes[]"
        }
      ],
      "name": "depositNative",
      "outputs": [],
      "stateMutability": "payable",
      "type": "function"
    },
    {
      "inputs": [
        {
          "internalType": "uint256",
          "name": "",
          "type": "uint256"
        }
      ],
      "name": "filledSubtrees",
      "outputs": [
        {
          "internalType": "uint256",
          "name": "",
          "type": "uint256"
        }
      ],
      "stateMutability": "view",
      "type": "function"
    },
    {
      "inputs": [
        {
          "internalType": "bytes32",
          "name": "role",
          "type": "bytes32"
        }
      ],
      "name": "getRoleAdmin",
      "outputs": [
        {
          "internalType": "bytes32",
          "name": "",
          "type": "bytes32"
        }
      ],
      "stateMutability": "view",
      "type": "function"
    },
    {
      "inputs": [
        {
          "internalType": "bytes32",
          "name": "role",
          "type": "bytes32"
        },
        {
          "internalType": "address",
          "name": "account",
          "type": "address"
        }
      ],
      "name": "grantRole",
      "outputs": [],
      "stateMutability": "nonpayable",
      "type": "function"
    },
    {
      "inputs": [
        {
          "internalType": "bytes32",
          "name": "role",
          "type": "bytes32"
        },
        {
          "internalType": "address",
          "name": "account",
          "type": "address"
        }
      ],
      "name": "hasRole",
      "outputs": [
        {
          "internalType": "bool",
          "name": "",
          "type": "bool"
        }
      ],
      "stateMutability": "view",
      "type": "function"
    },
    {
      "inputs": [
        {
          "internalType": "uint256",
          "name": "_left",
          "type": "uint256"
        },
        {
          "internalType": "uint256",
          "name": "_right",
          "type": "uint256"
        }
      ],
      "name": "hashLeftRight",
      "outputs": [
        {
          "internalType": "uint256",
          "name": "",
          "type": "uint256"
        }
      ],
      "stateMutability": "view",
      "type": "function"
    },
    {
      "inputs": [],
      "name": "height",
      "outputs": [
        {
          "internalType": "uint256",
          "name": "",
          "type": "uint256"
        }
      ],
      "stateMutability": "view",
      "type": "function"
    },
    {
      "inputs": [
        {
          "internalType": "uint256",
          "name": "_root",
          "type": "uint256"
        }
      ],
      "name": "isKnownRoot",
      "outputs": [
        {
          "internalType": "bool",
          "name": "",
          "type": "bool"
        }
      ],
      "stateMutability": "view",
      "type": "function"
    },
    {
      "inputs": [],
      "name": "nextIndex",
      "outputs": [
        {
          "internalType": "uint256",
          "name": "",
          "type": "uint256"
        }
      ],
      "stateMutability": "view",
      "type": "function"
    },
    {
      "inputs": [
        {
          "internalType": "bytes32",
          "name": "",
          "type": "bytes32"
        }
      ],
      "name": "nullifierUsed",
      "outputs": [
        {
          "internalType": "bool",
          "name": "",
          "type": "bool"
        }
      ],
      "stateMutability": "view",
      "type": "function"
    },
    {
      "inputs": [],
      "name": "poseidon2Hasher",
      "outputs": [
        {
          "internalType": "address",
          "name": "",
          "type": "address"
        }
      ],
      "stateMutability": "view",
      "type": "function"
    },
    {
      "inputs": [
        {
          "internalType": "bytes32",
          "name": "role",
          "type": "bytes32"
        },
        {
          "internalType": "address",
          "name": "callerConfirmation",
          "type": "address"
        }
      ],
      "name": "renounceRole",
      "outputs": [],
      "stateMutability": "nonpayable",
      "type": "function"
    },
    {
      "inputs": [
        {
          "internalType": "bytes32",
          "name": "role",
          "type": "bytes32"
        },
        {
          "internalType": "address",
          "name": "account",
          "type": "address"
        }
      ],
      "name": "revokeRole",
      "outputs": [],
      "stateMutability": "nonpayable",
      "type": "function"
    },
    {
      "inputs": [
        {
          "internalType": "uint256",
          "name": "",
          "type": "uint256"
        }
      ],
      "name": "roots",
      "outputs": [
        {
          "internalType": "uint256",
          "name": "",
          "type": "uint256"
        }
      ],
      "stateMutability": "view",
      "type": "function"
    },
    {
      "inputs": [
        {
          "internalType": "address",
          "name": "_hasher",
          "type": "address"
        }
      ],
      "name": "setPoseidon",
      "outputs": [],
      "stateMutability": "nonpayable",
      "type": "function"
    },
    {
      "inputs": [
        {
          "internalType": "bytes4",
          "name": "interfaceId",
          "type": "bytes4"
        }
      ],
      "name": "supportsInterface",
      "outputs": [
        {
          "internalType": "bool",
          "name": "",
          "type": "bool"
        }
      ],
      "stateMutability": "view",
      "type": "function"
    },
    {
      "inputs": [
        {
          "internalType": "bytes",
          "name": "_proof",
          "type": "bytes"
        },
        {
          "internalType": "bytes32[]",
          "name": "_publicInputs",
          "type": "bytes32[]"
        },
        {
          "internalType": "bytes[]",
          "name": "_payload",
          "type": "bytes[]"
        }
      ],
      "name": "transfer",
      "outputs": [],
      "stateMutability": "nonpayable",
      "type": "function"
    },
    {
      "inputs": [
        {
          "internalType": "bytes",
          "name": "_proof",
          "type": "bytes"
        },
        {
          "internalType": "bytes32[]",
          "name": "_publicInputs",
          "type": "bytes32[]"
        }
      ],
      "name": "withdraw",
      "outputs": [],
      "stateMutability": "nonpayable",
      "type": "function"
    },
    {
      "inputs": [
        {
          "internalType": "uint256",
          "name": "i",
          "type": "uint256"
        }
      ],
      "name": "zeros",
      "outputs": [
        {
          "internalType": "uint256",
          "name": "",
          "type": "uint256"
        }
      ],
      "stateMutability": "pure",
      "type": "function"
    }
  ],
  "bytecode": "0x60c06040526002805463ffffffff191690555f6003557f2561bf26f818282a3be40719542054d2173eb0d38539e8a8d3cff22f29fd2384600c5573eeeeeeeeeeeeeeeeeeeeeeeeeeeeeeeeeeeeeeee60a05234801561005c575f5ffd5b506040516124e73803806124e783398101604081905261007b91610218565b600c608081905261008d60018261026c565b610098906002610362565b600455505f80805260016020527f124005ad54174bbcb8c2dd053ea318daa80106cdcc518731504b771d6006123f7fa6eef7e35abe7026729641147f7915573c7e97b47efa546f5f6e3230263bcb495560068054336001600160a01b031991821681179092556008805482166001600160a01b0388811691909117909155600980548316878316179055600a80549092169085161790556101399190610150565b50600c546101479033610150565b50505050610374565b5f8281526007602090815260408083206001600160a01b038516845290915281205460ff166101f4575f8381526007602090815260408083206001600160a01b03861684529091529020805460ff191660011790556101ac3390565b6001600160a01b0316826001600160a01b0316847f2f8788117e7eff1d82e926ec794901d17c78024a50270940304540a733656f0d60405160405180910390a45060016101f7565b505f5b92915050565b80516001600160a01b0381168114610213575f5ffd5b919050565b5f5f5f6060848603121561022a575f5ffd5b610233846101fd565b9250610241602085016101fd565b915061024f604085016101fd565b90509250925092565b634e487b7160e01b5f52601160045260245ffd5b818103818111156101f7576101f7610258565b6001815b60018411156102ba5780850481111561029e5761029e610258565b60018416156102ac57908102905b60019390931c928002610283565b935093915050565b5f826102d0575060016101f7565b816102dc57505f6101f7565b81600181146102f257600281146102fc57610318565b60019150506101f7565b60ff84111561030d5761030d610258565b50506001821b6101f7565b5060208310610133831016604e8410600b841016171561033b575081810a6101f7565b6103475f19848461027f565b805f190482111561035a5761035a610258565b029392505050565b5f61036d83836102c2565b9392505050565b60805160a05161213d6103aa5f395f818161043501528181610a99015261142301525f81816102070152611982015261213d5ff3fe60806040526004361061017d575f3560e01c806390eeb02b116100d4578063c2b40ae411610083578063c2b40ae4146104a9578063c46165b5146104d4578063cd87a3b4146104e7578063d547741f146104fb578063d5f394881461051a578063e829558814610539578063f178e47c14610558578063fc7e9c6f14610583575f5ffd5b806390eeb02b146103a257806391d14854146103d3578063a217fddf146103f2578063a6232a9314610405578063a734f06e14610424578063aa77c44a14610457578063b42147cd14610476575f5ffd5b806336568abe1161013057806336568abe146102c45780635bb93995146102e35780635e125d0d1461030257806367843a5b146103215780637ecf686d1461034057806380fc74981461036e5780638474690014610383575f5ffd5b806217cd8b1461018157806301ffc9a7146101c75780630ef26743146101f65780631a702a2414610229578063248a9ca3146102605780632f2ff15d1461028e578063353efdcf146102af575b5f5ffd5b34801561018c575f5ffd5b506101b47f30644e72e131a029b85045b68181585d2833e84879b9709143e1f593f000000181565b6040519081526020015b60405180910390f35b3480156101d2575f5ffd5b506101e66101e1366004611b46565b610598565b60405190151581526020016101be565b348015610201575f5ffd5b506101b47f000000000000000000000000000000000000000000000000000000000000000081565b348015610234575f5ffd5b50600554610248906001600160a01b031681565b6040516001600160a01b0390911681526020016101be565b34801561026b575f5ffd5b506101b461027a366004611b74565b5f9081526007602052604090206001015490565b348015610299575f5ffd5b506102ad6102a8366004611ba1565b6105ce565b005b3480156102ba575f5ffd5b506101b4600c5481565b3480156102cf575f5ffd5b506102ad6102de366004611ba1565b6105f8565b3480156102ee575f5ffd5b506101b46102fd366004611bcb565b610630565b34801561030d575f5ffd5b506102ad61031c366004611beb565b610728565b34801561032c575f5ffd5b506102ad61033b366004611c88565b6107f3565b34801561034b575f5ffd5b506101e661035a366004611b74565b600b6020525f908152604090205460ff1681565b348015610379575f5ffd5b506101b460045481565b34801561038e575f5ffd5b506102ad61039d366004611cf2565b610c8c565b3480156103ad575f5ffd5b506002546103be9063ffffffff1681565b60405163ffffffff90911681526020016101be565b3480156103de575f5ffd5b506101e66103ed366004611ba1565b610faf565b3480156103fd575f5ffd5b506101b45f81565b348015610410575f5ffd5b506101e661041f366004611b74565b610fd9565b34801561042f575f5ffd5b506102487f000000000000000000000000000000000000000000000000000000000000000081565b348015610462575f5ffd5b506102ad610471366004611d8e565b611052565b348015610481575f5ffd5b506101b47f124005ad54174bbcb8c2dd053ea318daa80106cdcc518731504b771d6006123f81565b3480156104b4575f5ffd5b506101b46104c3366004611b74565b60016020525f908152604090205481565b6102ad6104e2366004611cf2565b61135b565b3480156104f2575f5ffd5b506103be606481565b348015610506575f5ffd5b506102ad610515366004611ba1565b6115ae565b348015610525575f5ffd5b50600654610248906001600160a01b031681565b348015610544575f5ffd5b506101b4610553366004611b74565b6115d2565b348015610563575f5ffd5b506101b4610572366004611b74565b5f6020819052908152604090205481565b34801561058e575f5ffd5b506101b460035481565b5f6001600160e01b03198216637965db0b60e01b14806105c857506301ffc9a760e01b6001600160e01b03198316145b92915050565b5f828152600760205260409020600101546105e88161181a565b6105f28383611827565b50505050565b6001600160a01b03811633146106215760405163334bd91960e11b815260040160405180910390fd5b61062b82826118b8565b505050565b5f5f838360405160200161064e929190918252602082015260400190565b60408051601f19818403018152908290526005549092505f9182916001600160a01b03169061067e908590611e43565b5f60405180830381855afa9150503d805f81146106b6576040519150601f19603f3d011682016040523d82523d5f602084013e6106bb565b606091505b50915091508161070a5760405162461bcd60e51b8152602060048201526015602482015274141bdcd95a591bdb8c881a185cda0819985a5b1959605a1b60448201526064015b60405180910390fd5b8080602001905181019061071e9190611e59565b9695505050505050565b6005546001600160a01b0316156107775760405162461bcd60e51b815260206004820152601360248201527243616e2774207365742069742074776963652160681b6044820152606401610701565b6006546001600160a01b031633146107d15760405162461bcd60e51b815260206004820152601e60248201527f6f6e6c79206465706c6f7965722063616e2073657420706f736569646f6e00006044820152606401610701565b600580546001600160a01b0319166001600160a01b0392909216919091179055565b61081682825f81811061080857610808611e70565b905060200201355f1c610fd9565b6108325760405162461bcd60e51b815260040161070190611e84565b600a54604051633a94343960e21b81525f916001600160a01b03169063ea50d0e490610868908890889088908890600401611ed3565b6020604051808303815f875af1158015610884573d5f5f3e3d5ffd5b505050506040513d601f19601f820116820180604052508101906108a89190611f1d565b9050806108f05760405162461bcd60e51b815260206004820152601660248201527524b73b30b634b2103bb4ba34323930bb90383937b7b360511b6044820152606401610701565b60015b60038111610a01575f84848381811061090e5761090e611e70565b90506020020135146109ef57600b5f85858481811061092f5761092f611e70565b602090810292909201358352508101919091526040015f205460ff16156109685760405162461bcd60e51b815260040161070190611f3c565b6001600b5f86868581811061097f5761097f611e70565b9050602002013581526020019081526020015f205f6101000a81548160ff0219169083151502179055508383828181106109bb576109bb611e70565b905060200201357f4aac17bcf1974f8ba294b28aaf75fe627cdcc9a03ac55bda3bfe158ab067383c60405160405180910390a25b806109f981611f81565b9150506108f3565b505f5b6003811015610c84575f610a19826004611f99565b90505f610a27836007611f99565b90505f610a3584600a611f99565b90505f878785818110610a4a57610a4a611e70565b905060200201355f1c90505f888885818110610a6857610a68611e70565b905060200201355f1c90505f898985818110610a8657610a86611e70565b60200291909101359150508115610c72577f00000000000000000000000000000000000000000000000000000000000000006001600160a01b0316836001600160a01b031603610bb65781471015610b1b5760405162461bcd60e51b8152602060048201526018602482015277496e73756666696369656e74204554482062616c616e636560401b6044820152606401610701565b5f816001600160a01b0316836040515f6040518083038185875af1925050503d805f8114610b64576040519150601f19603f3d011682016040523d82523d5f602084013e610b69565b606091505b5050905080610bb05760405162461bcd60e51b8152602060048201526013602482015272115512081d1c985b9cd9995c8819985a5b1959606a1b6044820152606401610701565b50610c72565b60405163a9059cbb60e01b81526001600160a01b038281166004830152602482018490525f919085169063a9059cbb906044016020604051808303815f875af1158015610c05573d5f5f3e3d5ffd5b505050506040513d601f19601f82011682018060405250810190610c299190611f1d565b905080610c705760405162461bcd60e51b8152602060048201526015602482015274151bdad95b881d1c985b9cd9995c8819985a5b1959605a1b6044820152606401610701565b505b505060019094019350610a0492505050565b505050505050565b610ca184845f81811061080857610808611e70565b610cbd5760405162461bcd60e51b815260040161070190611e84565b600954604051633a94343960e21b81525f916001600160a01b03169063ea50d0e490610cf3908a908a908a908a90600401611ed3565b6020604051808303815f875af1158015610d0f573d5f5f3e3d5ffd5b505050506040513d601f19601f82011682018060405250810190610d339190611f1d565b905080610d7b5760405162461bcd60e51b815260206004820152601660248201527524b73b30b634b2103a3930b739b332b910383937b7b360511b6044820152606401610701565b60015b610d8a60036001611f99565b811015610e8d575f868683818110610da457610da4611e70565b9050602002013514610e8557600b5f878784818110610dc557610dc5611e70565b602090810292909201358352508101919091526040015f205460ff1615610dfe5760405162461bcd60e51b815260040161070190611f3c565b6001600b5f888885818110610e1557610e15611e70565b9050602002013581526020019081526020015f205f6101000a81548160ff021916908315150217905550858582818110610e5157610e51611e70565b905060200201357f4aac17bcf1974f8ba294b28aaf75fe627cdcc9a03ac55bda3bfe158ab067383c60405160405180910390a25b600101610d7e565b505f610e9b60036001611f99565b90505b6003610eab816001611f99565b610eb59190611f99565b811015610f08575f868683818110610ecf57610ecf611e70565b9050602002013514610f0057610efe868683818110610ef057610ef0611e70565b905060200201355f1c611923565b505b600101610e9e565b505f5b600381108015610f1a57508281105b15610fa557838382818110610f3157610f31611e70565b9050602002810190610f439190611fac565b159050610f93575f5160206120e85f395f51905f52848483818110610f6a57610f6a611e70565b9050602002810190610f7c9190611fac565b604051610f8a929190611fee565b60405180910390a15b80610f9d81611f81565b915050610f0b565b5050505050505050565b5f9182526007602090815260408084206001600160a01b0393909316845291905290205460ff1690565b5f815f03610fe857505f919050565b60025463ffffffff16805b63ffffffff81165f908152600160205260409020548403611018575060019392505050565b8063ffffffff165f03611029575060645b8061103381612009565b9150508163ffffffff168163ffffffff1603610ff357505f9392505050565b600c5461105e8161181a565b6040516323b872dd60e01b8152336004820152306024820152604481018990525f906001600160a01b038b16906323b872dd906064016020604051808303815f875af11580156110b0573d5f5f3e3d5ffd5b505050506040513d601f19601f820116820180604052508101906110d49190611f1d565b9050806111235760405162461bcd60e51b815260206004820152601a60248201527f6661696c656420746f207472616e73666572206465706f7369740000000000006044820152606401610701565b600854604051633a94343960e21b81525f916001600160a01b03169063ea50d0e490611159908c908c908c908c90600401611ed3565b6020604051808303815f875af1158015611175573d5f5f3e3d5ffd5b505050506040513d601f19601f820116820180604052508101906111999190611f1d565b9050806111b85760405162461bcd60e51b815260040161070190612027565b868660018181106111cb576111cb611e70565b905060200201355f1c6001600160a01b03168b6001600160a01b03161461122d5760405162461bcd60e51b815260206004820152601660248201527508aa486646040c2c8c8e4cae6e640dad2e6dac2e8c6d60531b6044820152606401610701565b8686600281811061124057611240611e70565b905060200201355f1c6001600160401b03168a1461129b5760405162461bcd60e51b81526020600482015260186024820152771059191c995cdcc8185b5bdd5b9d081a5b98dbdc9c9958dd60421b6044820152606401610701565b6112b087875f818110610ef057610ef0611e70565b505f5b6003811080156112c257508481105b1561134d578585828181106112d9576112d9611e70565b90506020028101906112eb9190611fac565b15905061133b575f5160206120e85f395f51905f5286868381811061131257611312611e70565b90506020028101906113249190611fac565b604051611332929190611fee565b60405180910390a15b8061134581611f81565b9150506112b3565b505050505050505050505050565b600c546113678161181a565b600854604051633a94343960e21b81525f916001600160a01b03169063ea50d0e49061139d908b908b908b908b90600401611ed3565b6020604051808303815f875af11580156113b9573d5f5f3e3d5ffd5b505050506040513d601f19601f820116820180604052508101906113dd9190611f1d565b9050806113fc5760405162461bcd60e51b815260040161070190612027565b8585600181811061140f5761140f611e70565b905060200201355f1c6001600160a01b03167f00000000000000000000000000000000000000000000000000000000000000006001600160a01b03161461148b5760405162461bcd60e51b815260206004820152601060248201526f082c8c8e4cae6e640dad2e6dac2e8c6d60831b6044820152606401610701565b8585600281811061149e5761149e611e70565b905060200201355f1c6001600160401b031634146114f15760405162461bcd60e51b815260206004820152601060248201526f105b5bdd5b9d081a5b98dbdc9c9958dd60821b6044820152606401610701565b61150686865f818110610ef057610ef0611e70565b505f5b60038110801561151857508381105b156115a35784848281811061152f5761152f611e70565b90506020028101906115419190611fac565b159050611591575f5160206120e85f395f51905f5285858381811061156857611568611e70565b905060200281019061157a9190611fac565b604051611588929190611fee565b60405180910390a15b8061159b81611f81565b915050611509565b505050505050505050565b5f828152600760205260409020600101546115c88161181a565b6105f283836118b8565b5f815f0361160157507f1e2856f9f722631c878a92dc1d84283d04b76df3e1831492bdf7098c1e65e478919050565b8160010361163057507f2c2eecb1b14035bfd9765e84195684b401a84fdb58c3c03f1bcea86dcf0c8105919050565b8160020361165f57507f237e412a71db31e5769f63d92346a09dd0f30b9c335e9d9aa96b6625eb537445919050565b8160030361168e57507f0b3ff120d61a7de2da3d80ff99d393796805c74be5c39e8a4c7436d1c65dad4c919050565b816004036116bd57507f0fc58e21665302678bef68714d9e5889583071f7bd3cf018b64fafc51b0a9cf3919050565b816005036116ec57507f235df7c585524ed8a26aea20a0fb168038f10df71d84720c9a8c1b3e78e3b6cd919050565b8160060361171b57507f1c6cabee394ea24dc09eab1788f7f62b367e95789f883e33690d94215d819264919050565b8160070361174a57507f09bec327ab2c8dda5d2d435cd267cb21e71f21371a01739885817eb1625d8976919050565b8160080361177957507f2d35519ad7061578be50cbbfe040327843f6b4cdf1458e01b5f9737dbaf82b18919050565b816009036117a857507f0f86c9e9c9e689394a4944bb87291a3f55cc930b21432fccf41b8267f1a98d6f919050565b81600a036117d757507f181c9ba70900093b180c96f55cc2b1d73d60b8ab613344cbba83b33cbcc94e2b919050565b60405162461bcd60e51b8152602060048201526013602482015272496e646578206f7574206f6620626f756e647360681b6044820152606401610701565b919050565b6118248133611b09565b50565b5f6118328383610faf565b6118b1575f8381526007602090815260408083206001600160a01b03861684529091529020805460ff191660011790556118693390565b6001600160a01b0316826001600160a01b0316847f2f8788117e7eff1d82e926ec794901d17c78024a50270940304540a733656f0d60405160405180910390a45060016105c8565b505f6105c8565b5f6118c38383610faf565b156118b1575f8381526007602090815260408083206001600160a01b0386168085529252808320805460ff1916905551339286917ff6391f5c32d9c69d2a47ea670b442974b53935d1edc7fd64eb21e047a839171b9190a45060016105c8565b6003546004545f919081036119665760405162461bcd60e51b8152602060048201526009602482015268151c995948119d5b1b60ba1b6044820152606401610701565b5f818152602081905260408120849055819084905b6119a660017f0000000000000000000000000000000000000000000000000000000000000000612057565b811015611a73575f6119b960028561207e565b1590505f816119d2576119cd600186612057565b6119dd565b6119dd856001611f99565b602084811b82175f8181529182905260408220549293509190819003611a0957611a06856115d2565b90505b8315611a2057611a198682610630565b9550611a2d565b611a2a8187610630565b95505b611a38600288612091565b9650855f80611a53611a4b896001611f99565b60201b8b1790565b815260208101919091526040015f205550506001909201915061197b9050565b506002545f90606490611a8d9063ffffffff1660016120a4565b611a9791906120c0565b6002805463ffffffff191663ffffffff83169081179091555f908152600160208190526040909120849055909150611ad0908590611f99565b600355604051869085907f9a40fd7d16dbc76bf1972bae17064a13dea280d9723bc57a2a89a516d45757f5905f90a35091949350505050565b611b138282610faf565b611b425760405163e2517d3f60e01b81526001600160a01b038216600482015260248101839052604401610701565b5050565b5f60208284031215611b56575f5ffd5b81356001600160e01b031981168114611b6d575f5ffd5b9392505050565b5f60208284031215611b84575f5ffd5b5035919050565b80356001600160a01b0381168114611815575f5ffd5b5f5f60408385031215611bb2575f5ffd5b82359150611bc260208401611b8b565b90509250929050565b5f5f60408385031215611bdc575f5ffd5b50508035926020909101359150565b5f60208284031215611bfb575f5ffd5b611b6d82611b8b565b5f5f83601f840112611c14575f5ffd5b5081356001600160401b03811115611c2a575f5ffd5b602083019150836020828501011115611c41575f5ffd5b9250929050565b5f5f83601f840112611c58575f5ffd5b5081356001600160401b03811115611c6e575f5ffd5b6020830191508360208260051b8501011115611c41575f5ffd5b5f5f5f5f60408587031215611c9b575f5ffd5b84356001600160401b03811115611cb0575f5ffd5b611cbc87828801611c04565b90955093505060208501356001600160401b03811115611cda575f5ffd5b611ce687828801611c48565b95989497509550505050565b5f5f5f5f5f5f60608789031215611d07575f5ffd5b86356001600160401b03811115611d1c575f5ffd5b611d2889828a01611c04565b90975095505060208701356001600160401b03811115611d46575f5ffd5b611d5289828a01611c48565b90955093505060408701356001600160401b03811115611d70575f5ffd5b611d7c89828a01611c48565b979a9699509497509295939492505050565b5f5f5f5f5f5f5f5f60a0898b031215611da5575f5ffd5b611dae89611b8b565b97506020890135965060408901356001600160401b03811115611dcf575f5ffd5b611ddb8b828c01611c04565b90975095505060608901356001600160401b03811115611df9575f5ffd5b611e058b828c01611c48565b90955093505060808901356001600160401b03811115611e23575f5ffd5b611e2f8b828c01611c48565b999c989b5096995094979396929594505050565b5f82518060208501845e5f920191825250919050565b5f60208284031215611e69575f5ffd5b5051919050565b634e487b7160e01b5f52603260045260245ffd5b6020808252600d908201526c496e76616c696420526f6f742160981b604082015260600190565b81835281816020850137505f828201602090810191909152601f909101601f19169091010190565b604081525f611ee6604083018688611eab565b82810360208401528381526001600160fb1b03841115611f04575f5ffd5b8360051b80866020840137016020019695505050505050565b5f60208284031215611f2d575f5ffd5b81518015158114611b6d575f5ffd5b602080825260179082015276139d5b1b1a599a595c88185b1c9958591e481cdc195b9d604a1b604082015260600190565b634e487b7160e01b5f52601160045260245ffd5b5f60018201611f9257611f92611f6d565b5060010190565b808201808211156105c8576105c8611f6d565b5f5f8335601e19843603018112611fc1575f5ffd5b8301803591506001600160401b03821115611fda575f5ffd5b602001915036819003821315611c41575f5ffd5b602081525f612001602083018486611eab565b949350505050565b5f63ffffffff82168061201e5761201e611f6d565b5f190192915050565b602080825260169082015275496e76616c6964206465706f7369742070726f6f662160501b604082015260600190565b818103818111156105c8576105c8611f6d565b634e487b7160e01b5f52601260045260245ffd5b5f8261208c5761208c61206a565b500690565b5f8261209f5761209f61206a565b500490565b63ffffffff81811683821601908111156105c8576105c8611f6d565b5f63ffffffff8316806120d5576120d561206a565b8063ffffffff8416069150509291505056fe1350ba861189904691f5a79791c8b0eb3c5ea51a8954ae413a167e05c66ca1e0a2646970667358221220a4998556764d5c4f830fafddfdf50c04722c2bbb0df2ad289fbb6ea965d452c264736f6c634300081c0033",
  "linkReferences": {},
  "deployedLinkReferences": {},
  "immutableReferences": {
    "576": [
      {
        "length": 32,
        "start": 1077
      },
      {
        "length": 32,
        "start": 2713
      },
      {
        "length": 32,
        "start": 5155
      }
    ],
    "1220": [
      {
        "length": 32,
        "start": 519
      },
      {
        "length": 32,
        "start": 6530
      }
    ]
  },
  "inputSourceName": "project/contracts/CommBankDotEth.sol",
  "buildInfoId": "solc-0_8_28-853e58c6ed35404eae7c12a4cee1b178d3c9ab30"
}