{
  "_format": "hh3-artifact-1",
  "contractName": "CommBankDotEth",
  "sourceName": "contracts/CommBankDotEth.sol",
  "abi": [
    {
      "inputs": [
        {
          "internalType": "address",
          "name": "_noteVerifier",
          "type": "address"
        },
        {
          "internalType": "address",
          "name": "_transactVerifier",
          "type": "address"
        },
        {
          "internalType": "address",
          "name": "_withdrawalVerifier",
          "type": "address"
        }
      ],
      "stateMutability": "nonpayable",
      "type": "constructor"
    },
    {
      "inputs": [],
      "name": "AccessControlBadConfirmation",
      "type": "error"
    },
    {
      "inputs": [
        {
          "internalType": "address",
          "name": "account",
          "type": "address"
        },
        {
          "internalType": "bytes32",
          "name": "neededRole",
          "type": "bytes32"
        }
      ],
      "name": "AccessControlUnauthorizedAccount",
      "type": "error"
    },
    {
      "anonymous": false,
      "inputs": [
        {
          "indexed": true,
          "internalType": "uint256",
          "name": "leafIndex",
          "type": "uint256"
        },
        {
          "indexed": true,
          "internalType": "uint256",
          "name": "leafValue",
          "type": "uint256"
        }
      ],
      "name": "LeafInserted",
      "type": "event"
    },
    {
      "anonymous": false,
      "inputs": [
        {
          "indexed": false,
          "internalType": "bytes",
          "name": "encryptedNote",
          "type": "bytes"
        }
      ],
      "name": "NotePayload",
      "type": "event"
    },
    {
      "anonymous": false,
      "inputs": [
        {
          "indexed": true,
          "internalType": "uint256",
          "name": "nullifier",
          "type": "uint256"
        }
      ],
      "name": "NullifierUsed",
      "type": "event"
    },
    {
      "anonymous": false,
      "inputs": [
        {
          "indexed": true,
          "internalType": "bytes32",
          "name": "role",
          "type": "bytes32"
        },
        {
          "indexed": true,
          "internalType": "bytes32",
          "name": "previousAdminRole",
          "type": "bytes32"
        },
        {
          "indexed": true,
          "internalType": "bytes32",
          "name": "newAdminRole",
          "type": "bytes32"
        }
      ],
      "name": "RoleAdminChanged",
      "type": "event"
    },
    {
      "anonymous": false,
      "inputs": [
        {
          "indexed": true,
          "internalType": "bytes32",
          "name": "role",
          "type": "bytes32"
        },
        {
          "indexed": true,
          "internalType": "address",
          "name": "account",
          "type": "address"
        },
        {
          "indexed": true,
          "internalType": "address",
          "name": "sender",
          "type": "address"
        }
      ],
      "name": "RoleGranted",
      "type": "event"
    },
    {
      "anonymous": false,
      "inputs": [
        {
          "indexed": true,
          "internalType": "bytes32",
          "name": "role",
          "type": "bytes32"
        },
        {
          "indexed": true,
          "internalType": "address",
          "name": "account",
          "type": "address"
        },
        {
          "indexed": true,
          "internalType": "address",
          "name": "sender",
          "type": "address"
        }
      ],
      "name": "RoleRevoked",
      "type": "event"
    },
    {
      "inputs": [],
      "name": "DEFAULT_ADMIN_ROLE",
      "outputs": [
        {
          "internalType": "bytes32",
          "name": "",
          "type": "bytes32"
        }
      ],
      "stateMutability": "view",
      "type": "function"
    },
    {
      "inputs": [],
      "name": "DEPOSIT_ROLE",
      "outputs": [
        {
          "internalType": "bytes32",
          "name": "",
          "type": "bytes32"
        }
      ],
      "stateMutability": "view",
      "type": "function"
    },
    {
      "inputs": [],
      "name": "INITIAL_ROOT",
      "outputs": [
        {
          "internalType": "uint256",
          "name": "",
          "type": "uint256"
        }
      ],
      "stateMutability": "view",
      "type": "function"
    },
    {
      "inputs": [],
      "name": "MAX_LEAF_INDEX",
      "outputs": [
        {
          "internalType": "uint256",
          "name": "",
          "type": "uint256"
        }
      ],
      "stateMutability": "view",
      "type": "function"
    },
    {
      "inputs": [],
      "name": "PRIME",
      "outputs": [
        {
          "internalType": "uint256",
          "name": "",
          "type": "uint256"
        }
      ],
      "stateMutability": "view",
      "type": "function"
    },
    {
      "inputs": [],
      "name": "ROOT_HISTORY_SIZE",
      "outputs": [
        {
          "internalType": "uint32",
          "name": "",
          "type": "uint32"
        }
      ],
      "stateMutability": "view",
      "type": "function"
    },
    {
      "inputs": [],
      "name": "currentRootIndex",
      "outputs": [
        {
          "internalType": "uint32",
          "name": "",
          "type": "uint32"
        }
      ],
      "stateMutability": "view",
      "type": "function"
    },
    {
      "inputs": [
        {
          "internalType": "address",
          "name": "_erc20",
          "type": "address"
        },
        {
          "internalType": "uint64",
          "name": "_amount",
          "type": "uint64"
        },
        {
          "internalType": "bytes",
          "name": "_proof",
          "type": "bytes"
        },
        {
          "internalType": "bytes32[]",
          "name": "_publicInputs",
          "type": "bytes32[]"
        },
        {
          "internalType": "bytes[]",
          "name": "_payload",
          "type": "bytes[]"
        }
      ],
      "name": "deposit",
      "outputs": [],
      "stateMutability": "nonpayable",
      "type": "function"
    },
    {
      "inputs": [
        {
          "internalType": "uint256",
          "name": "",
          "type": "uint256"
        }
      ],
      "name": "filledSubtrees",
      "outputs": [
        {
          "internalType": "uint256",
          "name": "",
          "type": "uint256"
        }
      ],
      "stateMutability": "view",
      "type": "function"
    },
    {
      "inputs": [
        {
          "internalType": "bytes32",
          "name": "role",
          "type": "bytes32"
        }
      ],
      "name": "getRoleAdmin",
      "outputs": [
        {
          "internalType": "bytes32",
          "name": "",
          "type": "bytes32"
        }
      ],
      "stateMutability": "view",
      "type": "function"
    },
    {
      "inputs": [
        {
          "internalType": "bytes32",
          "name": "role",
          "type": "bytes32"
        },
        {
          "internalType": "address",
          "name": "account",
          "type": "address"
        }
      ],
      "name": "grantRole",
      "outputs": [],
      "stateMutability": "nonpayable",
      "type": "function"
    },
    {
      "inputs": [
        {
          "internalType": "bytes32",
          "name": "role",
          "type": "bytes32"
        },
        {
          "internalType": "address",
          "name": "account",
          "type": "address"
        }
      ],
      "name": "hasRole",
      "outputs": [
        {
          "internalType": "bool",
          "name": "",
          "type": "bool"
        }
      ],
      "stateMutability": "view",
      "type": "function"
    },
    {
      "inputs": [
        {
          "internalType": "uint256",
          "name": "_left",
          "type": "uint256"
        },
        {
          "internalType": "uint256",
          "name": "_right",
          "type": "uint256"
        }
      ],
      "name": "hashLeftRight",
      "outputs": [
        {
          "internalType": "uint256",
          "name": "",
          "type": "uint256"
        }
      ],
      "stateMutability": "view",
      "type": "function"
    },
    {
      "inputs": [],
      "name": "height",
      "outputs": [
        {
          "internalType": "uint256",
          "name": "",
          "type": "uint256"
        }
      ],
      "stateMutability": "view",
      "type": "function"
    },
    {
      "inputs": [
        {
          "internalType": "uint256",
          "name": "_root",
          "type": "uint256"
        }
      ],
      "name": "isKnownRoot",
      "outputs": [
        {
          "internalType": "bool",
          "name": "",
          "type": "bool"
        }
      ],
      "stateMutability": "view",
      "type": "function"
    },
    {
      "inputs": [],
      "name": "nextIndex",
      "outputs": [
        {
          "internalType": "uint256",
          "name": "",
          "type": "uint256"
        }
      ],
      "stateMutability": "view",
      "type": "function"
    },
    {
      "inputs": [
        {
          "internalType": "bytes32",
          "name": "",
          "type": "bytes32"
        }
      ],
      "name": "nullifierUsed",
      "outputs": [
        {
          "internalType": "bool",
          "name": "",
          "type": "bool"
        }
      ],
      "stateMutability": "view",
      "type": "function"
    },
    {
      "inputs": [],
      "name": "poseidon2Hasher",
      "outputs": [
        {
          "internalType": "address",
          "name": "",
          "type": "address"
        }
      ],
      "stateMutability": "view",
      "type": "function"
    },
    {
      "inputs": [
        {
          "internalType": "bytes32",
          "name": "role",
          "type": "bytes32"
        },
        {
          "internalType": "address",
          "name": "callerConfirmation",
          "type": "address"
        }
      ],
      "name": "renounceRole",
      "outputs": [],
      "stateMutability": "nonpayable",
      "type": "function"
    },
    {
      "inputs": [
        {
          "internalType": "bytes32",
          "name": "role",
          "type": "bytes32"
        },
        {
          "internalType": "address",
          "name": "account",
          "type": "address"
        }
      ],
      "name": "revokeRole",
      "outputs": [],
      "stateMutability": "nonpayable",
      "type": "function"
    },
    {
      "inputs": [
        {
          "internalType": "uint256",
          "name": "",
          "type": "uint256"
        }
      ],
      "name": "roots",
      "outputs": [
        {
          "internalType": "uint256",
          "name": "",
          "type": "uint256"
        }
      ],
      "stateMutability": "view",
      "type": "function"
    },
    {
      "inputs": [
        {
          "internalType": "bytes4",
          "name": "interfaceId",
          "type": "bytes4"
        }
      ],
      "name": "supportsInterface",
      "outputs": [
        {
          "internalType": "bool",
          "name": "",
          "type": "bool"
        }
      ],
      "stateMutability": "view",
      "type": "function"
    },
    {
      "inputs": [
        {
          "internalType": "bytes",
          "name": "_proof",
          "type": "bytes"
        },
        {
          "internalType": "bytes32[]",
          "name": "_publicInputs",
          "type": "bytes32[]"
        },
        {
          "internalType": "bytes[]",
          "name": "_payload",
          "type": "bytes[]"
        }
      ],
      "name": "transfer",
      "outputs": [],
      "stateMutability": "nonpayable",
      "type": "function"
    },
    {
      "inputs": [
        {
          "internalType": "bytes",
          "name": "_proof",
          "type": "bytes"
        },
        {
          "internalType": "bytes32[]",
          "name": "_publicInputs",
          "type": "bytes32[]"
        }
      ],
      "name": "withdraw",
      "outputs": [],
      "stateMutability": "nonpayable",
      "type": "function"
    },
    {
      "inputs": [
        {
          "internalType": "uint256",
          "name": "i",
          "type": "uint256"
        }
      ],
      "name": "zeros",
      "outputs": [
        {
          "internalType": "uint256",
          "name": "",
          "type": "uint256"
        }
      ],
      "stateMutability": "pure",
      "type": "function"
    }
  ],
  "bytecode": "0x60c06040526002805463ffffffff191690555f6003557f2561bf26f818282a3be40719542054d2173eb0d38539e8a8d3cff22f29fd2384600a55348015610044575f5ffd5b506040516164bd3803806164bd8339810160408190526100639161022e565b600c6080819052610075600182610282565b610080906002610378565b60045560405161008f90610206565b604051809103905ff0801580156100a8573d5f5f3e3d5ffd5b506001600160a01b0390811660a0525f80805260016020527f124005ad54174bbcb8c2dd053ea318daa80106cdcc518731504b771d6006123f7fa6eef7e35abe7026729641147f7915573c7e97b47efa546f5f6e3230263bcb4955600680546001600160a01b0319908116888516179091556007805482168785161790556008805490911692851692909217909155610142915033610159565b50600a546101509033610159565b5050505061038a565b5f8281526005602090815260408083206001600160a01b038516845290915281205460ff166101fd575f8381526005602090815260408083206001600160a01b03861684529091529020805460ff191660011790556101b53390565b6001600160a01b0316826001600160a01b0316847f2f8788117e7eff1d82e926ec794901d17c78024a50270940304540a733656f0d60405160405180910390a4506001610200565b505f5b92915050565b61452280611f9b83390190565b80516001600160a01b0381168114610229575f5ffd5b919050565b5f5f5f60608486031215610240575f5ffd5b61024984610213565b925061025760208501610213565b915061026560408501610213565b90509250925092565b634e487b7160e01b5f52601160045260245ffd5b818103818111156102005761020061026e565b6001815b60018411156102d0578085048111156102b4576102b461026e565b60018416156102c257908102905b60019390931c928002610299565b935093915050565b5f826102e657506001610200565b816102f257505f610200565b816001811461030857600281146103125761032e565b6001915050610200565b60ff8411156103235761032361026e565b50506001821b610200565b5060208310610133831016604e8410600b8410161715610351575081810a610200565b61035d5f198484610295565b805f19048211156103705761037061026e565b029392505050565b5f61038383836102d8565b9392505050565b60805160a051611be26103b95f395f81816101ff015261081901525f81816101c3015261135d0152611be25ff3fe608060405234801561000f575f5ffd5b506004361061015d575f3560e01c806380fc7498116100ca578063b42147cd11610084578063b42147cd14610340578063c2b40ae414610367578063cd87a3b414610386578063d547741f1461038e578063e8295588146103a1578063f178e47c146103b4578063fc7e9c6f146103d3575f5ffd5b806380fc7498146102d257806384746900146102db57806390eeb02b146102ee57806391d1485414610313578063a217fddf14610326578063a6232a931461032d575f5ffd5b80632f2ff15d1161011b5780632f2ff15d1461025b578063353efdcf1461026e57806336568abe146102775780635bb939951461028a57806367843a5b1461029d5780637ecf686d146102b0575f5ffd5b806217cd8b1461016157806301ffc9a71461019b5780630ef26743146101be57806313425efa146101e55780631a702a24146101fa578063248a9ca314610239575b5f5ffd5b6101887f30644e72e131a029b85045b68181585d2833e84879b9709143e1f593f000000181565b6040519081526020015b60405180910390f35b6101ae6101a9366004611640565b6103dc565b6040519015158152602001610192565b6101887f000000000000000000000000000000000000000000000000000000000000000081565b6101f86101f3366004611708565b610412565b005b6102217f000000000000000000000000000000000000000000000000000000000000000081565b6040516001600160a01b039091168152602001610192565b6101886102473660046117d1565b5f9081526005602052604090206001015490565b6101f86102693660046117e8565b610784565b610188600a5481565b6101f86102853660046117e8565b6107ae565b610188610298366004611812565b6107e6565b6101f86102ab366004611832565b6108f4565b6101ae6102be3660046117d1565b60096020525f908152604090205460ff1681565b61018860045481565b6101f86102e936600461189c565b610c70565b6002546102fe9063ffffffff1681565b60405163ffffffff9091168152602001610192565b6101ae6103213660046117e8565b610f9a565b6101885f81565b6101ae61033b3660046117d1565b610fc4565b6101887f124005ad54174bbcb8c2dd053ea318daa80106cdcc518731504b771d6006123f81565b6101886103753660046117d1565b60016020525f908152604090205481565b6102fe606481565b6101f861039c3660046117e8565b61103d565b6101886103af3660046117d1565b611061565b6101886103c23660046117d1565b5f6020819052908152604090205481565b61018860035481565b5f6001600160e01b03198216637965db0b60e01b148061040c57506301ffc9a760e01b6001600160e01b03198316145b92915050565b600a5461041e816112a9565b610427896112b6565b6040516323b872dd60e01b81523360048201523060248201526001600160401b03891660448201525f906001600160a01b038b16906323b872dd906064016020604051808303815f875af1158015610481573d5f5f3e3d5ffd5b505050506040513d601f19601f820116820180604052508101906104a59190611938565b9050806104f95760405162461bcd60e51b815260206004820152601a60248201527f6661696c656420746f207472616e73666572206465706f73697400000000000060448201526064015b60405180910390fd5b600654604051633a94343960e21b81525f916001600160a01b03169063ea50d0e49061052f908c908c908c908c9060040161197f565b6020604051808303815f875af115801561054b573d5f5f3e3d5ffd5b505050506040513d601f19601f8201168201806040525081019061056f9190611938565b9050806105b75760405162461bcd60e51b8152602060048201526016602482015275496e76616c6964206465706f7369742070726f6f662160501b60448201526064016104f0565b868660018181106105ca576105ca6119c9565b905060200201355f1c6001600160a01b03168b6001600160a01b03161461062c5760405162461bcd60e51b815260206004820152601660248201527508aa486646040c2c8c8e4cae6e640dad2e6dac2e8c6d60531b60448201526064016104f0565b8686600281811061063f5761063f6119c9565b905060200201355f1c6001600160401b03168a6001600160401b0316146106a35760405162461bcd60e51b81526020600482015260186024820152771059191c995cdcc8185b5bdd5b9d081a5b98dbdc9c9958dd60421b60448201526064016104f0565b6106c687875f8181106106b8576106b86119c9565b905060200201355f1c6112fe565b505f5b6003811080156106d857508481105b15610776578585828181106106ef576106ef6119c9565b905060200281019061070191906119dd565b159050610764577f1350ba861189904691f5a79791c8b0eb3c5ea51a8954ae413a167e05c66ca1e086868381811061073b5761073b6119c9565b905060200281019061074d91906119dd565b60405161075b929190611a1f565b60405180910390a15b8061076e81611a4e565b9150506106c9565b505050505050505050505050565b5f8281526005602052604090206001015461079e816112a9565b6107a883836114e4565b50505050565b6001600160a01b03811633146107d75760405163334bd91960e11b815260040160405180910390fd5b6107e18282611575565b505050565b5f5f8383604051602001610804929190918252602082015260400190565b60405160208183030381529060405290505f5f7f00000000000000000000000000000000000000000000000000000000000000006001600160a01b03168360405161084f9190611a66565b5f60405180830381855afa9150503d805f8114610887576040519150601f19603f3d011682016040523d82523d5f602084013e61088c565b606091505b5091509150816108d65760405162461bcd60e51b8152602060048201526015602482015274141bdcd95a591bdb8c881a185cda0819985a5b1959605a1b60448201526064016104f0565b808060200190518101906108ea9190611a7c565b9695505050505050565b61091782825f818110610909576109096119c9565b905060200201355f1c610fc4565b6109335760405162461bcd60e51b81526004016104f090611a93565b600854604051633a94343960e21b81525f916001600160a01b03169063ea50d0e49061096990889088908890889060040161197f565b6020604051808303815f875af1158015610985573d5f5f3e3d5ffd5b505050506040513d601f19601f820116820180604052508101906109a99190611938565b9050806109f15760405162461bcd60e51b815260206004820152601660248201527524b73b30b634b2103bb4ba34323930bb90383937b7b360511b60448201526064016104f0565b60015b60038111610b04575f848483818110610a0f57610a0f6119c9565b9050602002013514610af25760095f858584818110610a3057610a306119c9565b602090810292909201358352508101919091526040015f205460ff1615610a695760405162461bcd60e51b81526004016104f090611aba565b600160095f868685818110610a8057610a806119c9565b9050602002013581526020019081526020015f205f6101000a81548160ff021916908315150217905550838382818110610abc57610abc6119c9565b905060200201355f1c7f49dad0e89c31a259d3e177fa5c4bb23dfb7bfbc2afce873328262a97dd39277860405160405180910390a25b80610afc81611a4e565b9150506109f4565b505f5b6003811015610c68575f610b1c826004611aeb565b90505f610b2a836007611aeb565b90505f610b3884600a611aeb565b90505f878785818110610b4d57610b4d6119c9565b905060200201355f1c90505f888885818110610b6b57610b6b6119c9565b905060200201355f1c90505f898985818110610b8957610b896119c9565b60200291909101359150508115610c565760405163a9059cbb60e01b81526001600160a01b038281166004830152602482018490525f919085169063a9059cbb906044016020604051808303815f875af1158015610be9573d5f5f3e3d5ffd5b505050506040513d601f19601f82011682018060405250810190610c0d9190611938565b905080610c545760405162461bcd60e51b8152602060048201526015602482015274151bdad95b881d1c985b9cd9995c8819985a5b1959605a1b60448201526064016104f0565b505b505060019094019350610b0792505050565b505050505050565b610c8584845f818110610909576109096119c9565b610ca15760405162461bcd60e51b81526004016104f090611a93565b600754604051633a94343960e21b81525f916001600160a01b03169063ea50d0e490610cd7908a908a908a908a9060040161197f565b6020604051808303815f875af1158015610cf3573d5f5f3e3d5ffd5b505050506040513d601f19601f82011682018060405250810190610d179190611938565b905080610d5f5760405162461bcd60e51b815260206004820152601660248201527524b73b30b634b2103a3930b739b332b910383937b7b360511b60448201526064016104f0565b60015b610d6e60036001611aeb565b811015610e73575f868683818110610d8857610d886119c9565b9050602002013514610e6b5760095f878784818110610da957610da96119c9565b602090810292909201358352508101919091526040015f205460ff1615610de25760405162461bcd60e51b81526004016104f090611aba565b600160095f888885818110610df957610df96119c9565b9050602002013581526020019081526020015f205f6101000a81548160ff021916908315150217905550858582818110610e3557610e356119c9565b905060200201355f1c7f49dad0e89c31a259d3e177fa5c4bb23dfb7bfbc2afce873328262a97dd39277860405160405180910390a25b600101610d62565b505f610e8160036001611aeb565b90505b6003610e91816001611aeb565b610e9b9190611aeb565b811015610ee0575f868683818110610eb557610eb56119c9565b9050602002013514610ed857610ed68686838181106106b8576106b86119c9565b505b600101610e84565b505f5b600381108015610ef257508281105b15610f9057838382818110610f0957610f096119c9565b9050602002810190610f1b91906119dd565b159050610f7e577f1350ba861189904691f5a79791c8b0eb3c5ea51a8954ae413a167e05c66ca1e0848483818110610f5557610f556119c9565b9050602002810190610f6791906119dd565b604051610f75929190611a1f565b60405180910390a15b80610f8881611a4e565b915050610ee3565b5050505050505050565b5f9182526005602090815260408084206001600160a01b0393909316845291905290205460ff1690565b5f815f03610fd357505f919050565b60025463ffffffff16805b63ffffffff81165f908152600160205260409020548403611003575060019392505050565b8063ffffffff165f03611014575060645b8061101e81611afe565b9150508163ffffffff168163ffffffff1603610fde57505f9392505050565b5f82815260056020526040902060010154611057816112a9565b6107a88383611575565b5f815f0361109057507f1e2856f9f722631c878a92dc1d84283d04b76df3e1831492bdf7098c1e65e478919050565b816001036110bf57507f2c2eecb1b14035bfd9765e84195684b401a84fdb58c3c03f1bcea86dcf0c8105919050565b816002036110ee57507f237e412a71db31e5769f63d92346a09dd0f30b9c335e9d9aa96b6625eb537445919050565b8160030361111d57507f0b3ff120d61a7de2da3d80ff99d393796805c74be5c39e8a4c7436d1c65dad4c919050565b8160040361114c57507f0fc58e21665302678bef68714d9e5889583071f7bd3cf018b64fafc51b0a9cf3919050565b8160050361117b57507f235df7c585524ed8a26aea20a0fb168038f10df71d84720c9a8c1b3e78e3b6cd919050565b816006036111aa57507f1c6cabee394ea24dc09eab1788f7f62b367e95789f883e33690d94215d819264919050565b816007036111d957507f09bec327ab2c8dda5d2d435cd267cb21e71f21371a01739885817eb1625d8976919050565b8160080361120857507f2d35519ad7061578be50cbbfe040327843f6b4cdf1458e01b5f9737dbaf82b18919050565b8160090361123757507f0f86c9e9c9e689394a4944bb87291a3f55cc930b21432fccf41b8267f1a98d6f919050565b81600a0361126657507f181c9ba70900093b180c96f55cc2b1d73d60b8ab613344cbba83b33cbcc94e2b919050565b60405162461bcd60e51b8152602060048201526013602482015272496e646578206f7574206f6620626f756e647360681b60448201526064016104f0565b919050565b6112b381336115e0565b50565b6040516001600160a01b03821660248201526112b39060440160408051601f198184030181529190526020810180516001600160e01b031663161765e160e11b17905261161d565b6003546004545f919081036113415760405162461bcd60e51b8152602060048201526009602482015268151c995948119d5b1b60ba1b60448201526064016104f0565b5f818152602081905260408120849055819084905b61138160017f0000000000000000000000000000000000000000000000000000000000000000611b1c565b81101561144e575f611394600285611b43565b1590505f816113ad576113a8600186611b1c565b6113b8565b6113b8856001611aeb565b602084811b82175f81815291829052604082205492935091908190036113e4576113e185611061565b90505b83156113fb576113f486826107e6565b9550611408565b61140581876107e6565b95505b611413600288611b56565b9650855f8061142e611426896001611aeb565b60201b8b1790565b815260208101919091526040015f20555050600190920191506113569050565b506002545f906064906114689063ffffffff166001611b69565b6114729190611b85565b6002805463ffffffff191663ffffffff83169081179091555f9081526001602081905260409091208490559091506114ab908590611aeb565b600355604051869085907f604f5a492f8c1622a2e239876074a13b33ec11384fe2b310339ece35e8eecac7905f90a35091949350505050565b5f6114ef8383610f9a565b61156e575f8381526005602090815260408083206001600160a01b03861684529091529020805460ff191660011790556115263390565b6001600160a01b0316826001600160a01b0316847f2f8788117e7eff1d82e926ec794901d17c78024a50270940304540a733656f0d60405160405180910390a450600161040c565b505f61040c565b5f6115808383610f9a565b1561156e575f8381526005602090815260408083206001600160a01b0386168085529252808320805460ff1916905551339286917ff6391f5c32d9c69d2a47ea670b442974b53935d1edc7fd64eb21e047a839171b9190a450600161040c565b6115ea8282610f9a565b6116195760405163e2517d3f60e01b81526001600160a01b0382166004820152602481018390526044016104f0565b5050565b6112b3815f6a636f6e736f6c652e6c6f6790505f5f835160208501845afa505050565b5f60208284031215611650575f5ffd5b81356001600160e01b031981168114611667575f5ffd5b9392505050565b80356001600160a01b03811681146112a4575f5ffd5b5f5f83601f840112611694575f5ffd5b5081356001600160401b038111156116aa575f5ffd5b6020830191508360208285010111156116c1575f5ffd5b9250929050565b5f5f83601f8401126116d8575f5ffd5b5081356001600160401b038111156116ee575f5ffd5b6020830191508360208260051b85010111156116c1575f5ffd5b5f5f5f5f5f5f5f5f60a0898b03121561171f575f5ffd5b6117288961166e565b975060208901356001600160401b0381168114611743575f5ffd5b965060408901356001600160401b0381111561175d575f5ffd5b6117698b828c01611684565b90975095505060608901356001600160401b03811115611787575f5ffd5b6117938b828c016116c8565b90955093505060808901356001600160401b038111156117b1575f5ffd5b6117bd8b828c016116c8565b999c989b5096995094979396929594505050565b5f602082840312156117e1575f5ffd5b5035919050565b5f5f604083850312156117f9575f5ffd5b823591506118096020840161166e565b90509250929050565b5f5f60408385031215611823575f5ffd5b50508035926020909101359150565b5f5f5f5f60408587031215611845575f5ffd5b84356001600160401b0381111561185a575f5ffd5b61186687828801611684565b90955093505060208501356001600160401b03811115611884575f5ffd5b611890878288016116c8565b95989497509550505050565b5f5f5f5f5f5f606087890312156118b1575f5ffd5b86356001600160401b038111156118c6575f5ffd5b6118d289828a01611684565b90975095505060208701356001600160401b038111156118f0575f5ffd5b6118fc89828a016116c8565b90955093505060408701356001600160401b0381111561191a575f5ffd5b61192689828a016116c8565b979a9699509497509295939492505050565b5f60208284031215611948575f5ffd5b81518015158114611667575f5ffd5b81835281816020850137505f828201602090810191909152601f909101601f19169091010190565b604081525f611992604083018688611957565b82810360208401528381526001600160fb1b038411156119b0575f5ffd5b8360051b80866020840137016020019695505050505050565b634e487b7160e01b5f52603260045260245ffd5b5f5f8335601e198436030181126119f2575f5ffd5b8301803591506001600160401b03821115611a0b575f5ffd5b6020019150368190038213156116c1575f5ffd5b602081525f611a32602083018486611957565b949350505050565b634e487b7160e01b5f52601160045260245ffd5b5f60018201611a5f57611a5f611a3a565b5060010190565b5f82518060208501845e5f920191825250919050565b5f60208284031215611a8c575f5ffd5b5051919050565b6020808252600d908201526c496e76616c696420526f6f742160981b604082015260600190565b602080825260179082015276139d5b1b1a599a595c88185b1c9958591e481cdc195b9d604a1b604082015260600190565b8082018082111561040c5761040c611a3a565b5f63ffffffff821680611b1357611b13611a3a565b5f190192915050565b8181038181111561040c5761040c611a3a565b634e487b7160e01b5f52601260045260245ffd5b5f82611b5157611b51611b2f565b500690565b5f82611b6457611b64611b2f565b500490565b63ffffffff818116838216019081111561040c5761040c611a3a565b5f63ffffffff831680611b9a57611b9a611b2f565b8063ffffffff8416069150509291505056fea26469706673582212201e460a4f1a27e902ee21871d0664a5ab3b5ac69ce00a51b4317880ceb14ec87764736f6c634300081c00336080604052348015600e575f5ffd5b506145068061001c5f395ff3fe608060405234801561000f575f5ffd5b506020355f35810167ffffffffffffffff1936603b1b16808001820192604035909101908001810191908001835f5160206144515f395f51905f5282800892800192019050825f5160206144515f395f51905f528380080191507f19b849f69450b06848da1d39bd5e4a4302bb86744edc26238b0878e269ed23e55f5160206144515f395f51905f528386080193507f265ddfe127dd51bd7239347b758f0a1320eb2cc7450acc1dad47f80c8dcf34d6820191507f199750ec472f1809e0f66a545e1e51624108ac845015c2aa3dfc36bab497d8aa5f5160206144515f395f51905f528285080192507f157ff3fe65ac7208110f06a5f74302b14d743ea25067f0ffd032f787c7f1cdf8015f5160206144515f395f51905f528480095f5160206144515f395f51905f528384095f5160206144515f395f51905f52845f5160206144515f395f51905f52838409099350505f5160206144515f395f51905f528485095f5160206144515f395f51905f528384095f5160206144515f395f51905f52845f5160206144515f395f51905f5283840909935050835f5160206144515f395f51905f52875f5160206144515f395f51905f5285860909019550825f5160206144515f395f51905f52865f5160206144515f395f51905f528485090901808001955093800190930192505080018301805f5160206144515f395f51905f5284800894800194019250815f5160206144515f395f51905f528580080193507f2e49c43c4569dd9c5fd35ac45fca33f10b15c590692f8beefe18f4896ac949025f5160206144515f395f51905f528583080190507f0e35fb89981890520d4aef2b6d6506c3cb2f0b6973c24fa82731345ffa2d1f1e840193507f251ad47cb15c4f1105f109ae5e944f1ba9d9e7806d667ffec6fe723002e0b9965f5160206144515f395f51905f528484080191507f13da07dc64d428369873e97160234641f8beb56fdd05e5f3563fa39d9c22df4e830192505f5160206144515f395f51905f528182095f5160206144515f395f51905f528586095f5160206144515f395f51905f52865f5160206144515f395f51905f52838409099550505f5160206144515f395f51905f528384095f5160206144515f395f51905f528586095f5160206144515f395f51905f52865f5160206144515f395f51905f5283840909955050855f5160206144515f395f51905f52845f5160206144515f395f51905f5285860909019250845f5160206144515f395f51905f52855f5160206144515f395f51905f528485090901958001860195948001830194800193508491505f5160206144515f395f51905f5290508380080191508001835f5160206144515f395f51905f528280080190507f0c009b84e650e6d23dc00c7dccef7483a553939689d350cd46e7b89055fd47385f5160206144515f395f51905f528285080192507f011f16b1c63a854f01992e3956f42d8b04eb650c6d535eb0203dec74befdca06017f0ed69e5e383a688f209d9a561daa79612f3f78d0467ad45485df07093f3675495f5160206144515f395f51905f528386080193507f04dba94a7b0ce9e221acad41472b6bbe3aec507f5eb3d33f463672264c9f789b820191505f5160206144515f395f51905f528384095f5160206144515f395f51905f528283095f5160206144515f395f51905f52835f5160206144515f395f51905f52838409099250505f5160206144515f395f51905f528586095f5160206144515f395f51905f528485095f5160206144515f395f51905f52855f5160206144515f395f51905f5283840909945050825f5160206144515f395f51905f52865f5160206144515f395f51905f5285860909019450835f5160206144515f395f51905f52875f5160206144515f395f51905f528485090901808001965093800185019392800190920191508290505f5160206144515f395f51905f5285800801935091800191805f5160206144515f395f51905f528480080192507f0a3f2637d840f3a16eb094271c9d237b6036757d4bb50bf7ce732ff1d4fa28e85f5160206144515f395f51905f528484080191507f259a666f129eea198f8a1c502fdb38fa39b1f075569564b6e54a485d1182323f830192507f28bf7459c9b2f4c6d8e7d06a4ee3a47f7745d4271038e5157a32fdf7ede0d6a15f5160206144515f395f51905f528583080190507f0a1ca941f057037526ea200f489be8d4c37c85bbcce6a2aeec91bd6941432447840193505f5160206144515f395f51905f528283095f5160206144515f395f51905f528485095f5160206144515f395f51905f52855f5160206144515f395f51905f52838409099450505f5160206144515f395f51905f528283095f5160206144515f395f51905f528687095f5160206144515f395f51905f52875f5160206144515f395f51905f5283840909965050845f5160206144515f395f51905f52855f5160206144515f395f51905f5285860909019350855f5160206144515f395f51905f52845f5160206144515f395f51905f528485090996800185019601948001850194800192508591505f5160206144515f395f51905f52905082800892800192019050825f5160206144515f395f51905f528380080191505f5160206144515f395f51905f5281840892507f0c6f8f958be0e93053d7fd4fc54512855535ed1539f051dcb43a26fd926361cf5f5160206144515f395f51905f528386080193505f5160206144515f395f51905f528485095f5160206144515f395f51905f52855f5160206144515f395f51905f52838409099450505f5160206144515f395f51905f5281848487010108805f5160206144515f395f51905f525f5160206144b15f395f51905f528509019250805f5160206144515f395f51905f525f5160206144315f395f51905f528609019350805f5160206144515f395f51905f525f5160206144715f395f51905f5284090191507f123106a93cd17578d426e8128ac9d90aa9e8a00708e296e084dd57e69caaf811815f5160206144515f395f51905f525f5160206144915f395f51905f52880901019450505f5160206144515f395f51905f528485095f5160206144515f395f51905f52855f5160206144515f395f51905f52838409099450505f5160206144515f395f51905f5281848487010108805f5160206144515f395f51905f525f5160206144b15f395f51905f528509019250805f5160206144515f395f51905f525f5160206144315f395f51905f528609019350805f5160206144515f395f51905f525f5160206144715f395f51905f5284090191507f26e1ba52ad9285d97dd3ab52f8e840085e8fa83ff1e8f1877b074867cd2dee75815f5160206144515f395f51905f525f5160206144915f395f51905f52880901019450505f5160206144515f395f51905f528485095f5160206144515f395f51905f52855f5160206144515f395f51905f52838409099450505f5160206144515f395f51905f5281848487010108805f5160206144515f395f51905f525f5160206144b15f395f51905f528509019250805f5160206144515f395f51905f525f5160206144315f395f51905f528609019350805f5160206144515f395f51905f525f5160206144715f395f51905f5284090191507f1cb55cad7bd133de18a64c5c47b9c97cbe4d8b7bf9e095864471537e6a4ae2c5815f5160206144515f395f51905f525f5160206144915f395f51905f52880901019450505f5160206144515f395f51905f528485095f5160206144515f395f51905f52855f5160206144515f395f51905f52838409099450505f5160206144515f395f51905f5281848487010108805f5160206144515f395f51905f525f5160206144b15f395f51905f528509019250805f5160206144515f395f51905f525f5160206144315f395f51905f528609019350805f5160206144515f395f51905f525f5160206144715f395f51905f5284090191507f1dcd73e46acd8f8e0e2c7ce04bde7f6d2a53043d5060a41c7143f08e6e9055d0815f5160206144515f395f51905f525f5160206144915f395f51905f52880901019450505f5160206144515f395f51905f528485095f5160206144515f395f51905f52855f5160206144515f395f51905f52838409099450505f5160206144515f395f51905f5281848487010108805f5160206144515f395f51905f525f5160206144b15f395f51905f528509019250805f5160206144515f395f51905f525f5160206144315f395f51905f528609019350805f5160206144515f395f51905f525f5160206144715f395f51905f5284090191507f011003e32f6d9c66f5852f05474a4def0cda294a0eb4e9b9b12b9bb4512e5574815f5160206144515f395f51905f525f5160206144915f395f51905f52880901019450505f5160206144515f395f51905f528485095f5160206144515f395f51905f52855f5160206144515f395f51905f52838409099450505f5160206144515f395f51905f5281848487010108805f5160206144515f395f51905f525f5160206144b15f395f51905f528509019250805f5160206144515f395f51905f525f5160206144315f395f51905f528609019350805f5160206144515f395f51905f525f5160206144715f395f51905f5284090191507f2b1e809ac1d10ab29ad5f20d03a57dfebadfe5903f58bafed7c508dd2287ae8c815f5160206144515f395f51905f525f5160206144915f395f51905f52880901019450505f5160206144515f395f51905f528485095f5160206144515f395f51905f52855f5160206144515f395f51905f52838409099450505f5160206144515f395f51905f5281848487010108805f5160206144515f395f51905f525f5160206144b15f395f51905f528509019250805f5160206144515f395f51905f525f5160206144315f395f51905f528609019350805f5160206144515f395f51905f525f5160206144715f395f51905f5284090191507f2539de1785b735999fb4dac35ee17ed0ef995d05ab2fc5faeaa69ae87bcec0a5815f5160206144515f395f51905f525f5160206144915f395f51905f52880901019450505f5160206144515f395f51905f528485095f5160206144515f395f51905f52855f5160206144515f395f51905f52838409099450505f5160206144515f395f51905f5281848487010108805f5160206144515f395f51905f525f5160206144b15f395f51905f528509019250805f5160206144515f395f51905f525f5160206144315f395f51905f528609019350805f5160206144515f395f51905f525f5160206144715f395f51905f5284090191507f0c246c5a2ef8ee0126497f222b3e0a0ef4e1c3d41c86d46e43982cb11d77951d815f5160206144515f395f51905f525f5160206144915f395f51905f52880901019450505f5160206144515f395f51905f528485095f5160206144515f395f51905f52855f5160206144515f395f51905f52838409099450505f5160206144515f395f51905f5281848487010108805f5160206144515f395f51905f525f5160206144b15f395f51905f528509019250805f5160206144515f395f51905f525f5160206144315f395f51905f528609019350805f5160206144515f395f51905f525f5160206144715f395f51905f5284090191507f192089c4974f68e95408148f7c0632edbb09e6a6ad1a1c2f3f0305f5d03b527b815f5160206144515f395f51905f525f5160206144915f395f51905f52880901019450505f5160206144515f395f51905f528485095f5160206144515f395f51905f52855f5160206144515f395f51905f52838409099450505f5160206144515f395f51905f5281848487010108805f5160206144515f395f51905f525f5160206144b15f395f51905f528509019250805f5160206144515f395f51905f525f5160206144315f395f51905f528609019350805f5160206144515f395f51905f525f5160206144715f395f51905f5284090191507f1eae0ad8ab68b2f06a0ee36eeb0d0c058529097d91096b756d8fdc2fb5a60d85815f5160206144515f395f51905f525f5160206144915f395f51905f52880901019450505f5160206144515f395f51905f528485095f5160206144515f395f51905f52855f5160206144515f395f51905f52838409099450505f5160206144515f395f51905f5281848487010108805f5160206144515f395f51905f525f5160206144b15f395f51905f528509019250805f5160206144515f395f51905f525f5160206144315f395f51905f528609019350805f5160206144515f395f51905f525f5160206144715f395f51905f5284090191507f179190e5d0e22179e46f8282872abc88db6e2fdc0dee99e69768bd98c5d06bfb815f5160206144515f395f51905f525f5160206144915f395f51905f52880901019450505f5160206144515f395f51905f528485095f5160206144515f395f51905f52855f5160206144515f395f51905f52838409099450505f5160206144515f395f51905f5281848487010108805f5160206144515f395f51905f525f5160206144b15f395f51905f528509019250805f5160206144515f395f51905f525f5160206144315f395f51905f528609019350805f5160206144515f395f51905f525f5160206144715f395f51905f5284090191507f29bb9e2c9076732576e9a81c7ac4b83214528f7db00f31bf6cafe794a9b3cd1c815f5160206144515f395f51905f525f5160206144915f395f51905f52880901019450505f5160206144515f395f51905f528485095f5160206144515f395f51905f52855f5160206144515f395f51905f52838409099450505f5160206144515f395f51905f5281848487010108805f5160206144515f395f51905f525f5160206144b15f395f51905f528509019250805f5160206144515f395f51905f525f5160206144315f395f51905f528609019350805f5160206144515f395f51905f525f5160206144715f395f51905f5284090191507f225d394e42207599403efd0c2464a90d52652645882aac35b10e590e6e691e08815f5160206144515f395f51905f525f5160206144915f395f51905f52880901019450505f5160206144515f395f51905f528485095f5160206144515f395f51905f52855f5160206144515f395f51905f52838409099450505f5160206144515f395f51905f5281848487010108805f5160206144515f395f51905f525f5160206144b15f395f51905f528509019250805f5160206144515f395f51905f525f5160206144315f395f51905f528609019350805f5160206144515f395f51905f525f5160206144715f395f51905f5284090191507f064760623c25c8cf753d238055b444532be13557451c087de09efd454b23fd59815f5160206144515f395f51905f525f5160206144915f395f51905f52880901019450505f5160206144515f395f51905f528485095f5160206144515f395f51905f52855f5160206144515f395f51905f52838409099450505f5160206144515f395f51905f5281848487010108805f5160206144515f395f51905f525f5160206144b15f395f51905f528509019250805f5160206144515f395f51905f525f5160206144315f395f51905f528609019350805f5160206144515f395f51905f525f5160206144715f395f51905f5284090191507f10ba3a0e01df92e87f301c4b716d8a394d67f4bf42a75c10922910a78f6b5b87815f5160206144515f395f51905f525f5160206144915f395f51905f52880901019450505f5160206144515f395f51905f528485095f5160206144515f395f51905f52855f5160206144515f395f51905f52838409099450505f5160206144515f395f51905f5281848487010108805f5160206144515f395f51905f525f5160206144b15f395f51905f528509019250805f5160206144515f395f51905f525f5160206144315f395f51905f528609019350805f5160206144515f395f51905f525f5160206144715f395f51905f5284090191507f0e070bf53f8451b24f9c6e96b0c2a801cb511bc0c242eb9d361b77693f21471c815f5160206144515f395f51905f525f5160206144915f395f51905f52880901019450505f5160206144515f395f51905f528485095f5160206144515f395f51905f52855f5160206144515f395f51905f52838409099450505f5160206144515f395f51905f5281848487010108805f5160206144515f395f51905f525f5160206144b15f395f51905f528509019250805f5160206144515f395f51905f525f5160206144315f395f51905f528609019350805f5160206144515f395f51905f525f5160206144715f395f51905f5284090191507f1b94cd61b051b04dd39755ff93821a73ccd6cb11d2491d8aa7f921014de252fb815f5160206144515f395f51905f525f5160206144915f395f51905f52880901019450505f5160206144515f395f51905f528485095f5160206144515f395f51905f52855f5160206144515f395f51905f52838409099450505f5160206144515f395f51905f5281848487010108805f5160206144515f395f51905f525f5160206144b15f395f51905f528509019250805f5160206144515f395f51905f525f5160206144315f395f51905f528609019350805f5160206144515f395f51905f525f5160206144715f395f51905f5284090191507f1d7cb39bafb8c744e148787a2e70230f9d4e917d5713bb050487b5aa7d74070b815f5160206144515f395f51905f525f5160206144915f395f51905f52880901019450505f5160206144515f395f51905f528485095f5160206144515f395f51905f52855f5160206144515f395f51905f52838409099450505f5160206144515f395f51905f5281848487010108805f5160206144515f395f51905f525f5160206144b15f395f51905f528509019250805f5160206144515f395f51905f525f5160206144315f395f51905f528609019350805f5160206144515f395f51905f525f5160206144715f395f51905f5284090191507f2ec93189bd1ab4f69117d0fe980c80ff8785c2961829f701bb74ac1f303b17db815f5160206144515f395f51905f525f5160206144915f395f51905f52880901019450505f5160206144515f395f51905f528485095f5160206144515f395f51905f52855f5160206144515f395f51905f52838409099450505f5160206144515f395f51905f5281848487010108805f5160206144515f395f51905f525f5160206144b15f395f51905f528509019250805f5160206144515f395f51905f525f5160206144315f395f51905f528609019350805f5160206144515f395f51905f525f5160206144715f395f51905f5284090191507f2db366bfdd36d277a692bb825b86275beac404a19ae07a9082ea46bd83517926815f5160206144515f395f51905f525f5160206144915f395f51905f52880901019450505f5160206144515f395f51905f528485095f5160206144515f395f51905f52855f5160206144515f395f51905f52838409099450505f5160206144515f395f51905f5281848487010108805f5160206144515f395f51905f525f5160206144b15f395f51905f528509019250805f5160206144515f395f51905f525f5160206144315f395f51905f528609019350805f5160206144515f395f51905f525f5160206144715f395f51905f5284090191507f062100eb485db06269655cf186a68532985275428450359adc99cec6960711b8815f5160206144515f395f51905f525f5160206144915f395f51905f52880901019450505f5160206144515f395f51905f528485095f5160206144515f395f51905f52855f5160206144515f395f51905f52838409099450505f5160206144515f395f51905f5281848487010108805f5160206144515f395f51905f525f5160206144b15f395f51905f528509019250805f5160206144515f395f51905f525f5160206144315f395f51905f528609019350805f5160206144515f395f51905f525f5160206144715f395f51905f5284090191507f0761d33c66614aaa570e7f1e8244ca1120243f92fa59e4f900c567bf41f5a59b815f5160206144515f395f51905f525f5160206144915f395f51905f52880901019450505f5160206144515f395f51905f528485095f5160206144515f395f51905f52855f5160206144515f395f51905f52838409099450505f5160206144515f395f51905f5281848487010108805f5160206144515f395f51905f525f5160206144b15f395f51905f528509019250805f5160206144515f395f51905f525f5160206144315f395f51905f528609019350805f5160206144515f395f51905f525f5160206144715f395f51905f5284090191507f20fc411a114d13992c2705aa034e3f315d78608a0f7de4ccf7a72e494855ad0d815f5160206144515f395f51905f525f5160206144915f395f51905f52880901019450505f5160206144515f395f51905f528485095f5160206144515f395f51905f52855f5160206144515f395f51905f52838409099450505f5160206144515f395f51905f5281848487010108805f5160206144515f395f51905f525f5160206144b15f395f51905f528509019250805f5160206144515f395f51905f525f5160206144315f395f51905f528609019350805f5160206144515f395f51905f525f5160206144715f395f51905f5284090191507f25b5c004a4bdfcb5add9ec4e9ab219ba102c67e8b3effb5fc3a30f317250bc5a815f5160206144515f395f51905f525f5160206144915f395f51905f52880901019450505f5160206144515f395f51905f528485095f5160206144515f395f51905f52855f5160206144515f395f51905f52838409099450505f5160206144515f395f51905f5281848487010108805f5160206144515f395f51905f525f5160206144b15f395f51905f528509019250805f5160206144515f395f51905f525f5160206144315f395f51905f528609019350805f5160206144515f395f51905f525f5160206144715f395f51905f5284090191507f23b1822d278ed632a494e58f6df6f5ed038b186d8474155ad87e7dff62b37f4b815f5160206144515f395f51905f525f5160206144915f395f51905f52880901019450505f5160206144515f395f51905f528485095f5160206144515f395f51905f52855f5160206144515f395f51905f52838409099450505f5160206144515f395f51905f5281848487010108805f5160206144515f395f51905f525f5160206144b15f395f51905f528509019250805f5160206144515f395f51905f525f5160206144315f395f51905f528609019350805f5160206144515f395f51905f525f5160206144715f395f51905f5284090191507f22734b4c5c3f9493606c4ba9012499bf0f14d13bfcfcccaa16102a29cc2f69e0815f5160206144515f395f51905f525f5160206144915f395f51905f52880901019450505f5160206144515f395f51905f528485095f5160206144515f395f51905f52855f5160206144515f395f51905f52838409099450505f5160206144515f395f51905f5281848487010108805f5160206144515f395f51905f525f5160206144b15f395f51905f528509019250805f5160206144515f395f51905f525f5160206144315f395f51905f528609019350805f5160206144515f395f51905f525f5160206144715f395f51905f5284090191507f26c0c8fe09eb30b7e27a74dc33492347e5bdff409aa3610254413d3fad795ce5815f5160206144515f395f51905f525f5160206144915f395f51905f52880901019450505f5160206144515f395f51905f528485095f5160206144515f395f51905f52855f5160206144515f395f51905f52838409099450505f5160206144515f395f51905f5281848487010108805f5160206144515f395f51905f525f5160206144b15f395f51905f528509019250805f5160206144515f395f51905f525f5160206144315f395f51905f528609019350805f5160206144515f395f51905f525f5160206144715f395f51905f5284090191507f070dd0ccb6bd7bbae88eac03fa1fbb26196be3083a809829bbd626df348ccad9815f5160206144515f395f51905f525f5160206144915f395f51905f52880901019450505f5160206144515f395f51905f528485095f5160206144515f395f51905f52855f5160206144515f395f51905f52838409099450505f5160206144515f395f51905f5281848487010108805f5160206144515f395f51905f525f5160206144b15f395f51905f528509019250805f5160206144515f395f51905f525f5160206144315f395f51905f528609019350805f5160206144515f395f51905f525f5160206144715f395f51905f5284090191507f12b6595bdb329b6fb043ba78bb28c3bec2c0a6de46d8c5ad6067c4ebfd4250da815f5160206144515f395f51905f525f5160206144915f395f51905f52880901019450505f5160206144515f395f51905f528485095f5160206144515f395f51905f52855f5160206144515f395f51905f52838409099450505f5160206144515f395f51905f5281848487010108805f5160206144515f395f51905f525f5160206144b15f395f51905f528509019250805f5160206144515f395f51905f525f5160206144315f395f51905f528609019350805f5160206144515f395f51905f525f5160206144715f395f51905f5284090191507f248d97d7f76283d63bec30e7a5876c11c06fca9b275c671c5e33d95bb7e8d729815f5160206144515f395f51905f525f5160206144915f395f51905f52880901019450505f5160206144515f395f51905f528485095f5160206144515f395f51905f52855f5160206144515f395f51905f52838409099450505f5160206144515f395f51905f5281848487010108805f5160206144515f395f51905f525f5160206144b15f395f51905f528509019250805f5160206144515f395f51905f525f5160206144315f395f51905f528609019350805f5160206144515f395f51905f525f5160206144715f395f51905f5284090191507f1a306d439d463b0816fc6fd64cc939318b45eb759ddde4aa106d15d9bd9baaaa815f5160206144515f395f51905f525f5160206144915f395f51905f52880901019450505f5160206144515f395f51905f528485095f5160206144515f395f51905f52855f5160206144515f395f51905f52838409099450505f5160206144515f395f51905f5281848487010108805f5160206144515f395f51905f525f5160206144b15f395f51905f528509019250805f5160206144515f395f51905f525f5160206144315f395f51905f528609019350805f5160206144515f395f51905f525f5160206144715f395f51905f5284090191507f28a8f8372e3c38daced7c00421cb4621f4f1b54ddc27821b0d62d3d6ec7c56cf815f5160206144515f395f51905f525f5160206144915f395f51905f52880901019450505f5160206144515f395f51905f528485095f5160206144515f395f51905f52855f5160206144515f395f51905f52838409099450505f5160206144515f395f51905f5281848487010108805f5160206144515f395f51905f525f5160206144b15f395f51905f528509019250805f5160206144515f395f51905f525f5160206144315f395f51905f528609019350805f5160206144515f395f51905f525f5160206144715f395f51905f5284090191507e94975717f9a8a8bb35152f24d43294071ce320c829f388bc852183e1e2ce7e815f5160206144515f395f51905f525f5160206144915f395f51905f52880901019450505f5160206144515f395f51905f528485095f5160206144515f395f51905f52855f5160206144515f395f51905f52838409099450505f5160206144515f395f51905f5281848487010108805f5160206144515f395f51905f525f5160206144b15f395f51905f528509019250805f5160206144515f395f51905f525f5160206144315f395f51905f528609019350805f5160206144515f395f51905f525f5160206144715f395f51905f5284090191507f04d5ee4c3aa78f7d80fde60d716480d3593f74d4f653ae83f4103246db2e8d65815f5160206144515f395f51905f525f5160206144915f395f51905f52880901019450505f5160206144515f395f51905f528485095f5160206144515f395f51905f52855f5160206144515f395f51905f52838409099450505f5160206144515f395f51905f5281848487010108805f5160206144515f395f51905f525f5160206144b15f395f51905f528509019250805f5160206144515f395f51905f525f5160206144315f395f51905f528609019350805f5160206144515f395f51905f525f5160206144715f395f51905f5284090191507f2a6cf5e9aa03d4336349ad6fb8ed2269c7bef54b8822cc76d08495c12efde187815f5160206144515f395f51905f525f5160206144915f395f51905f52880901019450505f5160206144515f395f51905f528485095f5160206144515f395f51905f52855f5160206144515f395f51905f52838409099450505f5160206144515f395f51905f5281848487010108805f5160206144515f395f51905f525f5160206144b15f395f51905f528509019250805f5160206144515f395f51905f525f5160206144315f395f51905f528609019350805f5160206144515f395f51905f525f5160206144715f395f51905f5284090191507f2304d31eaab960ba9274da43e19ddeb7f792180808fd6e43baae48d7efcba3f3815f5160206144515f395f51905f525f5160206144915f395f51905f52880901019450505f5160206144515f395f51905f528485095f5160206144515f395f51905f52855f5160206144515f395f51905f52838409099450505f5160206144515f395f51905f5281848487010108805f5160206144515f395f51905f525f5160206144b15f395f51905f528509019250805f5160206144515f395f51905f525f5160206144315f395f51905f528609019350805f5160206144515f395f51905f525f5160206144715f395f51905f5284090191507f03fd9ac865a4b2a6d5e7009785817249bff08a7e0726fcb4e1c11d39d199f0b0815f5160206144515f395f51905f525f5160206144915f395f51905f52880901019450505f5160206144515f395f51905f528485095f5160206144515f395f51905f52855f5160206144515f395f51905f52838409099450505f5160206144515f395f51905f5281848487010108805f5160206144515f395f51905f525f5160206144b15f395f51905f528509019250805f5160206144515f395f51905f525f5160206144315f395f51905f528609019350805f5160206144515f395f51905f525f5160206144715f395f51905f5284090191507eb7258ded52bbda2248404d55ee5044798afc3a209193073f7954d4d63b0b64815f5160206144515f395f51905f525f5160206144915f395f51905f52880901019450505f5160206144515f395f51905f528485095f5160206144515f395f51905f52855f5160206144515f395f51905f52838409099450505f5160206144515f395f51905f5281848487010108805f5160206144515f395f51905f525f5160206144b15f395f51905f528509019250805f5160206144515f395f51905f525f5160206144315f395f51905f528609019350805f5160206144515f395f51905f525f5160206144715f395f51905f5284090191507f159f81ada0771799ec38fca2d4bf65ebb13d3a74f3298db36272c5ca65e92d9a815f5160206144515f395f51905f525f5160206144915f395f51905f52880901019450505f5160206144515f395f51905f528485095f5160206144515f395f51905f52855f5160206144515f395f51905f52838409099450505f5160206144515f395f51905f5281848487010108805f5160206144515f395f51905f525f5160206144b15f395f51905f528509019250805f5160206144515f395f51905f525f5160206144315f395f51905f528609019350805f5160206144515f395f51905f525f5160206144715f395f51905f5284090191507f1ef90e67437fbc8550237a75bc28e3bb9000130ea25f0c5471e144cf4264431f815f5160206144515f395f51905f525f5160206144915f395f51905f52880901019450505f5160206144515f395f51905f528485095f5160206144515f395f51905f52855f5160206144515f395f51905f52838409099450505f5160206144515f395f51905f5281848487010108805f5160206144515f395f51905f525f5160206144b15f395f51905f528509019250805f5160206144515f395f51905f525f5160206144315f395f51905f528609019350805f5160206144515f395f51905f525f5160206144715f395f51905f5284090191507f1e65f838515e5ff0196b49aa41a2d2568df739bc176b08ec95a79ed82932e30d815f5160206144515f395f51905f525f5160206144915f395f51905f52880901019450505f5160206144515f395f51905f528485095f5160206144515f395f51905f52855f5160206144515f395f51905f52838409099450505f5160206144515f395f51905f5281848487010108805f5160206144515f395f51905f525f5160206144b15f395f51905f528509019250805f5160206144515f395f51905f525f5160206144315f395f51905f528609019350805f5160206144515f395f51905f525f5160206144715f395f51905f5284090191507f2b1b045def3a166cec6ce768d079ba74b18c844e570e1f826575c1068c94c33f815f5160206144515f395f51905f525f5160206144915f395f51905f52880901019450505f5160206144515f395f51905f528485095f5160206144515f395f51905f52855f5160206144515f395f51905f52838409099450505f5160206144515f395f51905f5281848487010108805f5160206144515f395f51905f525f5160206144b15f395f51905f528509019250805f5160206144515f395f51905f525f5160206144315f395f51905f528609019350805f5160206144515f395f51905f525f5160206144715f395f51905f5284090191507f0832e5753ceb0ff6402543b1109229c165dc2d73bef715e3f1c6e07c168bb173815f5160206144515f395f51905f525f5160206144915f395f51905f52880901019450505f5160206144515f395f51905f528485095f5160206144515f395f51905f52855f5160206144515f395f51905f52838409099450505f5160206144515f395f51905f5281848487010108805f5160206144515f395f51905f525f5160206144b15f395f51905f528509019250805f5160206144515f395f51905f525f5160206144315f395f51905f528609019350805f5160206144515f395f51905f525f5160206144715f395f51905f5284090191507f02f614e9cedfb3dc6b762ae0a37d41bab1b841c2e8b6451bc5a8e3c390b6ad16815f5160206144515f395f51905f525f5160206144915f395f51905f52880901019450505f5160206144515f395f51905f528485095f5160206144515f395f51905f52855f5160206144515f395f51905f52838409099450505f5160206144515f395f51905f5281848487010108805f5160206144515f395f51905f525f5160206144b15f395f51905f528509019250805f5160206144515f395f51905f525f5160206144315f395f51905f528609019350805f5160206144515f395f51905f525f5160206144715f395f51905f5284090191507f0e2427d38bd46a60dd640b8e362cad967370ebb777bedff40f6a0be27e7ed705815f5160206144515f395f51905f525f5160206144915f395f51905f52880901019450505f5160206144515f395f51905f528485095f5160206144515f395f51905f52855f5160206144515f395f51905f52838409099450505f5160206144515f395f51905f5281848487010108805f5160206144515f395f51905f525f5160206144b15f395f51905f528509019250805f5160206144515f395f51905f525f5160206144315f395f51905f528609019350805f5160206144515f395f51905f525f5160206144715f395f51905f5284090191507f0493630b7c670b6deb7c84d414e7ce79049f0ec098c3c7c50768bbe29214a53a815f5160206144515f395f51905f525f5160206144915f395f51905f52880901019450505f5160206144515f395f51905f528485095f5160206144515f395f51905f52855f5160206144515f395f51905f52838409099450505f5160206144515f395f51905f5281848487010108805f5160206144515f395f51905f525f5160206144b15f395f51905f528509019250805f5160206144515f395f51905f525f5160206144315f395f51905f528609019350805f5160206144515f395f51905f525f5160206144715f395f51905f5284090191507f22ead100e8e482674decdab17066c5a26bb1515355d5461a3dc06cc85327cea9815f5160206144515f395f51905f525f5160206144915f395f51905f52880901019450505f5160206144515f395f51905f528485095f5160206144515f395f51905f52855f5160206144515f395f51905f52838409099450505f5160206144515f395f51905f5281848487010108805f5160206144515f395f51905f525f5160206144b15f395f51905f528509019250805f5160206144515f395f51905f525f5160206144315f395f51905f528609019350805f5160206144515f395f51905f525f5160206144715f395f51905f5284090191507f25b3e56e655b42cdaae2626ed2554d48583f1ae35626d04de5084e0b6d2a6f16815f5160206144515f395f51905f525f5160206144915f395f51905f52880901019450505f5160206144515f395f51905f528485095f5160206144515f395f51905f52855f5160206144515f395f51905f52838409099450505f5160206144515f395f51905f5281848487010108805f5160206144515f395f51905f525f5160206144b15f395f51905f528509019250805f5160206144515f395f51905f525f5160206144315f395f51905f528609019350805f5160206144515f395f51905f525f5160206144715f395f51905f5284090191507f1e32752ada8836ef5837a6cde8ff13dbb599c336349e4c584b4fdc0a0cf6f9d0815f5160206144515f395f51905f525f5160206144915f395f51905f52880901019450505f5160206144515f395f51905f528485095f5160206144515f395f51905f52855f5160206144515f395f51905f52838409099450505f5160206144515f395f51905f5281848487010108805f5160206144515f395f51905f525f5160206144b15f395f51905f528509019250805f5160206144515f395f51905f525f5160206144315f395f51905f528609019350805f5160206144515f395f51905f525f5160206144715f395f51905f5284090191507f2fa2a871c15a387cc50f68f6f3c3455b23c00995f05078f672a9864074d412e5815f5160206144515f395f51905f525f5160206144915f395f51905f52880901019450505f5160206144515f395f51905f528485095f5160206144515f395f51905f52855f5160206144515f395f51905f52838409099450505f5160206144515f395f51905f5281848487010108805f5160206144515f395f51905f525f5160206144b15f395f51905f528509019250805f5160206144515f395f51905f525f5160206144315f395f51905f528609019350805f5160206144515f395f51905f525f5160206144715f395f51905f5284090191507f2f569b8a9a4424c9278e1db7311e889f54ccbf10661bab7fcd18e7c7a7d83505815f5160206144515f395f51905f525f5160206144915f395f51905f52880901019450505f5160206144515f395f51905f528485095f5160206144515f395f51905f52855f5160206144515f395f51905f52838409099450505f5160206144515f395f51905f5281848487010108805f5160206144515f395f51905f525f5160206144b15f395f51905f528509019250805f5160206144515f395f51905f525f5160206144315f395f51905f528609019350805f5160206144515f395f51905f525f5160206144715f395f51905f5284090191507f044cb455110a8fdd531ade530234c518a7df93f7332ffd2144165374b246b43d815f5160206144515f395f51905f525f5160206144915f395f51905f52880901019450505f5160206144515f395f51905f528485095f5160206144515f395f51905f52855f5160206144515f395f51905f52838409099450505f5160206144515f395f51905f5281848487010108805f5160206144515f395f51905f525f5160206144b15f395f51905f528509019250805f5160206144515f395f51905f525f5160206144315f395f51905f528609019350805f5160206144515f395f51905f525f5160206144715f395f51905f5284090191507f227808de93906d5d420246157f2e42b191fe8c90adfe118178ddc723a5319025815f5160206144515f395f51905f525f5160206144915f395f51905f52880901019450505f5160206144515f395f51905f528485095f5160206144515f395f51905f52855f5160206144515f395f51905f52838409099450505f5160206144515f395f51905f5281848487010108805f5160206144515f395f51905f525f5160206144b15f395f51905f528509019250805f5160206144515f395f51905f525f5160206144315f395f51905f528609019350805f5160206144515f395f51905f525f5160206144715f395f51905f5284090191507f02fcca2934e046bc623adead873579865d03781ae090ad4a8579d2e7a6800355815f5160206144515f395f51905f525f5160206144915f395f51905f52880901019450505f5160206144515f395f51905f528485095f5160206144515f395f51905f52855f5160206144515f395f51905f52838409099450505f5160206144515f395f51905f5281848487010108805f5160206144515f395f51905f525f5160206144b15f395f51905f528509019250805f5160206144515f395f51905f525f5160206144315f395f51905f528609019350805f5160206144515f395f51905f525f5160206144715f395f51905f5284090191507f0ef915f0ac120b876abccceb344a1d36bad3f3c5ab91a8ddcbec2e060d8befac815f5160206144515f395f51905f525f5160206144915f395f51905f52880901019450505f5160206144515f395f51905f528485095f5160206144515f395f51905f52855f5160206144515f395f51905f52838409099450505f5160206144515f395f51905f52818484870101087f1797130f4b7a3e1777eb757bc6f287f6ab0fb85f6be63b09f3b16ef2b1405d38815f5160206144515f395f51905f525f5160206144915f395f51905f528809010194507f0a76225dc04170ae3306c85abab59e608c7f497c20156d4d36c668555decc6e5815f5160206144515f395f51905f525f5160206144b15f395f51905f528609010192507f1fffb9ec1992d66ba1e77a7b93209af6f8fa76d48acb664796174b5326a31a5c815f5160206144515f395f51905f525f5160206144315f395f51905f528709010193507f25721c4fc15a3f2853b57c338fa538d85f8fbba6c6b9c6090611889b797b9c5f815f5160206144515f395f51905f525f5160206144715f395f51905f52850901019150505f5160206144515f395f51905f528485095f5160206144515f395f51905f528384095f5160206144515f395f51905f52845f5160206144515f395f51905f52838409099350505f5160206144515f395f51905f528485095f5160206144515f395f51905f528384095f5160206144515f395f51905f52845f5160206144515f395f51905f5283840909935050835f5160206144515f395f51905f52875f5160206144515f395f51905f5285860909019550825f5160206144515f395f51905f52865f5160206144515f395f51905f528485090901808001955093800190930192505080018301805f5160206144515f395f51905f5284800894800194019250815f5160206144515f395f51905f528580080193507f0c817fd42d5f7a41215e3d07ba197216adb4c3790705da95eb63b982bfcaf75a5f5160206144515f395f51905f528583080190507f13abe3f5239915d39f7e13c2c24970b6df8cf86ce00a22002bc15866e52b5a96840193507f2106feea546224ea12ef7f39987a46c85c1bc3dc29bdbd7a92cd60acb4d391ce5f5160206144515f395f51905f528484080191507f21ca859468a746b6aaa79474a37dab49f1ca5a28c748bc7157e1b3345bb0f959830192505f5160206144515f395f51905f528182095f5160206144515f395f51905f528586095f5160206144515f395f51905f52865f5160206144515f395f51905f52838409099550505f5160206144515f395f51905f528384095f5160206144515f395f51905f528586095f5160206144515f395f51905f52865f5160206144515f395f51905f5283840909955050855f5160206144515f395f51905f52845f5160206144515f395f51905f5285860909019250845f5160206144515f395f51905f52855f5160206144515f395f51905f528485090901958001860195948001830194800193508491505f5160206144515f395f51905f5290508380080191508001835f5160206144515f395f51905f528280080190507f05ccd6255c1e6f0c5cf1f0df934194c62911d14d0321662a8f1a48999e34185b5f5160206144515f395f51905f528285080192507f0f0e34a64b70a626e464d846674c4c8816c4fb267fe44fe6ea28678cb09490a4017f0558531a4e25470c6157794ca36d0e9647dbfcfe350d64838f5b1a8a2de0d4bf5f5160206144515f395f51905f528386080193507f09d3dca9173ed2faceea125157683d18924cadad3f655a60b72f5864961f1455820191505f5160206144515f395f51905f528384095f5160206144515f395f51905f528283095f5160206144515f395f51905f52835f5160206144515f395f51905f52838409099250505f5160206144515f395f51905f528586095f5160206144515f395f51905f528485095f5160206144515f395f51905f52855f5160206144515f395f51905f5283840909945050825f5160206144515f395f51905f52865f5160206144515f395f51905f5285860909019450835f5160206144515f395f51905f52875f5160206144515f395f51905f528485090901808001965093800185019392800190920191508290505f5160206144515f395f51905f5285800801935091800191805f5160206144515f395f51905f528480080192507f0328cbd54e8c0913493f866ed03d218bf23f92d68aaec48617d4c722e5bd43355f5160206144515f395f51905f528484080191507f2bf07216e2aff0a223a487b1a7094e07e79e7bcc9798c648ee3347dd5329d34b830192507f1daf345a58006b736499c583cb76c316d6f78ed6a6dffc82111e11a63fe412df5f5160206144515f395f51905f528583080190507f176563472456aaa746b694c60e1823611ef39039b2edc7ff391e6f2293d2c404840193505f5160206144515f395f51905f528283095f5160206144515f395f51905f528485095f5160206144515f395f51905f52855f5160206144515f395f51905f52838409099450505f5160206144515f395f51905f528283095f5160206144515f395f51905f528687095f5160206144515f395f51905f52875f5160206144515f395f51905f5283840909965050845f5160206144515f395f51905f52855f5160206144515f395f51905f528586090901935083840191505f5160206144515f395f51905f5280875f5160206144515f395f51905f52865f5160206144515f395f51905f528687090901878801015f5160206144515f395f51905f528586080186898a010108065f5260205ff3fe00544b8338791518b2c7645a50392798b21f75bb60e3596170067d00141cac1530644e72e131a029b85045b68181585d2833e84879b9709143e1f593f0000001222c01175718386f2e2e82eb122789e352e105a3b8fa852613bc534433ee428b10dc6e9c006ea38b04b1e03b4bd9490c0d03f98929ca1d7fb56821fd19d3b6e70c28145b6a44df3e0149b3d0a30b3bb599df9756d4dd9b84a86b38cfb45a740ba2646970667358221220fbe90da5a361c6f93fce593cd1d06a38653cc9c8b9fe15424c2830822fe5355064736f6c634300081c0033",
  "linkReferences": {},
  "deployedLinkReferences": {},
  "immutableReferences": {
    "9183": [
      {
        "length": 32,
        "start": 451
      },
      {
        "length": 32,
        "start": 4957
      }
    ],
    "9196": [
      {
        "length": 32,
        "start": 511
      },
      {
        "length": 32,
        "start": 2073
      }
    ]
  },
  "inputSourceName": "project/contracts/CommBankDotEth.sol",
  "buildInfoId": "solc-0_8_28-3c2f2c88d938f9196412424a48e7b422dd5f18ae"
}