{
  "_format": "hh3-artifact-1",
  "contractName": "CommBankDotEth",
  "sourceName": "contracts/CommBankDotEth.sol",
  "abi": [
    {
      "inputs": [
        {
          "internalType": "address",
          "name": "_noteVerifier",
          "type": "address"
        },
        {
          "internalType": "address",
          "name": "_transactVerifier",
          "type": "address"
        },
        {
          "internalType": "address",
          "name": "_withdrawalVerifier",
          "type": "address"
        }
      ],
      "stateMutability": "nonpayable",
      "type": "constructor"
    },
    {
      "inputs": [],
      "name": "AccessControlBadConfirmation",
      "type": "error"
    },
    {
      "inputs": [
        {
          "internalType": "address",
          "name": "account",
          "type": "address"
        },
        {
          "internalType": "bytes32",
          "name": "neededRole",
          "type": "bytes32"
        }
      ],
      "name": "AccessControlUnauthorizedAccount",
      "type": "error"
    },
    {
      "anonymous": false,
      "inputs": [
        {
          "indexed": true,
          "internalType": "uint256",
          "name": "leafIndex",
          "type": "uint256"
        },
        {
          "indexed": true,
          "internalType": "bytes32",
          "name": "leafValue",
          "type": "bytes32"
        }
      ],
      "name": "LeafInserted",
      "type": "event"
    },
    {
      "anonymous": false,
      "inputs": [
        {
          "indexed": false,
          "internalType": "bytes",
          "name": "encryptedNote",
          "type": "bytes"
        }
      ],
      "name": "NotePayload",
      "type": "event"
    },
    {
      "anonymous": false,
      "inputs": [
        {
          "indexed": true,
          "internalType": "bytes32",
          "name": "nullifier",
          "type": "bytes32"
        }
      ],
      "name": "NullifierUsed",
      "type": "event"
    },
    {
      "anonymous": false,
      "inputs": [
        {
          "indexed": true,
          "internalType": "bytes32",
          "name": "role",
          "type": "bytes32"
        },
        {
          "indexed": true,
          "internalType": "bytes32",
          "name": "previousAdminRole",
          "type": "bytes32"
        },
        {
          "indexed": true,
          "internalType": "bytes32",
          "name": "newAdminRole",
          "type": "bytes32"
        }
      ],
      "name": "RoleAdminChanged",
      "type": "event"
    },
    {
      "anonymous": false,
      "inputs": [
        {
          "indexed": true,
          "internalType": "bytes32",
          "name": "role",
          "type": "bytes32"
        },
        {
          "indexed": true,
          "internalType": "address",
          "name": "account",
          "type": "address"
        },
        {
          "indexed": true,
          "internalType": "address",
          "name": "sender",
          "type": "address"
        }
      ],
      "name": "RoleGranted",
      "type": "event"
    },
    {
      "anonymous": false,
      "inputs": [
        {
          "indexed": true,
          "internalType": "bytes32",
          "name": "role",
          "type": "bytes32"
        },
        {
          "indexed": true,
          "internalType": "address",
          "name": "account",
          "type": "address"
        },
        {
          "indexed": true,
          "internalType": "address",
          "name": "sender",
          "type": "address"
        }
      ],
      "name": "RoleRevoked",
      "type": "event"
    },
    {
      "inputs": [],
      "name": "DEFAULT_ADMIN_ROLE",
      "outputs": [
        {
          "internalType": "bytes32",
          "name": "",
          "type": "bytes32"
        }
      ],
      "stateMutability": "view",
      "type": "function"
    },
    {
      "inputs": [],
      "name": "DEPOSIT_ROLE",
      "outputs": [
        {
          "internalType": "bytes32",
          "name": "",
          "type": "bytes32"
        }
      ],
      "stateMutability": "view",
      "type": "function"
    },
    {
      "inputs": [],
      "name": "ETH_ADDRESS",
      "outputs": [
        {
          "internalType": "address",
          "name": "",
          "type": "address"
        }
      ],
      "stateMutability": "view",
      "type": "function"
    },
    {
      "inputs": [],
      "name": "INITIAL_ROOT",
      "outputs": [
        {
          "internalType": "uint256",
          "name": "",
          "type": "uint256"
        }
      ],
      "stateMutability": "view",
      "type": "function"
    },
    {
      "inputs": [],
      "name": "MAX_LEAF_INDEX",
      "outputs": [
        {
          "internalType": "uint256",
          "name": "",
          "type": "uint256"
        }
      ],
      "stateMutability": "view",
      "type": "function"
    },
    {
      "inputs": [],
      "name": "PRIME",
      "outputs": [
        {
          "internalType": "uint256",
          "name": "",
          "type": "uint256"
        }
      ],
      "stateMutability": "view",
      "type": "function"
    },
    {
      "inputs": [],
      "name": "ROOT_HISTORY_SIZE",
      "outputs": [
        {
          "internalType": "uint32",
          "name": "",
          "type": "uint32"
        }
      ],
      "stateMutability": "view",
      "type": "function"
    },
    {
      "inputs": [],
      "name": "currentRootIndex",
      "outputs": [
        {
          "internalType": "uint32",
          "name": "",
          "type": "uint32"
        }
      ],
      "stateMutability": "view",
      "type": "function"
    },
    {
      "inputs": [],
      "name": "deployer",
      "outputs": [
        {
          "internalType": "address",
          "name": "",
          "type": "address"
        }
      ],
      "stateMutability": "view",
      "type": "function"
    },
    {
      "inputs": [
        {
          "internalType": "address",
          "name": "_erc20",
          "type": "address"
        },
        {
          "internalType": "uint256",
          "name": "_amount",
          "type": "uint256"
        },
        {
          "internalType": "bytes",
          "name": "_proof",
          "type": "bytes"
        },
        {
          "internalType": "bytes32[]",
          "name": "_publicInputs",
          "type": "bytes32[]"
        },
        {
          "internalType": "bytes[]",
          "name": "_payload",
          "type": "bytes[]"
        }
      ],
      "name": "deposit",
      "outputs": [],
      "stateMutability": "nonpayable",
      "type": "function"
    },
    {
      "inputs": [
        {
          "internalType": "bytes",
          "name": "_proof",
          "type": "bytes"
        },
        {
          "internalType": "bytes32[]",
          "name": "_publicInputs",
          "type": "bytes32[]"
        },
        {
          "internalType": "bytes[]",
          "name": "_payload",
          "type": "bytes[]"
        }
      ],
      "name": "depositNative",
      "outputs": [],
      "stateMutability": "payable",
      "type": "function"
    },
    {
      "inputs": [],
      "name": "depositVerifier",
      "outputs": [
        {
          "internalType": "address",
          "name": "",
          "type": "address"
        }
      ],
      "stateMutability": "view",
      "type": "function"
    },
    {
      "inputs": [
        {
          "internalType": "uint256",
          "name": "",
          "type": "uint256"
        }
      ],
      "name": "filledSubtrees",
      "outputs": [
        {
          "internalType": "uint256",
          "name": "",
          "type": "uint256"
        }
      ],
      "stateMutability": "view",
      "type": "function"
    },
    {
      "inputs": [
        {
          "internalType": "bytes32",
          "name": "role",
          "type": "bytes32"
        }
      ],
      "name": "getRoleAdmin",
      "outputs": [
        {
          "internalType": "bytes32",
          "name": "",
          "type": "bytes32"
        }
      ],
      "stateMutability": "view",
      "type": "function"
    },
    {
      "inputs": [
        {
          "internalType": "bytes32",
          "name": "role",
          "type": "bytes32"
        },
        {
          "internalType": "address",
          "name": "account",
          "type": "address"
        }
      ],
      "name": "grantRole",
      "outputs": [],
      "stateMutability": "nonpayable",
      "type": "function"
    },
    {
      "inputs": [
        {
          "internalType": "bytes32",
          "name": "role",
          "type": "bytes32"
        },
        {
          "internalType": "address",
          "name": "account",
          "type": "address"
        }
      ],
      "name": "hasRole",
      "outputs": [
        {
          "internalType": "bool",
          "name": "",
          "type": "bool"
        }
      ],
      "stateMutability": "view",
      "type": "function"
    },
    {
      "inputs": [
        {
          "internalType": "uint256",
          "name": "_left",
          "type": "uint256"
        },
        {
          "internalType": "uint256",
          "name": "_right",
          "type": "uint256"
        }
      ],
      "name": "hashLeftRight",
      "outputs": [
        {
          "internalType": "uint256",
          "name": "",
          "type": "uint256"
        }
      ],
      "stateMutability": "view",
      "type": "function"
    },
    {
      "inputs": [],
      "name": "height",
      "outputs": [
        {
          "internalType": "uint256",
          "name": "",
          "type": "uint256"
        }
      ],
      "stateMutability": "view",
      "type": "function"
    },
    {
      "inputs": [
        {
          "internalType": "uint256",
          "name": "_root",
          "type": "uint256"
        }
      ],
      "name": "isKnownRoot",
      "outputs": [
        {
          "internalType": "bool",
          "name": "",
          "type": "bool"
        }
      ],
      "stateMutability": "view",
      "type": "function"
    },
    {
      "inputs": [],
      "name": "nextIndex",
      "outputs": [
        {
          "internalType": "uint256",
          "name": "",
          "type": "uint256"
        }
      ],
      "stateMutability": "view",
      "type": "function"
    },
    {
      "inputs": [
        {
          "internalType": "bytes32",
          "name": "",
          "type": "bytes32"
        }
      ],
      "name": "nullifierUsed",
      "outputs": [
        {
          "internalType": "bool",
          "name": "",
          "type": "bool"
        }
      ],
      "stateMutability": "view",
      "type": "function"
    },
    {
      "inputs": [],
      "name": "poseidon2Hasher",
      "outputs": [
        {
          "internalType": "address",
          "name": "",
          "type": "address"
        }
      ],
      "stateMutability": "view",
      "type": "function"
    },
    {
      "inputs": [
        {
          "internalType": "bytes32",
          "name": "role",
          "type": "bytes32"
        },
        {
          "internalType": "address",
          "name": "callerConfirmation",
          "type": "address"
        }
      ],
      "name": "renounceRole",
      "outputs": [],
      "stateMutability": "nonpayable",
      "type": "function"
    },
    {
      "inputs": [
        {
          "internalType": "bytes32",
          "name": "role",
          "type": "bytes32"
        },
        {
          "internalType": "address",
          "name": "account",
          "type": "address"
        }
      ],
      "name": "revokeRole",
      "outputs": [],
      "stateMutability": "nonpayable",
      "type": "function"
    },
    {
      "inputs": [
        {
          "internalType": "uint256",
          "name": "",
          "type": "uint256"
        }
      ],
      "name": "roots",
      "outputs": [
        {
          "internalType": "uint256",
          "name": "",
          "type": "uint256"
        }
      ],
      "stateMutability": "view",
      "type": "function"
    },
    {
      "inputs": [
        {
          "internalType": "address",
          "name": "_hasher",
          "type": "address"
        }
      ],
      "name": "setPoseidon",
      "outputs": [],
      "stateMutability": "nonpayable",
      "type": "function"
    },
    {
      "inputs": [
        {
          "internalType": "bytes4",
          "name": "interfaceId",
          "type": "bytes4"
        }
      ],
      "name": "supportsInterface",
      "outputs": [
        {
          "internalType": "bool",
          "name": "",
          "type": "bool"
        }
      ],
      "stateMutability": "view",
      "type": "function"
    },
    {
      "inputs": [
        {
          "internalType": "bytes",
          "name": "_proof",
          "type": "bytes"
        },
        {
          "internalType": "bytes32[]",
          "name": "_publicInputs",
          "type": "bytes32[]"
        },
        {
          "internalType": "bytes[]",
          "name": "_payload",
          "type": "bytes[]"
        }
      ],
      "name": "transfer",
      "outputs": [],
      "stateMutability": "nonpayable",
      "type": "function"
    },
    {
      "inputs": [],
      "name": "transferVerifier",
      "outputs": [
        {
          "internalType": "address",
          "name": "",
          "type": "address"
        }
      ],
      "stateMutability": "view",
      "type": "function"
    },
    {
      "inputs": [
        {
          "internalType": "bytes",
          "name": "_proof",
          "type": "bytes"
        },
        {
          "internalType": "bytes32[]",
          "name": "_publicInputs",
          "type": "bytes32[]"
        }
      ],
      "name": "withdraw",
      "outputs": [],
      "stateMutability": "nonpayable",
      "type": "function"
    },
    {
      "inputs": [],
      "name": "withdrawVerifier",
      "outputs": [
        {
          "internalType": "address",
          "name": "",
          "type": "address"
        }
      ],
      "stateMutability": "view",
      "type": "function"
    },
    {
      "inputs": [
        {
          "internalType": "uint256",
          "name": "i",
          "type": "uint256"
        }
      ],
      "name": "zeros",
      "outputs": [
        {
          "internalType": "uint256",
          "name": "",
          "type": "uint256"
        }
      ],
      "stateMutability": "pure",
      "type": "function"
    }
  ],
  "bytecode": "0x60c06040526002805463ffffffff191690555f6003557f2561bf26f818282a3be40719542054d2173eb0d38539e8a8d3cff22f29fd2384600c5573eeeeeeeeeeeeeeeeeeeeeeeeeeeeeeeeeeeeeeee60a05234801561005c575f5ffd5b5060405161256538038061256583398101604081905261007b91610218565b600c608081905261008d60018261026c565b610098906002610362565b600455505f80805260016020527f124005ad54174bbcb8c2dd053ea318daa80106cdcc518731504b771d6006123f7fa6eef7e35abe7026729641147f7915573c7e97b47efa546f5f6e3230263bcb495560068054336001600160a01b031991821681179092556008805482166001600160a01b0388811691909117909155600980548316878316179055600a80549092169085161790556101399190610150565b50600c546101479033610150565b50505050610374565b5f8281526007602090815260408083206001600160a01b038516845290915281205460ff166101f4575f8381526007602090815260408083206001600160a01b03861684529091529020805460ff191660011790556101ac3390565b6001600160a01b0316826001600160a01b0316847f2f8788117e7eff1d82e926ec794901d17c78024a50270940304540a733656f0d60405160405180910390a45060016101f7565b505f5b92915050565b80516001600160a01b0381168114610213575f5ffd5b919050565b5f5f5f6060848603121561022a575f5ffd5b610233846101fd565b9250610241602085016101fd565b915061024f604085016101fd565b90509250925092565b634e487b7160e01b5f52601160045260245ffd5b818103818111156101f7576101f7610258565b6001815b60018411156102ba5780850481111561029e5761029e610258565b60018416156102ac57908102905b60019390931c928002610283565b935093915050565b5f826102d0575060016101f7565b816102dc57505f6101f7565b81600181146102f257600281146102fc57610318565b60019150506101f7565b60ff84111561030d5761030d610258565b50506001821b6101f7565b5060208310610133831016604e8410600b841016171561033b575081810a6101f7565b6103475f19848461027f565b805f190482111561035a5761035a610258565b029392505050565b5f61036d83836102c2565b9392505050565b60805160a0516121bb6103aa5f395f81816104b301528181610b1701526114a101525f81816102280152611a0001526121bb5ff3fe60806040526004361061019e575f3560e01c80638daed528116100df578063c2b40ae411610083578063c2b40ae414610527578063c46165b514610552578063cd87a3b414610565578063d547741f14610579578063d5f3948814610598578063e8295588146105b7578063f178e47c146105d6578063fc7e9c6f14610601575f5ffd5b80638daed5281461040157806390eeb02b1461042057806391d1485414610451578063a217fddf14610470578063a6232a9314610483578063a734f06e146104a2578063aa77c44a146104d5578063b42147cd146104f4575f5ffd5b806336568abe1161014657806336568abe146103045780635bb93995146103235780635e125d0d1461034257806367843a5b146103615780637ecf686d1461038057806380fc7498146103ae57806384746900146103c3578063864eb164146103e2575f5ffd5b806217cd8b146101a257806301ffc9a7146101e85780630ef26743146102175780631a702a241461024a578063248a9ca31461028157806326120c88146102af5780632f2ff15d146102ce578063353efdcf146102ef575b5f5ffd5b3480156101ad575f5ffd5b506101d57f30644e72e131a029b85045b68181585d2833e84879b9709143e1f593f000000181565b6040519081526020015b60405180910390f35b3480156101f3575f5ffd5b50610207610202366004611bc4565b610616565b60405190151581526020016101df565b348015610222575f5ffd5b506101d57f000000000000000000000000000000000000000000000000000000000000000081565b348015610255575f5ffd5b50600554610269906001600160a01b031681565b6040516001600160a01b0390911681526020016101df565b34801561028c575f5ffd5b506101d561029b366004611bf2565b5f9081526007602052604090206001015490565b3480156102ba575f5ffd5b50600854610269906001600160a01b031681565b3480156102d9575f5ffd5b506102ed6102e8366004611c1f565b61064c565b005b3480156102fa575f5ffd5b506101d5600c5481565b34801561030f575f5ffd5b506102ed61031e366004611c1f565b610676565b34801561032e575f5ffd5b506101d561033d366004611c49565b6106ae565b34801561034d575f5ffd5b506102ed61035c366004611c69565b6107a6565b34801561036c575f5ffd5b506102ed61037b366004611d06565b610871565b34801561038b575f5ffd5b5061020761039a366004611bf2565b600b6020525f908152604090205460ff1681565b3480156103b9575f5ffd5b506101d560045481565b3480156103ce575f5ffd5b506102ed6103dd366004611d70565b610d0a565b3480156103ed575f5ffd5b50600a54610269906001600160a01b031681565b34801561040c575f5ffd5b50600954610269906001600160a01b031681565b34801561042b575f5ffd5b5060025461043c9063ffffffff1681565b60405163ffffffff90911681526020016101df565b34801561045c575f5ffd5b5061020761046b366004611c1f565b61102d565b34801561047b575f5ffd5b506101d55f81565b34801561048e575f5ffd5b5061020761049d366004611bf2565b611057565b3480156104ad575f5ffd5b506102697f000000000000000000000000000000000000000000000000000000000000000081565b3480156104e0575f5ffd5b506102ed6104ef366004611e0c565b6110d0565b3480156104ff575f5ffd5b506101d57f124005ad54174bbcb8c2dd053ea318daa80106cdcc518731504b771d6006123f81565b348015610532575f5ffd5b506101d5610541366004611bf2565b60016020525f908152604090205481565b6102ed610560366004611d70565b6113d9565b348015610570575f5ffd5b5061043c606481565b348015610584575f5ffd5b506102ed610593366004611c1f565b61162c565b3480156105a3575f5ffd5b50600654610269906001600160a01b031681565b3480156105c2575f5ffd5b506101d56105d1366004611bf2565b611650565b3480156105e1575f5ffd5b506101d56105f0366004611bf2565b5f6020819052908152604090205481565b34801561060c575f5ffd5b506101d560035481565b5f6001600160e01b03198216637965db0b60e01b148061064657506301ffc9a760e01b6001600160e01b03198316145b92915050565b5f8281526007602052604090206001015461066681611898565b61067083836118a5565b50505050565b6001600160a01b038116331461069f5760405163334bd91960e11b815260040160405180910390fd5b6106a98282611936565b505050565b5f5f83836040516020016106cc929190918252602082015260400190565b60408051601f19818403018152908290526005549092505f9182916001600160a01b0316906106fc908590611ec1565b5f60405180830381855afa9150503d805f8114610734576040519150601f19603f3d011682016040523d82523d5f602084013e610739565b606091505b5091509150816107885760405162461bcd60e51b8152602060048201526015602482015274141bdcd95a591bdb8c881a185cda0819985a5b1959605a1b60448201526064015b60405180910390fd5b8080602001905181019061079c9190611ed7565b9695505050505050565b6005546001600160a01b0316156107f55760405162461bcd60e51b815260206004820152601360248201527243616e2774207365742069742074776963652160681b604482015260640161077f565b6006546001600160a01b0316331461084f5760405162461bcd60e51b815260206004820152601e60248201527f6f6e6c79206465706c6f7965722063616e2073657420706f736569646f6e0000604482015260640161077f565b600580546001600160a01b0319166001600160a01b0392909216919091179055565b61089482825f81811061088657610886611eee565b905060200201355f1c611057565b6108b05760405162461bcd60e51b815260040161077f90611f02565b600a54604051633a94343960e21b81525f916001600160a01b03169063ea50d0e4906108e6908890889088908890600401611f51565b6020604051808303815f875af1158015610902573d5f5f3e3d5ffd5b505050506040513d601f19601f820116820180604052508101906109269190611f9b565b90508061096e5760405162461bcd60e51b815260206004820152601660248201527524b73b30b634b2103bb4ba34323930bb90383937b7b360511b604482015260640161077f565b60015b60038111610a7f575f84848381811061098c5761098c611eee565b9050602002013514610a6d57600b5f8585848181106109ad576109ad611eee565b602090810292909201358352508101919091526040015f205460ff16156109e65760405162461bcd60e51b815260040161077f90611fba565b6001600b5f8686858181106109fd576109fd611eee565b9050602002013581526020019081526020015f205f6101000a81548160ff021916908315150217905550838382818110610a3957610a39611eee565b905060200201357f4aac17bcf1974f8ba294b28aaf75fe627cdcc9a03ac55bda3bfe158ab067383c60405160405180910390a25b80610a7781611fff565b915050610971565b505f5b6003811015610d02575f610a97826004612017565b90505f610aa5836007612017565b90505f610ab384600a612017565b90505f878785818110610ac857610ac8611eee565b905060200201355f1c90505f888885818110610ae657610ae6611eee565b905060200201355f1c90505f898985818110610b0457610b04611eee565b60200291909101359150508115610cf0577f00000000000000000000000000000000000000000000000000000000000000006001600160a01b0316836001600160a01b031603610c345781471015610b995760405162461bcd60e51b8152602060048201526018602482015277496e73756666696369656e74204554482062616c616e636560401b604482015260640161077f565b5f816001600160a01b0316836040515f6040518083038185875af1925050503d805f8114610be2576040519150601f19603f3d011682016040523d82523d5f602084013e610be7565b606091505b5050905080610c2e5760405162461bcd60e51b8152602060048201526013602482015272115512081d1c985b9cd9995c8819985a5b1959606a1b604482015260640161077f565b50610cf0565b60405163a9059cbb60e01b81526001600160a01b038281166004830152602482018490525f919085169063a9059cbb906044016020604051808303815f875af1158015610c83573d5f5f3e3d5ffd5b505050506040513d601f19601f82011682018060405250810190610ca79190611f9b565b905080610cee5760405162461bcd60e51b8152602060048201526015602482015274151bdad95b881d1c985b9cd9995c8819985a5b1959605a1b604482015260640161077f565b505b505060019094019350610a8292505050565b505050505050565b610d1f84845f81811061088657610886611eee565b610d3b5760405162461bcd60e51b815260040161077f90611f02565b600954604051633a94343960e21b81525f916001600160a01b03169063ea50d0e490610d71908a908a908a908a90600401611f51565b6020604051808303815f875af1158015610d8d573d5f5f3e3d5ffd5b505050506040513d601f19601f82011682018060405250810190610db19190611f9b565b905080610df95760405162461bcd60e51b815260206004820152601660248201527524b73b30b634b2103a3930b739b332b910383937b7b360511b604482015260640161077f565b60015b610e0860036001612017565b811015610f0b575f868683818110610e2257610e22611eee565b9050602002013514610f0357600b5f878784818110610e4357610e43611eee565b602090810292909201358352508101919091526040015f205460ff1615610e7c5760405162461bcd60e51b815260040161077f90611fba565b6001600b5f888885818110610e9357610e93611eee565b9050602002013581526020019081526020015f205f6101000a81548160ff021916908315150217905550858582818110610ecf57610ecf611eee565b905060200201357f4aac17bcf1974f8ba294b28aaf75fe627cdcc9a03ac55bda3bfe158ab067383c60405160405180910390a25b600101610dfc565b505f610f1960036001612017565b90505b6003610f29816001612017565b610f339190612017565b811015610f86575f868683818110610f4d57610f4d611eee565b9050602002013514610f7e57610f7c868683818110610f6e57610f6e611eee565b905060200201355f1c6119a1565b505b600101610f1c565b505f5b600381108015610f9857508281105b1561102357838382818110610faf57610faf611eee565b9050602002810190610fc1919061202a565b159050611011575f5160206121665f395f51905f52848483818110610fe857610fe8611eee565b9050602002810190610ffa919061202a565b60405161100892919061206c565b60405180910390a15b8061101b81611fff565b915050610f89565b5050505050505050565b5f9182526007602090815260408084206001600160a01b0393909316845291905290205460ff1690565b5f815f0361106657505f919050565b60025463ffffffff16805b63ffffffff81165f908152600160205260409020548403611096575060019392505050565b8063ffffffff165f036110a7575060645b806110b181612087565b9150508163ffffffff168163ffffffff160361107157505f9392505050565b600c546110dc81611898565b6040516323b872dd60e01b8152336004820152306024820152604481018990525f906001600160a01b038b16906323b872dd906064016020604051808303815f875af115801561112e573d5f5f3e3d5ffd5b505050506040513d601f19601f820116820180604052508101906111529190611f9b565b9050806111a15760405162461bcd60e51b815260206004820152601a60248201527f6661696c656420746f207472616e73666572206465706f736974000000000000604482015260640161077f565b600854604051633a94343960e21b81525f916001600160a01b03169063ea50d0e4906111d7908c908c908c908c90600401611f51565b6020604051808303815f875af11580156111f3573d5f5f3e3d5ffd5b505050506040513d601f19601f820116820180604052508101906112179190611f9b565b9050806112365760405162461bcd60e51b815260040161077f906120a5565b8686600181811061124957611249611eee565b905060200201355f1c6001600160a01b03168b6001600160a01b0316146112ab5760405162461bcd60e51b815260206004820152601660248201527508aa486646040c2c8c8e4cae6e640dad2e6dac2e8c6d60531b604482015260640161077f565b868660028181106112be576112be611eee565b905060200201355f1c6001600160401b03168a146113195760405162461bcd60e51b81526020600482015260186024820152771059191c995cdcc8185b5bdd5b9d081a5b98dbdc9c9958dd60421b604482015260640161077f565b61132e87875f818110610f6e57610f6e611eee565b505f5b60038110801561134057508481105b156113cb5785858281811061135757611357611eee565b9050602002810190611369919061202a565b1590506113b9575f5160206121665f395f51905f5286868381811061139057611390611eee565b90506020028101906113a2919061202a565b6040516113b092919061206c565b60405180910390a15b806113c381611fff565b915050611331565b505050505050505050505050565b600c546113e581611898565b600854604051633a94343960e21b81525f916001600160a01b03169063ea50d0e49061141b908b908b908b908b90600401611f51565b6020604051808303815f875af1158015611437573d5f5f3e3d5ffd5b505050506040513d601f19601f8201168201806040525081019061145b9190611f9b565b90508061147a5760405162461bcd60e51b815260040161077f906120a5565b8585600181811061148d5761148d611eee565b905060200201355f1c6001600160a01b03167f00000000000000000000000000000000000000000000000000000000000000006001600160a01b0316146115095760405162461bcd60e51b815260206004820152601060248201526f082c8c8e4cae6e640dad2e6dac2e8c6d60831b604482015260640161077f565b8585600281811061151c5761151c611eee565b905060200201355f1c6001600160401b0316341461156f5760405162461bcd60e51b815260206004820152601060248201526f105b5bdd5b9d081a5b98dbdc9c9958dd60821b604482015260640161077f565b61158486865f818110610f6e57610f6e611eee565b505f5b60038110801561159657508381105b15611621578484828181106115ad576115ad611eee565b90506020028101906115bf919061202a565b15905061160f575f5160206121665f395f51905f528585838181106115e6576115e6611eee565b90506020028101906115f8919061202a565b60405161160692919061206c565b60405180910390a15b8061161981611fff565b915050611587565b505050505050505050565b5f8281526007602052604090206001015461164681611898565b6106708383611936565b5f815f0361167f57507f1e2856f9f722631c878a92dc1d84283d04b76df3e1831492bdf7098c1e65e478919050565b816001036116ae57507f2c2eecb1b14035bfd9765e84195684b401a84fdb58c3c03f1bcea86dcf0c8105919050565b816002036116dd57507f237e412a71db31e5769f63d92346a09dd0f30b9c335e9d9aa96b6625eb537445919050565b8160030361170c57507f0b3ff120d61a7de2da3d80ff99d393796805c74be5c39e8a4c7436d1c65dad4c919050565b8160040361173b57507f0fc58e21665302678bef68714d9e5889583071f7bd3cf018b64fafc51b0a9cf3919050565b8160050361176a57507f235df7c585524ed8a26aea20a0fb168038f10df71d84720c9a8c1b3e78e3b6cd919050565b8160060361179957507f1c6cabee394ea24dc09eab1788f7f62b367e95789f883e33690d94215d819264919050565b816007036117c857507f09bec327ab2c8dda5d2d435cd267cb21e71f21371a01739885817eb1625d8976919050565b816008036117f757507f2d35519ad7061578be50cbbfe040327843f6b4cdf1458e01b5f9737dbaf82b18919050565b8160090361182657507f0f86c9e9c9e689394a4944bb87291a3f55cc930b21432fccf41b8267f1a98d6f919050565b81600a0361185557507f181c9ba70900093b180c96f55cc2b1d73d60b8ab613344cbba83b33cbcc94e2b919050565b60405162461bcd60e51b8152602060048201526013602482015272496e646578206f7574206f6620626f756e647360681b604482015260640161077f565b919050565b6118a28133611b87565b50565b5f6118b0838361102d565b61192f575f8381526007602090815260408083206001600160a01b03861684529091529020805460ff191660011790556118e73390565b6001600160a01b0316826001600160a01b0316847f2f8788117e7eff1d82e926ec794901d17c78024a50270940304540a733656f0d60405160405180910390a4506001610646565b505f610646565b5f611941838361102d565b1561192f575f8381526007602090815260408083206001600160a01b0386168085529252808320805460ff1916905551339286917ff6391f5c32d9c69d2a47ea670b442974b53935d1edc7fd64eb21e047a839171b9190a4506001610646565b6003546004545f919081036119e45760405162461bcd60e51b8152602060048201526009602482015268151c995948119d5b1b60ba1b604482015260640161077f565b5f818152602081905260408120849055819084905b611a2460017f00000000000000000000000000000000000000000000000000000000000000006120d5565b811015611af1575f611a376002856120fc565b1590505f81611a5057611a4b6001866120d5565b611a5b565b611a5b856001612017565b602084811b82175f8181529182905260408220549293509190819003611a8757611a8485611650565b90505b8315611a9e57611a9786826106ae565b9550611aab565b611aa881876106ae565b95505b611ab660028861210f565b9650855f80611ad1611ac9896001612017565b60201b8b1790565b815260208101919091526040015f20555050600190920191506119f99050565b506002545f90606490611b0b9063ffffffff166001612122565b611b15919061213e565b6002805463ffffffff191663ffffffff83169081179091555f908152600160208190526040909120849055909150611b4e908590612017565b600355604051869085907f9a40fd7d16dbc76bf1972bae17064a13dea280d9723bc57a2a89a516d45757f5905f90a35091949350505050565b611b91828261102d565b611bc05760405163e2517d3f60e01b81526001600160a01b03821660048201526024810183905260440161077f565b5050565b5f60208284031215611bd4575f5ffd5b81356001600160e01b031981168114611beb575f5ffd5b9392505050565b5f60208284031215611c02575f5ffd5b5035919050565b80356001600160a01b0381168114611893575f5ffd5b5f5f60408385031215611c30575f5ffd5b82359150611c4060208401611c09565b90509250929050565b5f5f60408385031215611c5a575f5ffd5b50508035926020909101359150565b5f60208284031215611c79575f5ffd5b611beb82611c09565b5f5f83601f840112611c92575f5ffd5b5081356001600160401b03811115611ca8575f5ffd5b602083019150836020828501011115611cbf575f5ffd5b9250929050565b5f5f83601f840112611cd6575f5ffd5b5081356001600160401b03811115611cec575f5ffd5b6020830191508360208260051b8501011115611cbf575f5ffd5b5f5f5f5f60408587031215611d19575f5ffd5b84356001600160401b03811115611d2e575f5ffd5b611d3a87828801611c82565b90955093505060208501356001600160401b03811115611d58575f5ffd5b611d6487828801611cc6565b95989497509550505050565b5f5f5f5f5f5f60608789031215611d85575f5ffd5b86356001600160401b03811115611d9a575f5ffd5b611da689828a01611c82565b90975095505060208701356001600160401b03811115611dc4575f5ffd5b611dd089828a01611cc6565b90955093505060408701356001600160401b03811115611dee575f5ffd5b611dfa89828a01611cc6565b979a9699509497509295939492505050565b5f5f5f5f5f5f5f5f60a0898b031215611e23575f5ffd5b611e2c89611c09565b97506020890135965060408901356001600160401b03811115611e4d575f5ffd5b611e598b828c01611c82565b90975095505060608901356001600160401b03811115611e77575f5ffd5b611e838b828c01611cc6565b90955093505060808901356001600160401b03811115611ea1575f5ffd5b611ead8b828c01611cc6565b999c989b5096995094979396929594505050565b5f82518060208501845e5f920191825250919050565b5f60208284031215611ee7575f5ffd5b5051919050565b634e487b7160e01b5f52603260045260245ffd5b6020808252600d908201526c496e76616c696420526f6f742160981b604082015260600190565b81835281816020850137505f828201602090810191909152601f909101601f19169091010190565b604081525f611f64604083018688611f29565b82810360208401528381526001600160fb1b03841115611f82575f5ffd5b8360051b80866020840137016020019695505050505050565b5f60208284031215611fab575f5ffd5b81518015158114611beb575f5ffd5b602080825260179082015276139d5b1b1a599a595c88185b1c9958591e481cdc195b9d604a1b604082015260600190565b634e487b7160e01b5f52601160045260245ffd5b5f6001820161201057612010611feb565b5060010190565b8082018082111561064657610646611feb565b5f5f8335601e1984360301811261203f575f5ffd5b8301803591506001600160401b03821115612058575f5ffd5b602001915036819003821315611cbf575f5ffd5b602081525f61207f602083018486611f29565b949350505050565b5f63ffffffff82168061209c5761209c611feb565b5f190192915050565b602080825260169082015275496e76616c6964206465706f7369742070726f6f662160501b604082015260600190565b8181038181111561064657610646611feb565b634e487b7160e01b5f52601260045260245ffd5b5f8261210a5761210a6120e8565b500690565b5f8261211d5761211d6120e8565b500490565b63ffffffff818116838216019081111561064657610646611feb565b5f63ffffffff831680612153576121536120e8565b8063ffffffff8416069150509291505056fe1350ba861189904691f5a79791c8b0eb3c5ea51a8954ae413a167e05c66ca1e0a2646970667358221220e72906da9e01e129b73110391184b6af4deda5d0bbed1a05cbfb6d409dffbda164736f6c634300081c0033",
  "linkReferences": {},
  "deployedLinkReferences": {},
  "immutableReferences": {
    "573": [
      {
        "length": 32,
        "start": 1203
      },
      {
        "length": 32,
        "start": 2839
      },
      {
        "length": 32,
        "start": 5281
      }
    ],
    "1219": [
      {
        "length": 32,
        "start": 552
      },
      {
        "length": 32,
        "start": 6656
      }
    ]
  },
  "inputSourceName": "project/contracts/CommBankDotEth.sol",
  "buildInfoId": "solc-0_8_28-09da3b80d3933002842fb02fea1acd238a2be744"
}